:020000040800F2
:10000000F008002069020008050E0008B708000883
:10001000F90D00083F030008752B000800000000E0
:100020000000000000000000000000001D18000893
:1000300051050008000000005D1300080D190008BC
:10004000830200088302000883020008830200087C
:10005000830200088302000883020008830200086C
:10006000830200088302000883020008830200085C
:10007000830200088302000883020008830200084C
:100080004503000883020008830200088302000879
:10009000830200088302000883020008830200082C
:1000A000830200088302000883020008830200081C
:1000B000ED1900088302000883020008830200088B
:1000C00083020008830200088302000883020008FC
:1000D00083020008830200088302000883020008EC
:1000E00083020008830200088302000883020008DC
:1000F00083020008830200088302000883020008CC
:1001000083020008830200088302000883020008BB
:1001100083020008830200085D1A000883020008B9
:10012000830200088302000883020008830200089B
:10013000830200088302000883020008830200088B
:10014000830200088302000883020008830200087B
:10015000830200088302000883020008830200086B
:10016000830200088302000883020008830200085B
:10017000830200088302000883020008830200084B
:10018000830200088302000800F002F800F05CF827
:100190000AA090E8000C82448344AAF10107DA45E2
:1001A00001D100F051F8AFF2090EBAE80F0013F0D8
:1001B000010F18BFFB1A43F001031847943D0000DC
:1001C000B43D00000A444FF0000C10F8013B13F05E
:1001D000070408BF10F8014B1D1108BF10F8015BA0
:1001E000641E05D010F8016B641E01F8016BF9D193
:1001F00013F0080F1EBF10F8014BAD1C0C1B09D1EA
:100200006D1E58BF01F801CBFAD505E014F8016B5B
:1002100001F8016B6D1EF9D59142D6D370470000ED
:100220000023002400250026103A28BF78C1FBD8FF
:10023000520728BF30C148BF0B6070471FB503F09D
:1002400050FE1FBD10B510BD00F044F81146FFF779
:10025000F5FF03F029F800F062F803B4FFF7F2FFAE
:1002600003BC00F065F800000948804709480047D2
:10027000FEE7FEE7FEE7FEE7FEE7FEE7FEE7FEE756
:10028000FEE7FEE704480549054A064B70470000B3
:100290002919000889010008F0020020F008002058
:1002A000F0040020F004002070477047704710B53C
:1002B00000F008F8006810BD10B5044600F002F820
:1002C000046010BD0048704790020020004870474D
:1002D000900200207546FFF7F9FFAE46050069461B
:1002E000534620F00700854618B020B5FFF7CAFF37
:1002F000BDE820404FF000064FF000074FF0000827
:100300004FF0000B21F00701AC46ACE8C009ACE8A7
:10031000C009ACE8C009ACE8C0098D46704710B50B
:100320000446AFF300802046BDE81040FFF795BFBC
:1003300001491820ABBEFEE726000200704700BF4F
:10034000FEE7000010B53C493C4800F093F83C48FB
:1003500000783C4908703C480078394908703B48AF
:10036000006801280AD1084600783949394A1268DC
:10037000885438480068401C364908603348006893
:10038000012845D12F4800780A2841D12C4800780F
:100390000D283DD12E480078AC2818D12C48407843
:1003A000012814D12C482A49D1F8021001602B48A9
:1003B0002749D1F80610016029482549D1F80A10CB
:1003C000016028482249D1F80E1001601BE0204846
:1003D0000078AD2817D11E484078012813D1224853
:1003E0001B49D1F80210016020481949D1F80610C4
:1003F00001601F481649D1F80A10016019481449D4
:10040000D1F802100160002010490860114908600D
:100410000E48006850B90B480078AA2806D1084851
:100420000078FF2802D10120084908600121034813
:1004300000F03AF810BD00000088002088600240FB
:10044000CC000020CD000020BC00002004010020D2
:10045000DC01002008010020F8000020FC00002042
:1004600000010020DC000020EC000020F000002053
:10047000F40000200246094B9A4201D2084801E0EC
:100480000648103801F000531BB1064B0B40C36007
:1004900002E0044B0B408360704700001064024090
:1004A000006002407D0F7D0F21B1026842F0010221
:1004B000026003E0026822F001020260704710B59A
:1004C00001F080034BB122B1436943F080034361E3
:1004D00003E0436923F08003436180290BD02AB1F4
:1004E000036801F01E042343036004E0036801F085
:1004F0001E04A343036010BD10B500220268134B15
:100500001A40CC680B6823434C6923438C6923430E
:10051000CC6923430C6A23434C6A23438C6A2343EC
:100520004C6B23438C6B23431A430260426922F0D5
:100530000702D1E90B3423431A4342610B6943603C
:100540004B6883608B68C36010BD00003F801CF067
:100550007047000008B50121042000F0D7FF4FF4D8
:1005600000504310254A11460090254800F0EAF853
:1005700002220C21214800F069F902220D211F48B6
:1005800000F064F947F230511D4801F09FFC012151
:10059000082000F0BBFF022001231A4A11460090F8
:1005A000194800F0CFF802220021164800F04EF959
:1005B00002220121134800F049F947F23051124854
:1005C00001F084FC0121022000F0B0FF80204023D4
:1005D0000E4A114600900E4800F0B4F8032206219E
:1005E0000A4800F033F903220721084800F02EF9E9
:1005F00047F23051064801F069FC08BD000C02408A
:100600000008004000000240000C004000080240CA
:100610000004014070B52DED108B05460C46B0EE80
:10062000408A284601F04FFB06B2A00003F06BF9A8
:1006300041EC1C0BA6F5EA40303803F064F941ECBC
:100640001F0B9FED180B53EC102B03F0AFF941EC8F
:100650001E0B9FED160B53EC102B03F0A7F941EC8A
:100660001D0B53EC1C2B02F0C7FF41EC1A0B18EECC
:10067000100A03F0C5FB41EC1B0B53EC1A2B02F0E4
:1006800007FF41EC190B02F0D1FE08EE100A47F209
:100690003051284601F01AFCB0EE480ABDEC108B30
:1006A00070BD000000000000000021401F85EB51DC
:1006B000B81E094070B52DED0C8B05460C4628463A
:1006C00001F001FB06B2A00003F01DF941EC1A0B8A
:1006D000A6F5EA413039164A127801FB02F003F020
:1006E00012F941EC1D0B9FED130B53EC102B03F093
:1006F0005DF941EC1C0B9FED110B53EC102B03F03B
:1007000055F941EC1B0B53EC1A2B02F075FF41EC31
:10071000190B02F08BFE08EE100A47F23051284602
:1007200001F0D4FBB0EE480ABDEC0C8B70BD0000AC
:100730001001002000000000000021401F85EB5147
:10074000B81E09402DE9F04186B007460C46154613
:100750001E46DDF83080049602208DF8140001203A
:100760008DF8170002208DF8150004A9204600F02E
:1007700025F8CDF8108004A9284600F01FF80020C5
:10078000ADF80C00ADF80600ADF804004FF6FF70B0
:10079000029001A9384601F09BFB0021384601F088
:1007A00095FB00231A460321384601F06BFA01211C
:1007B000384601F04CFA06B0BDE8F081F0B50A46C3
:1007C00000210023002400BF3DE0012505FA01F3CC
:1007D000156805EA03049C4234D105684F000326DE
:1007E000BE40B543056015794E00B54006683543F7
:1007F00005601579012D02D01579022D16D1856875
:100800004F000326BE40B543856055794E00B54084
:10081000866835438560456801268E40B54345604E
:10082000456896798E40B6B235434560C5684F003D
:100830000326BE40B543C560D5794E00B540C668B5
:100840003543C560491C1029BFD3F0BDF0B5002366
:1008500000244D07ED0E02FA05F3CE1000F120053D
:1008600055F826504E07F70E0F26BE40B543CF1061
:1008700000F1200646F82750CE1000F1200555F86B
:10088000265045EA0304CE1000F1200545F8264025
:10089000F0BD0246002013690B400BB1012000E0BF
:1008A0000020704741837047018370470AB101837C
:1008B00000E04183704700BFFEE72DE9F0410746A5
:1008C0000D46164602F05CFC384602F099FC20B951
:1008D00002F07AFC0020BDE8F081002405E0012050
:1008E00002F0FEFB2855601CC4B2701EA042F6DC6C
:1008F000002002F0F5FB285502F066FC0120EAE733
:100900002DE9F04107460D46164602F039FC3846FF
:1009100002F076FC20B902F057FC0020BDE8F0811F
:10092000002409E0285D02F06BFC18B902F04CFCD1
:100930000020F3E7601CC4B2B442F3DB02F044FCD5
:100940000120EBE710B504461CB101200449C87032
:1009500002E000200249C87000F00AF810BD000053
:100960005601002010B5012000F0C0F810BD0000B5
:1009700010B500240EE00B480078401009490870BB
:100980000948005D20B10846007840F080000870FA
:10099000601CC4B2082CEEDB012202494E20FFF796
:1009A000AFFF10BD5E010020560100203EB50121C1
:1009B000402000F0ABFD5320ADF800004FF6FF7073
:1009C00001906946224801F083FA0121204801F094
:1009D0003EF9322002F03CFB00F010FA002404E063
:1009E00000201C490855601CC4B2082CF8DBFFF736
:1009F000BFFF002017490870FFF7BAFF0020154914
:100A00004870FFF7B5FF032000F088F8052002F0DA
:100A10001FFB032000F082F8012002F019FB0320E5
:100A200000F07CF8012002F013FB022000F076F8C1
:100A3000012002F00DFB282000F058F80C2000F0F7
:100A400055F80E2000F052F8012000F04FF83EBD9E
:100A5000001800405601002010B5C02000F046F8F4
:100A600010BD10B5044607E0207820B114F8010B42
:100A700000F08CF800E000E0F6E700BF10BD0000D9
:100A800008B501201849087148718871C871FFF7CD
:100A90006FFF002014490870FFF76AFF0120124918
:100AA0004870FFF765FF00BF01200F498870FFF70E
:100AB0005FFF012269464F20FFF7FFFE00200A4931
:100AC0008870FFF755FF012007498870FFF750FF36
:100AD000002005498870FFF74BFF9DF8000000F0EB
:100AE00008000028E0D108BD5601002010B50446DA
:100AF000FFF7C6FF002008490870FFF739FF002004
:100B000005494870FFF734FF201100F007F8204630
:100B100000F004F810BD00005601002010B5044696
:100B200004F0080018B101201749C87102E0002044
:100B30001549C87104F0040018B1012012498871E8
:100B400002E000201049887104F0020018B1012071
:100B50000D49487102E000200B49487104F0010082
:100B600018B101200849087102E000200649087107
:100B7000012005498870FFF7FBFE002002498870BC
:100B8000FFF7F6FE10BD00005601002010B5044628
:100B9000FFF776FF012008490870FFF7E9FE002003
:100BA00005494870FFF7E4FE2011FFF7B7FF204624
:100BB000FFF7B4FF10BD00005601002070B52DED09
:100BC000108BB0EE408A0446002C7DD17E48006830
:100BD00003F016F941EC1C0B7C4890ED000ABFEEC7
:100BE000001AC1EE000A7A4890ED000A20EE800A51
:100BF00010EE105A284603F003F941EC1E0BB0EE3C
:100C00004E0AF0EE6E0A01F0CFFFB0EE40DAF0EEE1
:100C100060DA53EC1C2B51EC1D0B02F0C7FE41ECCB
:100C20001A0B6C48006803F0EBF841EC1C0B6748AA
:100C3000D0ED000ABFEE001A81EE200A6448D0ED24
:100C4000000A20EE200A10EE105A284603F0D8F8C9
:100C500041EC1F0BB0EE4F0AF0EE6F0A01F0A4FF5B
:100C6000B0EE40EAF0EE60EA9FED5B0B53EC102B28
:100C700051EC1E0B02F0CEFF41EC1D0B53EC1C2B74
:100C800002F094FE41EC1B0B53EC1A2B02F000FC1B
:100C900041EC190B02F0CAFB514908604A4890ED3B
:100CA000000A504880ED000A084690ED000A4648C8
:100CB00080ED000A474880ED008A084690ED000A62
:100CC000BDEC108B70BDFFE7012C7BD1464800685E
:100CD00003F096F841EC1C0B3C48D0ED000ABFEE47
:100CE000001A81EE200A3A48D0ED000A20EE200AD0
:100CF00010EE105A284603F083F841EC1E0BB0EEBC
:100D00004E0AF0EE6E0A01F04FFFB0EE40DAF0EE60
:100D100060DA53EC1C2B51EC1D0B02F047FE41EC4A
:100D20001A0B3248006803F06BF841EC1C0B2748A3
:100D3000D0ED000ABFEE001A81EE200A2448D0ED63
:100D4000000A20EE200A10EE105A284603F058F848
:100D500041EC1F0BB0EE4F0AF0EE6F0A01F024FFDA
:100D6000B0EE40EAF0EE60EA9FED1B0B53EC102B67
:100D700051EC1E0B02F04EFF41EC1D0B53EC1C2BF3
:100D800002F014FE41EC1B0B53EC1A2B02F080FB1B
:100D900041EC190B02F04AFB15490860124890ED2E
:100DA000000A144880ED000A084690ED000A0E483B
:100DB00080ED000A0D4880ED008A084690ED000A9B
:100DC0007EE7FFE700BF7BE73C0100202401002015
:100DD0002801002038010020000000000000F03F42
:100DE0001401002040010020300100202C010020CF
:100DF0001C0100203401002000BFFEE710B502F006
:100E00004BF910BD7047000070B5002100230F2280
:100E1000C4781CB3174C246804F4E064C4F5E0649F
:100E2000C4F30721C1F10404E3B20A4144789C40B1
:100E3000E1B28478144021430C07210E0E4C057852
:100E40006155047804F01F050124AC4005786D114C
:100E5000AD0005F1E025C5F8004109E0047804F093
:100E60001F050124AC40054D0678761145F8264053
:100E700070BD00000CED00E000E400E080E100E067
:100E8000B0EE080A244880ED000AB1EE000A80EDB9
:100E9000010A9FED220A80ED020A9FED210A80EDF2
:100EA000080A9FED200A80ED030A9FED1E0A80EDDF
:100EB000040A9FED1C0A80ED050A9FED1A0A80EDD9
:100EC000060A9FED180A80ED070A9FED170A1748DA
:100ED00080ED000A9FED160A80ED010A9FED150ACC
:100EE00080ED020A9FED0E0A80ED080A9FED0D0AC3
:100EF00080ED030A9FED0B0A80ED040A9FED090ABD
:100F000080ED050A9FED070A80ED060A9FED050AB0
:100F100080ED070A70470000480200208FC2753C30
:100F20000AD7233C000000006F12033B6C02002034
:100F3000CDCC4C3ECDCCCC3D70B52DED0C8BB0EE78
:100F4000409AB0EE608A4C48007801287DD19FED30
:100F50004B0A39EE400ABDEEC00AF0EE408A48481E
:100F600090ED000AF8EEE80A20EE200AF8EEE80A12
:100F7000444890ED001A70EEC10A434890ED001A03
:100F800001EE200ABDEEC00A10EE104AB8EEE80AE3
:100F90003C4880ED000A00EE104AB8EEC00AB4EEFC
:100FA000C80AF1EE10FA04DDBDEEC80A10EE104AD0
:100FB00010E000EE104AB8EEC00AF1EE480AB4EEB6
:100FC000E00AF1EE10FA05D2B1EE480ABDEEC00A11
:100FD00010EE104A204602F096FC41EC1D0B9FEDEE
:100FE0002B0B53EC102B02F007FB41EC1B0BB0EE6C
:100FF000000A38EE000A10EE101A084602F000FF50
:1010000041EC1C0B53EC1B2B02F042FA41EC1A0B87
:1010100002F04AFC0546204602F075FC41EC1D0B2F
:101020009FED1A0B53EC102B02F0E6FA41EC1B0B70
:1010300018EE100A02F0E4FE41EC1C0B53EC1B2BE3
:1010400002F0F4FD41EC1A0B00E011E002F02CFC80
:10105000064600EE106AB8EEC00A002000F052FB0F
:1010600000EE105AB8EEC00A012000F04BFB00BFA2
:10107000BDEC0C8B70BD00008C00002000007A4499
:10108000EC0000208C010020F40000209A9999992E
:101090009999F93F10B52DED0E8BB0EE408AF0EE28
:1010A000608A5248007868B99FED510A514880ED36
:1010B000060A9FED4F0A80ED070A9FED4D0ABDEC31
:1010C0000E8B10BD38EE680A4A4880ED030A90ED99
:1010D000030AD0ED040AB0EE001A01EE600AD0ED6A
:1010E000050A30EE200A4448D0ED000A20EE200A1E
:1010F0004048D0ED080A80EE201A11EE104A204632
:1011000002F07EFE41EC1A0B3A4890ED030AD0ED56
:10111000040A30EE200AD0ED080A384890ED001A93
:1011200060EE810A20EE200A10EE101A084602F046
:1011300067FE41EC1E0B9FED320B53EC102B02F0BF
:1011400035FC41EC1C0B2B4890ED030AD0ED040A52
:1011500070EE600A90ED070A2B4890ED001A01EE40
:10116000200A10EE101A084602F04AFE41EC1D0B50
:1011700053EC1C2B02F08CF941EC1B0B53EC1A2B9B
:1011800002F086F941EC190B02F050F91949886117
:10119000084690ED060A80ED070A90ED040A80EDFE
:1011A000050A90ED030A80ED040A90ED060ADFEDD2
:1011B000170AB4EEE00AF1EE10FA04DB9FED130A11
:1011C00080ED060A0DE00B4890ED060ADFED100AEF
:1011D000B4EEE00AF1EE10FA03D89FED0D0A80EDAF
:1011E000060A044890ED060A69E700008C0000201A
:1011F000000000004802002000010020FC00002048
:10120000000000000000E03FF80000200000C8429D
:101210000000C8C210B50121022000F077F900F0EB
:101220000BF89FED030A034800F03CF810BD0000E6
:1012300000409C46000400401FB53120029002206F
:101240008DF80C0000208DF80E0001208DF80F00A5
:1012500003208DF80D0002A91148FFF7AFFA022212
:1012600004210F48FFF7F2FA022205210C48FFF78C
:10127000EDFA022200210A48FFF7E8FAC2200090A6
:1012800001208DF8040000208DF8060002208DF862
:1012900007008DF8050069460148FFF78FFA1FBD6A
:1012A0000004024070B52DED028B8CB00546B0EE07
:1012B000408A0026002408A800F048F90998400850
:1012C0002549B0FBF1F0441E0998400800EE100AD1
:1012D000F8EE400A601C00EE100AB8EE400A20EE5C
:1012E000081A80EE810AF7EE000A30EE600ABCEEC2
:1012F000C00A10EE106A0020ADF81C00ADF8160010
:10130000A0B2ADF81400069605A9284600F0E0FD4D
:101310006020ADF800000020ADF80C000120ADF811
:101320000200002002906946284600F0E9FC694668
:10133000284600F023FD6946284600F071FD012192
:10134000284600F090FC0121284600F080FC0CB0FB
:10135000BDEC028B70BD000080841E007047000051
:101360001CB58F20009000208DF804008DF8070038
:1013700069460248FFF722FA1CBD0000000C02403B
:101380001CB58F20009001208DF8040000208DF8FE
:10139000070002208DF8050069460248FFF70EFAA3
:1013A0001CBD0000000C024070B586B0064600204F
:1013B00007E04FF47A7103AA22F810102DF81010EC
:1013C000401C0528F5DBFFF7DBFF01228F211A48BF
:1013D000FFF76CFA0025FFF7C3FF002017490860EC
:1013E00001211648243800F032FC1FE01348006841
:1013F00085B2002413E0124830F814100E48FFF7AD
:1014000048FA58B903A830F81400A84206DD03A82A
:1014100020F8145030F8140026F81400641C052C31
:10142000E9DB01210548243800F011FCB5F57A7F8D
:10143000DCDB06B070BD0000000C0240241400404C
:1014400048010020FEB504464FF47A77002568462F
:10145000FFF7AAFF00200CE03DF81010A94201DDC3
:101460003DF810503DF81010B94201DA3DF8107007
:10147000401C0528F0DBE81B86B200200FE006EBDD
:10148000D672A5EB62023DF810309A4203DA0121D0
:1014900024F8101002E0002124F81010401C052848
:1014A000EDDB00204000A18801EB4102C2EBC1113D
:1014B00000EBC100E18801EB4102C2EBC11100EB7E
:1014C0000110218901EB4102C2EBC11100EB0110B7
:1014D0006188A2881144E28811442289114422883B
:1014E000114490FBF1F080B2FEBD000029B1064A24
:1014F00012680243044B1A6004E0034A12688243F4
:10150000014B1A60704700003038024029B1064A8A
:1015100012680243044B1A6004E0034A12688243D3
:10152000014B1A60704700004038024029B1064A5A
:1015300012680243044B1A6004E0034A12688243B3
:10154000014B1A607047000044380240F0B500219A
:1015500000220024022500260223324F3F6807F0B4
:101560000C0121B1042905D0082937D105E02E4FFF
:10157000076036E02D4F076033E02A4F3F1F3F687A
:10158000C7F38056274F3F1F3F6807F03F036EB1F8
:10159000264FB7FBF3F7DFF88CC0ACF1040CDCF896
:1015A00000C0CCF3881C07FB0CF40CE01E4FB7FB0B
:1015B000F3F7DFF870C0ACF1040CDCF800C0CCF33A
:1015C000881C07FB0CF4174F3F1F3F68C7F3014708
:1015D0007F1C7D00B4FBF5F7076002E0124F076047
:1015E00000BF00BF0F4F3F6807F0F0010909104F1F
:1015F0007A5C0768D74047600A4F3F6807F4E051BC
:10160000890A0B4F7A5C4768D7408760054F3F686F
:1016100007F46041490B064F7A5C4768D740C760C2
:10162000F0BD0000083802400024F40000127A00E7
:10163000AC00002010B500202A4908709FED2A0A4E
:101640002A4880ED000A9FED280A294880ED000A0B
:1016500047F23051274800F039FC47F23051264814
:1016600000F034FC9FED250A002000F04BF89FEDC0
:10167000240A012000F046F818E01C4890ED000A0A
:1016800040F26B111B48FEF7C5FF184880ED000AB9
:10169000174890ED000A40F26B111748FEF7BAFFA9
:1016A000134880ED000A012001F0D2FC0F4890EDB4
:1016B000000AF3EE070AB4EEE00AF1EE10FADCD30A
:1016C0000B4890ED000AFBEE070AB4EEE00AF1EEDB
:1016D00010FAD2DC0120034908704FF47A7001F04F
:1016E000B7FC10BD8C000020000000008800002026
:1016F00084000020000C004000080040000034C2BC
:101700000000204270B52DED028B0546B0EE408AF8
:101710009FED290AB4EEC08AF1EE10FA04DB9FEDCA
:10172000260AB0EE408A0AE09FED240AB4EEC08A91
:10173000F1EE10FA03D89FED210AB0EE408AB5EE23
:10174000C08AF1EE10FA01DB002406E001249FEDCF
:101750001A0A38EE000AB0EE408A65B9BCEEC80A33
:1017600010EE101A164800F0ABFBE2B2402115480B
:10177000FFF79CF81CE0012D0CD1BCEEC80A10EE5E
:10178000101A0F4800F09EFBE2B280210D48FFF7CF
:101790008DF80DE0022D0BD1BCEEC80A10EE101A28
:1017A000074800F091FBE2B202210648FFF77EF8FD
:1017B000BDEC028B70BD00000000C8420000C8C232
:1017C000000400400004024010B50022028802F428
:1017D00041520B884C8823438C882343CC88234375
:1017E0000C8923434C8923438C892343CC8923438D
:1017F0001A430280838B4FF2FF74234083830B8A4A
:10180000038210BD0021018041808180C18001815F
:1018100041818181C18107210182704770470000A9
:101820000CB50020019000903448006840F48030EE
:101830003249086000BF3148006800F40030009071
:101840000198401C0190009818B90198B0F5A04F7C
:10185000F1D12A48006800F4003010B10120009056
:1018600001E0002000900098012846D12348403034
:10187000006840F0805021494031086020480068ED
:1018800040F440401E4908601C48083000681B496D
:10189000083108600846006840F4004008600846C7
:1018A000006840F4A05008601648091F0860081F2F
:1018B000006840F08070091F086000BF0F48006892
:1018C00000F000700028F9D040F205700E49086061
:1018D0000A480830006820F0030008490831086011
:1018E0000846006840F00200086000BF0348083066
:1018F000006800F00C000828F8D10CBD0038024048
:101900000070004008544007003C02400120044998
:10191000086004480068401C0249086070470000E5
:10192000A8000020A400002010B51548006840F46D
:101930007000134908601348006840F00100114925
:10194000086000200F49083108600E4800680E4901
:1019500008400C4908600D48091D0860081F006810
:1019600020F48020091F0860002006490C3108601F
:10197000FFF756FF4FF0006001498039086010BD45
:1019800088ED00E000380240FFFFF6FE1030002432
:101990001FB501210846FFF7B9FD42F2CF00ADF8AF
:1019A000040040F2E73002900020ADF80C00ADF8E2
:1019B000060001A94FF0804000F08AFA012211468A
:1019C000900700F094F90121880700F040F91C20ED
:1019D0008DF8000001208DF801008DF802008DF8CF
:1019E00003006846FFF710FA1FBD000010B5012183
:1019F000880700F06BF930B34FF6AA7012490880DF
:101A0000A02088700120C870104800684860104805
:101A1000006888600F48008800EE100AB8EE400A9F
:101A200010EE100AC8609FED0C0A10EE100A086153
:101A300040F60D2088821621034800F0F5FF0121B1
:101A4000880700F001F910BDC60100204C000020FD
:101A500024000020540000200000000010B54FF6C4
:101A6000FE702E49088240F26B112D48FEF722FECF
:101A70002C4880ED000A00202A4991ED000AFFF76A
:101A80009DF8294880ED000A40F26B112748FEF7C7
:101A900011FE274880ED000A0120254991ED000A3A
:101AA000FFF78CF8234880ED000A4FF4BB71224801
:101AB000FEF700FE214880ED000A1B4890ED000A69
:101AC0001C48D0ED000A30EE200AF0EE000A80EE4D
:101AD000201A1B4880ED001AD0ED000A194890ED3D
:101AE000000AFFF7D7FA184880ED000AD0ED000A87
:101AF0001648008800EE100AB8EE400AFFF71CFAFC
:101B00003620002807DB00F01F0201219140104A17
:101B1000430942F8231000BF10BD00000010004030
:101B200000080040380000203C000020000C00406D
:101B3000400000204400002000040140500000202C
:101B40004C000020DC000020240000205400002075
:101B500080E200E0362000280DDB00BF00BF00F06F
:101B60001F02012191404209920002F1E022C2F8D5
:101B7000001100BF00BF00BF2448006840F0010012
:101B800022490860081D006840F00100091D086036
:101B90001E480C30006820F001001C490C31086020
:101BA000081F006840F00100091F0860184800681D
:101BB00040F01000164908601648008840F0010007
:101BC000144908800846008820F002000880084672
:101BD000008840F0040008800846008820F00800D3
:101BE00008800846008820F0800008800846808928
:101BF00040F0010088810846808A40F00100888218
:101C000042F2CF0008856320C8627047003C014063
:101C100040380240001000400EB501212020FFF79F
:101C200075FCA720ADF800004FF6FF700190002072
:101C3000ADF80800ADF802006946024800F048F926
:101C40000EBD000000140040CA430282704721B15B
:101C5000028842F00102028004E002884FF6FE731F
:101C60001A400280704731B1B0F8442042F400427B
:101C7000A0F8442005E0B0F84420C2F30E02A0F81A
:101C800044207047F0B50C4615461E460021002240
:101C900000230189028B038C4FF6F87739402143EA
:101CA0004FF6FC473A4040F201173A434FF6DD77D2
:101CB0003B404FF6FF7707EA06172F433B4301816E
:101CC00002830384F0BD0146486A704730B502467E
:101CD000002000230024158A05EA0103958905EAFE
:101CE000010413B10CB1012000E0002030BD1AB195
:101CF00083890B43838102E083898B43838170470F
:101D000070B5002400220023058C4FF6FE76354086
:101D10000584028C8388048B4FF68F752C40B51E8A
:101D20002C400D882C43751E2A408D892A434D88EE
:101D30002A43104DA84202D00F4DA84213D14FF6AE
:101D4000F7752A40CD892A434FF6FB752A408D88C6
:101D50002A434FF6FF652B404FF6FF552B400D8A67
:101D60002B434D8A2B43838004838D684563028413
:101D700070BD0000000001400004014070B5002467
:101D800000220023058C4FF6EF7635400584028C47
:101D90008388048B48F6FF752C404FF6FF452C4096
:101DA0000D884FF6FF7606EA05252C434FF6DF75C2
:101DB0002A408D8906EA05152A434D8806EA05154D
:101DC0002A43154DA84202D0144DA8421DD14FF60A
:101DD0007F752A40CD894FF6FF7606EA05152A431E
:101DE0004FF6BF752A408D8806EA05152A434FF63F
:101DF000FF352B404FF2FF752B400D8A06EA850513
:101E00002B434D8A06EA85052B43838004838D6826
:101E10008563028470BD00000000014000040140A1
:101E200070B5002400220023058C4FF6FF66354074
:101E30000584028C8388848B4FF68F752C404FF677
:101E4000FC752C400D882C434FF6FF552A408D8998
:101E50004FF6FF7606EA05252A434D8806EA052552
:101E60002A43154DA84202D0144DA8421DD14FF26D
:101E7000FF752A40CD894FF6FF7606EA05252A43ED
:101E80004FF6FF352A408D8806EA05252A434EF68F
:101E9000FF752B404DF6FF752B400D8A06EA0515A0
:101EA0002B434D8A06EA05152B43838084838D6876
:101EB000C563028470BD00000000014000040140C1
:101EC0004163704781637047C163704741627047E7
:101ED00000220288184B98420ED0184B98420BD023
:101EE000B0F1804F08D0164B984205D0154B984260
:101EF00002D0154B984204D14FF68F731A404B888D
:101F00001A43124B984207D0114B984204D04FF617
:101F1000FF431A400B891A4302804B68C3620B8847
:101F20000385054B984202D0044B984201D18B7A2D
:101F300003860123838270470000014000040140B2
:101F40000004004000080040000C00400010004069
:101F50000014004001464FF40030081AC0F38F20EF
:101F60007047000000B502461046FFF7F3FF01215D
:101F700001FA00F00249096808430149086000BD00
:101F8000303802402DE9F04304460E461546DDE99F
:101F900007892046FFF7DEFFC7B2002243E0012099
:101FA0009040304000B93CE0214830F81700012152
:101FB000914008431E4921F81700E0684FEA420C9F
:101FC000032101FA0CF18843510008FA01F108439A
:101FD000E06020684FEA420C032101FA0CF18843CB
:101FE000510005FA01F108432060012D01D0022DB6
:101FF00016D161680120904080B221EA000003FA06
:1020000002F189B208436060A0684FEA420C0321E4
:1020100001FA0CF18843510009FA01F10843A0606C
:1020200000BF501CC2B2102AB9DBBDE8F08300002B
:102030000C0200202DE9FC4705460E46174698463F
:10204000DDE90A9A0EB9BDE8FC872846FFF78AFF4A
:1020500000241AE00120A040304000B914E0E1085B
:1020600005F1200050F821006107CA0E0F219140B0
:1020700088436107C90E0AFA01F10843E20805F135
:10208000200141F8220000BF641C102CE2D33B4623
:10209000022231462846CDE90089FFF773FF00BFD1
:1020A000D1E710B5142000F0DDF8044604F0030079
:1020B00018B90321142000F012F910BD2DE9FC41DC
:1020C0000446002700210D2000F0ACF99320207079
:1020D0002020607001A823460222214600900C2097
:1020E00000F00AF906465EB9002503E0605D47404E
:1020F000681CC5B2042DF9DB605DB84200D0022631
:102100003046BDE8FC812DE9F0410746884615467A
:102110000421052000F039F880210A2000F0DFF8C2
:10212000002405E0395D092000F07CF9601CC4B290
:102130004445F7DB0321012000F074F9FF2400BFC0
:10214000052000F08FF80646601EC4B21CB106F0F0
:1021500004000028F4D0222000F084F82870212008
:1021600000F080F86870BDE8F08170B50446214643
:10217000262000F095F805461DB92046FFF79EFF82
:10218000054600F00FF8284670BD70B505460C46B0
:10219000284600F067F820EA04063146284600F099
:1021A00041F970BD0EB550208DF8040000208DF867
:1021B00005000DF10602022101A8FFF7A4FF02A805
:1021C00001AB042201A900900C2000F095F80EBD8F
:1021D00010B500F027F80121114800F03FFA00F097
:1021E00078F88D212A2000F01DF93E212B2000F0E7
:1021F00019F91E212D2000F015F900212C2000F0E6
:1022000011F97021262000F00DF94021152000F071
:1022100009F93D21112000F005F9FFF742FF10BD3B
:10222000003C00401CB501210420FFF75FF90220AB
:102230008DF8050001208DF8040000208DF80600BF
:102240008DF807004FF40070009069460448FEF7CF
:10225000B5FA4FF400700249183108801CBD000027
:102260000008024070B504464FF400700A49088027
:102270007E2000EA440040F08001084800F053FA54
:102280000021064800F04FFA05464FF4007002495D
:10229000891E0880284670BD1A080240003C004094
:1022A0007CB506460C4607210D2000F0BBF82670D1
:1022B00001A823460122214600900C2000F01CF8C2
:1022C00005461DB9BDF80400102800D00225284697
:1022D0007CBD10B50F21012000F0A4F810BD70B531
:1022E00005460C462846FFF7BDFF40EA0406314686
:1022F000284600F097F870BD2DE9FE4F0646884647
:1023000091469A46DDF830B00220029000200190FC
:1023100000900C2E06D00E2E09D112200190102014
:10232000009005E0772001903020009000E000BF91
:1023300000BF019840F08001022000F073F8802176
:102340000420FFF722FF80210A20FFF7C8FF0021A9
:10235000012000F067F8002506E018F805100920B4
:1023600000F060F8681C85B24D45F6DB314601206F
:1023700000F058F80C2E03D180210D20FFF7AFFF9D
:102380004FF4FA6500BF0420FFF76CFF0446681E97
:1023900085B235B104F0010018B90098204000283A
:1023A000F1D080210D20FFF7F0FE002D36D0062061
:1023B000FFF758FF00F01B0070BB0020029001984F
:1023C000204000F0010008B1012002900C2E25D120
:1023D0000A20FFF747FF04460C20FFF743FF00F0F9
:1023E00007072FB1601E07EBC000ABF8000002E04A
:1023F000E000ABF8000004B90124102C00DD10242B
:10240000002506E00920FFF72DFF0AF80500681CEB
:1024100085B2A542F6DB01E0022002900298BDE8F9
:10242000FE8F000070B504460D464FF40070094958
:1024300008807E2000EA4401074800F074F929462C
:10244000054800F070F94FF400700249891E0880B9
:1024500070BD00001A080240003C00401CB5044654
:102460004CB90520032100231A46CDE90010E021D4
:102470000A48FFF7DFFD012C09D1052003210023C5
:102480001A46CDE9001038210548FFF7D3FD032C8B
:1024900003D10521034800F045F91CBD00000240AE
:1024A00000040240003001401CB50446A4B90520D8
:1024B000032100231A46CDE900104FF4806116482D
:1024C000FFF7B8FD0520032100231A46CDE90010CF
:1024D0000C211248FFF7AEFD012C0AD10520032183
:1024E00000231A46CDE900104FF460410A48FFF777
:1024F000A1FD022C09D10520032100231A46CDE9B4
:1025000000100D210648FFF795FD032C03D105218E
:10251000044800F007F91CBD000402400008024016
:1025200000200240003800401CB504464CB906208B
:10253000032100231A46CDE9001038210B48FFF78C
:1025400079FD012C0AD10620032100231A46CDE98A
:1025500000104FF4E0510648FFF76CFD032C03D147
:102560000621044800F0DEF81CBD00000004024013
:1025700000080240003C00401CB504464CB9052050
:10258000032100231A46CDE9001064210B48FFF710
:1025900051FD012C0AD10520032100231A46CDE963
:1025A00000104FF4E0410548FFF744FD032C03D130
:1025B0000521034800F0B6F81CBD000000100240E1
:1025C000003401401CB5044654B905200321002302
:1025D0001A46CDE900104FF460711048FFF72AFD4C
:1025E000012C13D10520032100231A46CDE9001048
:1025F000E1020A48FFF71EFD0520032100231A46C9
:10260000CDE90010C0210648FFF714FD032C03D1CB
:102610000521044800F086F81CBD000000140240AB
:10262000001C0240005001401CB5044654B905206E
:10263000032100231A46CDE900104FF4E04105487C
:10264000FFF7F8FC032C03D10521034800F06AF8DA
:102650001CBD000000180240005401407CB5044637
:102660000D462A4884420AD100204FF4827120236B
:102670000246CDE900102946204600F075F82448AE
:1026800084420AD100204FF4827120230246CDE912
:1026900000102946204600F067F81E4884420AD1FF
:1026A00000204FF4827120230246CDE90010294614
:1026B000204600F059F8184884420AD100204FF40F
:1026C000827120230246CDE900102946204600F001
:1026D0004BF8124884420AD100204FF48271202323
:1026E0000246CDE900102946204600F03DF80C488E
:1026F00084420AD100204FF4827120230246CDE9A2
:1027000000102946204600F02FF87CBD0030014023
:1027100000380040003C00400034014000500140BF
:102720000054014070470246108800F0400008B98C
:102730000020704700BF108900F003000028FAD085
:10274000108900F080000028F5D1918100BF108928
:1027500000F003000028FAD0108900F08000002863
:10276000F5D19089C0B2E4E72DE9F04385B0044685
:102770000E4615461F46DDE90C896846FFF742F80C
:102780004D4884420BD14D48006840F480504B497D
:1027900008603046FFF762FE0020ADF804004848AC
:1027A00084420DD14548001F006840F480404349F1
:1027B000091F08603046FFF777FE0020ADF80400DF
:1027C000404884420DD13D48001F006840F400405D
:1027D0003A49091F08603046FFF7A6FE0020ADF811
:1027E0000400394884420BD13448006840F400505A
:1027F000324908603046FFF7BFFE0020ADF8040004
:10280000324884420BD12D48006840F480102B4997
:1028100008603046FFF7D6FE0020ADF804002C48D3
:1028200084420BD12548006840F400102349086019
:102830003046FFF7F9FE0020ADF80400ADF80C704B
:102840000020ADF80000ADF80E90ADF802804FF416
:102850000070ADF80A002DB90020ADF80600ADF803
:10286000080019E0012D06D10020ADF80600012076
:10287000ADF8080010E0022D06D10220ADF80600E8
:102880000020ADF8080007E0032D05D10220ADF8C7
:1028900006000120ADF80800208820F040002080CC
:1028A00069462046FEF790FF208840F040002080D7
:1028B00005B0BDE8F083000000300140443802401C
:1028C00000380040003C004000340140005001400E
:1028D0000054014000B597B001210820FEF706FE24
:1028E00001214804FEF712FE01214805FEF7FEFD16
:1028F0002020159002208DF8580000208DF85A00F5
:1029000001208DF85B0002208DF8590015A941487F
:10291000FDF754FF4020159002208DF8580015A9AE
:102920003C48FDF74BFF072205213A48FDF78EFF93
:10293000072206213748FDF789FF4FF4E130119057
:102940000020ADF84800ADF84A00ADF84C00ADF8F5
:1029500050000C20ADF84E0011A92F4800F09CF853
:1029600001212D4800F076F8012240212A4800F08C
:102970007DF801228021284800F078F84FF00060AF
:1029800002902548001D03902448049000200590E3
:1029900001200690002007904FF4806008900020EE
:1029A00009900A900B904FF400300C9000200D908D
:1029B00001200E9000200F90109002A91848FDF7FA
:1029C0009BFD01211648FDF76FFD1648049040203D
:1029D00005901620069002A911481830FDF78CFDCD
:1029E00001210F481830FDF75FFD10208DF804001D
:1029F00000208DF805008DF8060001208DF80700F5
:102A000001A8FEF701FA012210210548FDF757FD44
:102A100017B000BD000C024000440040BC00002084
:102A200088600240F601002070B505460E4600247D
:102A30000BE0295D064800F099F800BF80210448AA
:102A400000F01DF80028F9D0641CB442F1DB70BD21
:102A50000044004021B1828942F40052828104E0A6
:102A600082894DF6FF731A40828170471AB1838ABA
:102A70000B43838202E0838A8B4383827047024642
:102A80000020B1F5007F00D100BF13880B400BB1CF
:102A9000012000E0002070472DE9FF4705460E4663
:102AA0000024A14600BFA046B08900B100BF2C8A17
:102AB00024F44054F08804432C82AC8941F20C6029
:102AC0008443B08831890843718908430443AC8149
:102AD000AC8A24F44074B0890443AC826846FEF7A3
:102AE00035FD2048854202D01F48854202D1DDF8DD
:102AF0000C9001E0DDF80890A88900F4004040B196
:102B000009EBC90000EB091031684900B0FBF1F78F
:102B100007E009EBC90000EB091031688900B0FB40
:102B2000F1F76420B7FBF0F004012009642101FBF8
:102B30001078A88900F4004040B1322000EBC800B2
:102B4000B0FBF1F000F00700044308E0322000EB96
:102B500008106421B0FBF1F000F00F0004432C8159
:102B6000BDE8FF870010014000140140C1F30802D6
:102B70008280704700BFFEE703B4019841000098CF
:102B800050EAC12018BF04204A0D18BF40F00100D0
:102B900040F2FF72B2EB515F08BF40F00200012823
:102BA00008BF052002B0704770B52DED020B2DED6A
:102BB0000A8B82B00D98C40F20F00045AE488542C4
:102BC00048D3AE48854219D30C99C5F31300084386
:102BD00009D09DED0C0B02B0BDEC0A8B02B0BDE834
:102BE000704000F009BA002C14BF9FEDA50B9DEDBD
:102BF0000C0B02B0BDEC0A8B02B070BD9FEDA20BB6
:102C000053EC102B9DED0C0B51EC100B00F0CCFF96
:102C10000AD20220FDF750FB02B0BDEC0A8B02B0D5
:102C2000BDE8704000F0F4B99FED990B53EC102B08
:102C30009DED0C0B51EC100B00F07CFE0AD2022033
:102C4000FDF73AFB02B0BDEC0A8B02B0BDE8704064
:102C500000F0EEB990489FED92BBA8425CD292483A
:102C6000854219D29148784400EBC40090ED000BE6
:102C700053EC102B9DED0C0B51EC100B00F0D6FF1C
:102C800041EC1A0B8A48784400EBC40090ED009B9D
:102C9000C4F10100041B36E09FED870B53EC102BB1
:102CA0009DED0C0B51EC100B00F080FE41EC100B75
:102CB0008348784400EBC40090ED001B51EC100BEE
:102CC00053EC112B00F0E4FB00F0EEFD044600F0A5
:102CD0001AFE41EC180B9FED7C0B53EC102B00F00F
:102CE00065FE9DED0C1B53EC112B00F093FF41ECA6
:102CF0001A0B9FED770B51EC180B53EC102B00F0D7
:102D000055FE41EC190B51EC1A0B53EC192B00F04A
:102D10008DFFCDE90C011BE06F48854217D29FED76
:102D2000700B53EC102B9DED0C0B51EC100B00F0C5
:102D3000AFFB53EC1B2B00F037FF08D29DED0C0BC3
:102D400053EC1B2B51EC100B00F0A2FB6EE00024A7
:102D50009DED0C0B53EC102B51EC100B00F026FEEC
:102D600041EC180B60480521B0EE480AF0EE680A05
:102D7000784400F0C5F853EC182B51EC100B00F020
:102D800015FE9DED0C1B53EC112B00F043FF41ECA5
:102D9000180B9FED570B5CB353EC182B51EC100B39
:102DA00000F044FF9DED0C0B41EC1C0B53EC182B79
:102DB00051EC100B00F0FAFD53EC1C2B00F01CFC46
:102DC00053EC192B00F026FF53EC1A2B00F02EFFCA
:102DD00053EC1B2B00F01EFFCDE900016FF47F7058
:102DE000844226DB01EB045001909DED000B00E7CF
:102DF00053EC102B51EC180B00F018FF9DED0C0B51
:102E000041EC190B53EC182B51EC100B00F0CEFDDC
:102E100053EC192B00F0F0FB9DED0C1B53EC112B28
:102E200000F004FF53EC1B2B00F0F4FE41EC100B00
:102E3000DFE608464FF07A5101EB04519FED2E0B6F
:102E4000084453EC102B01909DED000B51EC100B3E
:102E500000F0ACFD0D4645EC100B044651EC100B98
:102E6000FFF78AFE042808BF00F0E2F845EC104B9B
:102E7000BFE6000000000000422E86400000F07F08
:102E80000000000000000000EF39FAFE422E8640EC
:102E900051302DD5104987C0422ED63F000000008A
:102EA000000000000000F03FB2A2F03F9E120000C0
:102EB0008E12000000000000FE822B654715F73FD0
:102EC00042120000000000000000E0FE422EE63F3B
:102ED000763C7935EF39EA3D0000303E00000000D5
:102EE0009C7500883CE4377EB411000000000000AF
:102EF0000000000000000040000000000000700121
:102F000070B504462DED028B4D1E00EBC500B0EEF2
:102F1000408AF0EE608A90ED000B35F0060017D085
:102F200053EC182B51EC100B00F040FD41EC100B52
:102F30006D1E04EBC50090ED001B51EC100B53EC23
:102F4000112B00F0A5FA41EC100B35F00600E7D18B
:102F5000022D36D0042D1CD0062D1CBFBDEC028BDB
:102F600070BD53EC182B51EC100B00F01FFD94EDCD
:102F70000A1B53EC112B00F08BFA53EC182B00F0CA
:102F800015FD94ED081B53EC112B00F081FA41EC78
:102F9000100B53EC182B51EC100B00F007FD94EDC7
:102FA000061B53EC112B00F073FA53EC182B00F0B6
:102FB000FDFC94ED040B53EC102B00F069FA41EC8E
:102FC000100B53EC182B51EC100B00F0EFFC94EDB0
:102FD000021B53EC112B00F05BFA53EC182B00F0A2
:102FE000E5FC94ED001B53EC112B00F051FABDEC05
:102FF000028B41EC100B70BD10B553EC102B51EC53
:10300000100B00F045FA41EC100B10BD0000000061
:103010009FED050B10B553EC102B51EC100B00F08D
:10302000C5FC41EC100B10BD00000000000000705A
:103030009FED050B10B553EC102B51EC100B00F06D
:10304000B5FC41EC100B10BD0000000000000010AA
:1030500010B504460BE000210648FEF737FF00BF1D
:103060000448FEF730FEB0F57A7FF9D3641E002CD9
:10307000F1D110BD0018004010B5044600210548EC
:10308000FEF724FF00BF0348FEF71DFEA042FAD35F
:1030900010BD0000001800401CB501210220FEF701
:1030A00025FA01208DF804008DF806004FF44060E9
:1030B000009000208DF8070003208DF80500694678
:1030C0000648FDF77BFB4FF480610448FDF7ECFBFD
:1030D0004FF400610148FDF7E7FB1CBD000402400E
:1030E00070B505464FF480612448FDF7DDFB0320F1
:1030F000FFF7C2FF00261EE06006040E4FF40061D9
:103100001E48FDF7D1FB0320FFF7B6FF4FF48061A7
:103110001A48FDF7BEFB08B144F001040220FFF796
:10312000ABFF4FF400611548FDF7BCFB0520FFF72E
:10313000A3FF701CC6B2082EDEDB2DB14FF48061F8
:103140000E48FDF7AFFB04E04FF480610B48FDF73C
:10315000ABFB0320FFF790FF4FF400610748FDF73A
:10316000A3FB0520FFF788FF4FF400610348FDF73C
:1031700099FB0520FFF780FF204670BD0004024048
:1031800010B54FF400610F48FDF78EFB0320FFF7E9
:1031900073FF4FF480610B48FDF786FB0320FFF7B8
:1031A0006BFF4FF480610748FDF77CFB0320FFF7BE
:1031B00063FF4FF400610348FDF774FB0320FFF742
:1031C0005BFF10BD0004024010B54FF480610B4856
:1031D000FDF768FB0320FFF74FFF4FF4006107483E
:1031E000FDF762FB0320FFF747FF4FF480610348C0
:1031F000FDF75AFB0320FFF73FFF10BD000402401C
:1032000070B50446002624E004F0800028B14FF495
:1032100080612448FDF748FB04E04FF480612148B9
:10322000FDF740FB0320FFF727FF4FF400611D4827
:10323000FDF73AFB0520FFF71FFF4FF40061194827
:10324000FDF730FB0220FFF717FF6006040E701C2D
:10325000C6B2082ED8DB4FF480611248FDF724FB7C
:103260000320FFF709FF4FF400610E48FDF71CFB38
:103270000320FFF701FF4FF480610A48FDF709FBC7
:1032800008B1002500E001250220FFF7F5FE4FF40C
:1032900000610448FDF706FB0520FFF7EDFE284618
:1032A00070BD0000000402401CB54D4800684FF49A
:1032B0007A72B0FBF2F1481EB0F1807F00D31BE0C0
:1032C000481E4FF0E022506150170F22002804DB07
:1032D00013071C0E434B1C5406E013071D0E424BF4
:1032E00000F00F04241F1D5500BF00204FF0E02206
:1032F00090610720106100BF01210846FEF7F6F833
:1033000001210220FEF7F2F801210420FEF7EEF879
:1033100001210820FEF7EAF8FDF77CFFFDF71AF916
:10332000FDF7AEFDFEF778FCFFF7D4FAFEF712FCCE
:10333000FEF72EFBFEF74CFFFDF738FBFDF712FB07
:103340000120FDF7FFFA29A0FDF78BFBFDF784FBB9
:103350002AA0FDF786FB00208DF8040001208DF8DF
:1033600006004FF44040009001208DF80700022035
:103370008DF8050069462548FDF720FA2EE024481F
:10338000006801281BD12348FEF75CF82249088019
:103390002248FEF7EAFE10B9FEF74CF902E00020E1
:1033A0001F4908701F480088401C1E4908801E489D
:1033B0000088401C1C4908800020154908601A48F4
:1033C00000880A2802D10020174908801548008883
:1033D000B0F57A7F02D1002012490880CFE70000C3
:1033E0009000002000E400E018ED00E053544D335D
:1033F0003246343037564754360000004932433A9B
:1034000020504131202D2050413200000004024064
:10341000A8000020BC010020540000203000002043
:1034200035000020040000200200002021F00042AE
:10343000A2F16052B2F5801F01F0004328BFD2F123
:103440007F6C0BD95FEA001C43EAC20242EB50706A
:1034500018BF704728BF20F001007047B2F5801FE9
:10346000BCBF184670474FEA410C1CF5001F02D242
:10347000084600F03BBD70B500F042FB000000893B
:10348000FFF7F6BF4FF00040A0F580007047000046
:1034900010B591EA030F48BF83F0004300F1CE83DB
:1034A000841A71EB030C05D2121943EB0C03001BB9
:1034B00061EB0C01DFF824E14FEA1154A4EB135C3B
:1034C0001EEA430F18BF9EEA445F73D023EA0E033F
:1034D000DCF1200E21EA045143F4801332D322FAA6
:1034E0000CFE10EB0E0023FA0CFE41EB0E01CCF1AA
:1034F000200E03FA0EFE10EB0E0051F10001B1F5A3
:10350000801FCCF1200E32D201EB045112FA0EF2E0
:10351000BDE8104058BF7047401C38BF5FEA420208
:1035200018BF7047002814BF20F0010041F10001CE
:103530004FEA410313F5001F38BF7047A1F1C041A6
:1035400000F02CBB012A43EB0302ACF1200CDCF1B0
:103550001F0E32BF4FF0000E23FA0CF310EB0300E6
:1035600041EB0451B4EB115FD0D0A1EB045101F554
:10357000801149085FEA300001EB04510ED350F18D
:10358000000038BF12FA0EFE08D1BDE81040C9E7AE
:10359000401C38BF5FEA4202CAD1C3E7BDE8104011
:1035A0004FEA410313F5001F38BF7047A1F1C04136
:1035B00000F0F4BA9EEA445F08D011EA5E0FBDE85D
:1035C000104004BF01F0004100207047BDE81040EA
:1035D00070B500F095FA00BF64FBBE3E0000E0FF4E
:1035E000491058BFC1F140415B1058BFC3F140437F
:1035F0008B42EFF3008070472DE9C04130B4DFF813
:10360000A0C23CEA111418BF3CEA131400F0EC808D
:1036100081EA03051CEA111444EAD57418BF1CEAB8
:10362000131500F0C780A4EB05044FF0004545EAF0
:10363000C12145EAC32341EA505143EA525304F100
:103640007F74994204F500344FEAC0204FEAC22249
:1036500008BF904200F09C804FEA13650FF24016BD
:10366000765D4FEA134506FB05F7C7F1807706FB49
:1036700007F74FEAD737A7FB03687642C8F58038CB
:10368000A7FB06CE38BFA8F1010807FB08E64FF0FC
:10369000000EA6FB028CE6FB03CEDCF1000CCEF1A3
:1036A000004E38BFAEF1010EA6FB0C584FF00007DC
:1036B0004FF00005E6FB0E87A1FB08C6A0FB07CE76
:1036C00016EB0E0645F10005E1FB076515F1E04E2E
:1036D0007EBFA4F580345FEA46066D4116F180078F
:1036E00045F100054FEA17274FEA066647EA0567E6
:1036F000A6F1DE46B6F1805F4FEA15251FD93846A0
:1037000024F0010C05EBC471BCF1FE6F01EB0C1150
:1037100002D8F0BCBDE8008124425CBF01F5801EE8
:103720009EEAC47F02D4F0BCBDE80081244238D4B4
:10373000F0BCA1F1C041BDE8004100F02FBA4FEA52
:10374000D22242EA43524FEAD323A7FB02864FEA32
:10375000D02040EA415007FB03661EEA0E0F4FEAF5
:10376000D12105FB026658BFA6EB0056B6EB00560A
:103770004FEA520E4EEAC37E18EB0E0E56EB530E76
:10378000BDD518EB02085E417F1C55F10005B6E778
:103790004FF480154FF000074FF000064FF000087F
:1037A000ADE7F0BC4FF0000001F1C04101F0004175
:1037B000BDE8008111EA0C1F0CEA131500D00CE0E3
:1037C00013EA0C1F00F025804FF00000F0BC81EAE6
:1037D000030101F00041BDE80081F0BCBDE80041FB
:1037E00081EA030100F0DAB9F0BCBDE8004170B530
:1037F00000F086F9097EFC3E00F007B881EA03017B
:103800004FF0000001F00041704781EA030100F031
:10381000C5B9F0BCBDE800414FF000002149704738
:10382000FFFDFBF9F7F5F4F2F0EEEDEBE9E8E6E485
:10383000E3E1E0DEDDDBDAD8D7D5D4D3D1D0CFCD0C
:10384000CCCBCAC8C7C6C5C4C2C1C0BFBEBDBCBB45
:10385000BAB9B8B7B6B5B4B3B2B1B0AFAEADACAB40
:10386000AAA9A8A8A7A6A5A4A3A3A2A1A09F9F9E1A
:103870009D9C9C9B9A9999989797969595949393CC
:10388000929191908F8F8E8E8D8C8C8B8B8A898963
:1038900088888787868585848483838282818180E6
:1038A0000000FF070000F87F4FEA41034FEA53533F
:1038B000A3F58063D3F11E03C8BFD3F1210C0CDD47
:1038C0004FF0004242EAC12242EA505232FA03FC6F
:1038D0008CEAE17CACEBE1707047102BC4BF002098
:1038E000704703F5787CBCF1FF3F04D06FF00042D5
:1038F00082EA2100704770B500F002F949922480F5
:1039000000207047F2E710F0004248BF4042B0FA92
:1039100080F310FA03F10AD0C3F11D0303F58063AD
:103920004FEA415002EB035202EBD12170474FF0B6
:103930000000704751EA030C17D41CF5801F58BFD4
:10394000BCF5801F00F10680994218BF704708BF80
:103950009042704707D711F5801F58BF13F5801F9D
:1039600019D499427047894270471CF5801F08D5C9
:10397000BCF5801FF7D58B4218BF704708BF824245
:1039800070474FF4001C1CEB410F38BF1CEB430F7A
:1039900001D28B42704770B500F0B2F89224490012
:1039A0004FF000514FF08053FFF71ABEDFF848C1C7
:1039B00070B51CEA111E1EBF1CEA13159EEA0C0FFF
:1039C00095EA0C0F00F06F8081EA030423EA4C13A0
:1039D0004EEAD47E21EA4C1141F4801143F4801365
:1039E000AE44A1FB024CA0FB0365AEF17F7E36190D
:1039F00055EB0C05A1FB034C4CF10003A0FB021C92
:103A000016EB0C06654153F10003094218BF46F05E
:103A1000010613F4007F0BD14FEA03314FEA053062
:103A2000340341EA155140EA16506FF003020AE0F0
:103A30004FEAC3214FEAC520F40241EA555140EA5A
:103A400056506FF0020202EB2E4201EB025585EA5E
:103A5000CE710AD05FEA440C18BF24F0004450F144
:103A6000000041F1000120EAD47040F2FE7C624582
:103A700000D270BDA84214BF4FF080444FF04044C4
:103A8000002E08BF0024BEF1806FA8BFA1F1C04185
:103A9000BDE8704080F282804FF0000001F1C0412B
:103AA00001F0004170479EEA0C0F0CEA131518BF95
:103AB00095EA0C0F06D04FF0000081EA030E0EF0DD
:103AC000004170BD00F01CF88900013E00F007B80D
:103AD00000F009B84FEA430C5FEA5C5C08D081EA69
:103AE000030100F05BB84FEA410C5FEA5C5CF6D181
:103AF0004FF00000014970470000FF070000F87F09
:103B00000EF1020E2EF0030E5EF8046B364205D461
:103B1000012A43EB030515F5001F12D8012841EBDC
:103B2000010C1CF5001F0CD80ED14FEAD17C15F505
:103B3000001F0CEB4C0C0CF1020C08BF4CEBD37CBF
:103B400004E04FF0080C01E04FEAD37C0CEB4C058D
:103B500026FA05F606F00706B6F1040C06D20EEBBF
:103B6000860CBDE870404CF0010C6047DFE80CF0BB
:103B7000090B02024FF000414FF00000A1F50021B7
:103B800070BD19461046012851EB010418BFD4F549
:103B9000001484BF002001F0004170BD0808A0F5AA
:103BA00000114FEA3101704753EA010C17D41CF59C
:103BB000801F58BFBCF5801F00F106808B4218BFE4
:103BC000704708BF8242704707D713F5801F58BF60
:103BD00011F5801F19D48B4270479B4270471CF52A
:103BE000801F08D5BCF5801FF7D5994218BF7047D4
:103BF00008BF904270474FF4001C1CEB430F38BFC6
:103C00001CEB410F01D2994270470FB40CBC03BCAE
:103C1000FFF7C1BE91EA030F10B581F000413FF5F7
:103C20003FAC83F0004300F009B8000010B591EA02
:103C3000030F48BF83F000433FF532AC841A71EBA9
:103C4000030C07D212198CF0004C43EB0C03001B41
:103C500061EB0C01DFF8A4E14FEA1154A4EB135C13
:103C60001EEA430F18BF9EEA445F00F0B08023EACB
:103C70006E03524221EA0451C3EB6E0338BF5B1E50
:103C8000DCF1200E25D322FA0CFE10EB0E0043FAD5
:103C90000CFE41EB0E01CCF1200E03FA0EFE10EBF0
:103CA0000E0051F10001CCF1200E29D412FA0EF2CF
:103CB00001EB0451BDE8104058BF7047401C1CBFC9
:103CC000B2F1004F704700280CBF491C20F00100E2
:103CD000704712EB020E43EB030218BF4FF0010EC8
:103CE0004EEA4202ACF1200CDCF11E0E54D943FA2C
:103CF0000CFE10EB0E0051F1FF31CCF11E0ED5D5AC
:103D00000EF1010E12FA0EFE404141EB010101EBF2
:103D1000445C5FEA5C5C10D910EBDE7001EB04518F
:103D200038BFBEF1004FBDE8104018BF70470028F3
:103D30000CBF491C20F00100704730D24FEAD42C50
:103D400011F5001124F400641BD0B1FA81F20B3A92
:103D5000A41AA41ED2F12003914030FA03F31943B0
:103D6000904001EBCC71002C01EB0451BDE81040F8
:103D7000A8BF704701F1C0414FF0000001F00041C1
:103D80007047B0FA80F310FA03F100D110BDE41AC5
:103D9000173C4805C90AE4E701EB045110BD49107E
:103DA00001EB0451BDE810404FEA300002E04FF053
:103DB000000170474A0008BF0042F8D0B2F5001F6A
:103DC00028BF704701F000414FF0000070479EEAA5
:103DD000445F07D011EA5E0FBDE8104004BF002128
:103DE00000207047BDE8104070B5FFF789FE00BFA6
:103DF00040DFF63E83F00041104670470000E0FFD0
:103E000043004FEAD30C4FEA3C0C43401FBF40072E
:103E10000CF1605113F0FE4F70471CF0006F03D19E
:103E200000200CF0004170470CF0004343EA507052
:103E300010B540EACC0000F00EF800BF0000009280
:103E40004FEA0001FFF7AABE4FF000414FF000001B
:103E5000A1F5002170470EF1020E2EF0030E5EF860
:103E6000044B244204D44FEA4102B2F17F4F11D8EF
:103E70004FEA4003B3F17F4F0CD80ED14FEAD07C0C
:103E8000B2F17F4F0CEB4C0C0CF1020C08BF4CEB69
:103E9000D17C04E04FF0080C01E04FEAD17C0CEB40
:103EA0004C0324FA03F404F00704B4F1040C06D222
:103EB0000EEB840CBDE810404CF0010C6047DFE8CD
:103EC0000CF0070802024FF00040A0F5800010BD82
:103ED0000846420018BFD2F1807288BF00F000404F
:103EE00010BD4FF04070E1EE100A7047FF2141EA2B
:103EF000D050C00570470000000000000000E03F07
:103F0000000000000000E0BF0000E0FE422EE63F9F
:103F10000000E0FE422EE6BF763C7935EF39EA3DFF
:103F2000763C7935EF39EABD3E5555555555C53F77
:103F300093BDBE166CC166BF2CDE25AF6A56113F1D
:103F4000F16BD2C541BDBBBED0A4BE726937663E1F
:103F5000703F000800000020B0010000C40100080C
:103F6000CC3F0008B00100204007000020020008FC
:103F700001166348420310A04006153802030405E9
:103F800003122041157A441103126B0226033A01F1
:103F9000337B030A10196CBD06070809241914099C
:103FA000121801441AFF010215640F1C803E0AD743
:103FB000233CBC1202120412081280024430000A90
:0C3FC000103F6F12033ACDCC4C3D0000C6
:040000050800026984
:00000001FF
