:020000040800F2
:100000009807002055020008DD190008D5190008DE
:10001000D91900088B1600086121000800000000B3
:10002000000000000000000000000000851B000828
:10003000FD18000800000000591A0008751C00088F
:100040006F0200086F0200086F0200086F020008CC
:100050006F0200086F0200086F0200086F020008BC
:100060006F0200086F0200086F0200086F020008AC
:100070006F0200086F0200086F0200086F0200089C
:10008000C11600086F0200086F0200086F02000826
:100090006F0200086F0200086F0200086F0200087C
:1000A0006F0200086F0200086F0200086F0200086C
:1000B0006F0200086F0200086F0200086F0200085C
:1000C0006F0200086F0200086F0200086F0200084C
:1000D0006F0200086F0200086F0200086F0200083C
:1000E0006F0200086F0200086F0200086F0200082C
:1000F0006F0200086F0200086F0200086F0200081C
:100100006F0200086F0200086F0200086F0200080B
:100110006F0200086F020008F91C0008191D000892
:100120006F0200086F0200086F0200086F020008EB
:100130006F0200086F0200086F0200086F020008DB
:100140006F0200086F0200086F0200086F020008CB
:100150006F0200086F0200086F0200086F020008BB
:100160006F0200086F0200086F0200086F020008AB
:100170006F0200086F0200086F0200086F0200089B
:100180006F0200086F02000800F002F800F052F859
:100190000AA090E8000C82448344AAF10107DA45E2
:1001A00001D100F047F8AFF2090EBAE80F0013F0E2
:1001B000010F18BFFB1A43F001031847C4230000C6
:1001C000E4230000103A24BF78C878C1FAD8520757
:1001D00024BF30C830C144BF04680C6070470000C1
:1001E0000023002400250026103A28BF78C1FBD840
:1001F000520728BF30C148BF0B607047662902F024
:100200005581652902F05281672902F04F816129E9
:1002100002F04E81002070471FB502F042F900F055
:10022000F7FC04000020002102F0AEF8E0601FBDE2
:1002300010B510BD00F0ECFD1146FFF7EDFF02F028
:1002400015F800F00AFE03B4FFF7F2FF03BC00F05C
:100250004DFE00000948804709480047FEE7FEE7D9
:10026000FEE7FEE7FEE7FEE7FEE7FEE7FEE7FEE766
:1002700004480549054A064B70470000911C0008D8
:1002800089010008980100209807002098030020A9
:10029000980300200FB47CB50C0009AA009001D08F
:1002A0002044401E084B7B4469460190089800F0AA
:1002B0008EFC05461CB10020694600F09BFC2846D8
:1002C0007CBC5DF814FB00005509000070B50446C5
:1002D00085690068C10601D5302600E02026C007E8
:1002E00007D070BDD4E9012130469047206A401CF8
:1002F00020626D1EF6D570BD70B504468569007824
:10030000C00707D170BDD4E9012120209047206AA1
:10031000401C20626D1EF6D570BD00002DE9F05F17
:10032000894604464FF0000ADFF874B1FB44C0F878
:1003300020A02046E1688847002874D0252806D0F0
:10034000D4E901219047206A401C2062F1E7002691
:100350005F462046E16888472028054607DB312DA7
:1003600005D2781910F8200C08B10643F1E7B00760
:1003700001D526F00406C4F81CA00027C4F818A074
:100380002A2D09D0284601F005FF38B304EB870871
:10039000303DC8F8185019E059F8041B204604EB0A
:1003A00087029161E1688847012F054618D1E0690D
:1003B000002820DA26F020061DE0D8F8180000EB0F
:1003C000800005EB40003038C8F818002046E1688E
:1003D0008847054601F0DEFE0028EED1012F0AD045
:1003E0002E2D08D12046E16888477F1C0546022F44
:1003F00046F02006C4DBA069002803DA404246F03C
:100400000106A061F00701D026F010066C2D0BD07C
:10041000682D09D04C2D39D06A2D35D0742D35D0AA
:100420007A2D33D016E038E0E1682F462046884721
:10043000B842054609D16C2F26D04FF48060E168A0
:10044000064320468847054604E06C2F1AD04FF437
:10045000807006430DB3A5F14100192802D820355C
:1004600046F400664A462946204626604E46FFF777
:10047000C5FE80B101280BD0F61D26F0070000F163
:10048000080956E74020E4E78020D8E70020D6E7B7
:1004900006F104094DE7284652E7206ABDE8F09FBF
:1004A0008421000070477047704770472DE9FF4F67
:1004B0000C461E464FF0FF378BB0D2E90001DDF845
:1004C00060800A908A46C1F30A5505B93D4600216D
:1004D00008464FF00000BAF1000F00F4400005DAC2
:1004E00000EB80004FF4400101EA50004FEA9059C0
:1004F000B9F1010F00DDB9460A9850EA4A000ED062
:1005000044F61050A5F2FF3545432F14B8F1000F03
:100510001ED07542291E1EDDC9F100021CE0B8F193
:10052000010F4FF0000001D0302103E0F24305E05D
:100530002154401CB042FBDB3046002200212154F4
:100540000B99C1F80880C1E900200FB0BDE8F08F19
:10055000BD1B6D1CDEE74A4600DA694206A800F0C2
:10056000E1FB06AB93E8070003AB83E807005046C6
:100570000A9900F0C2FC8DE80700A0F500501F3872
:1005800000900398002D0ADD42F21F014A460844FC
:10059000002303A90390684600F02BFF09E0A0F5B3
:1005A00000504A461F38002303A90390684600F014
:1005B00035FF8DE807000004000C03D04FF0FF303A
:1005C000410800E01046B8F1000F03D0002200926D
:1005D00015461EE0751E05D400F01EFB3032625534
:1005E0006D1EF9D5B3460122084302D000227F1CBC
:1005F00004E02078302801D100227F1E002A0997CC
:1006000084D01DE0112D07DA00F006FB3032625570
:100610006D1C50EA0102F5D1084302D00098C8B120
:100620000EE00021681E05E0235C625C63542254E6
:10063000401E491C8142F7DBAB46A81B401E0990B7
:10064000002004F80B000B98099AC0F80880C0E954
:10065000002B7AE711264FF0000857E72DE9F04FFD
:1006600088460446D21D22F0070191B0D1E900016D
:10067000CDE90A0101F076FD02460B98C00F01D0CA
:100680002D2007E02068810701D52B2002E02021E2
:1006900001EAC000032A099001D0072A05DB0346BE
:1006A0004146204600F0FEFA0BE12078800601D595
:1006B000E06900E00620B8F1650F814606D0B8F188
:1006C000660F18D0B8F1670F70D131E00020B9F192
:1006D000110F009001DB112301E009F101030AAAC7
:1006E00001A90CA8FFF7E2FEDDE90C70002609F174
:1006F0000105834647E001204B4600904FF000473C
:100700000AAA01A90CA8FFF7D1FEDDE90DB00C99EA
:100710005D46002610B909F101000D18B9EB05007E
:1007200003D4C0F1FF3609F10105A5EB09002BE068
:10073000B9F1010F01DA4FF001090020B9F1110FF1
:100740000090484601DD112300E003460AAA01A9F2
:100750000CA8FFF7ABFEDDE90C704D460026834682
:10076000207800070AD4AB4500DA5D4601A8012DC8
:1007700004DD411911F8011C302907D04F4502DA78
:1007800017F1040F04DA012082460FE06D1EEEE738
:10079000002F02DCED1B3E4403E0781CA84200DD84
:1007A0007D1CB81B00F1010A4FF0004720780007BC
:1007B00003D4AA4501DB4FF0FF3A0021B7F1004F07
:1007C0000DF143088DF8431024D002202B23002F75
:1007D00001DA7F422D230A21021EA0F1010000DC74
:1007E0005FB197FBF1FC97FBF1F201FB1C7C174614
:1007F0000CF1300C08F801CDEEE7A8F10100037010
:100800002188090501D5452100E06521A0F10108F5
:1008100000F8011C09980FA9A1EB0807FF1D00B102
:100820000120411901EBEA70A1693844081A401E01
:10083000A0612078C00602D42046FFF747FD099842
:1008400028B1D4E901219047206A401C2062207819
:10085000C00622D52046FFF739FD1EE0002E04DB3E
:10086000B34502DD01A8805D00E03020D4E901211C
:100870009047206A401C2062761CAAF101005FEAC2
:10088000000A0AD100F0C4F9C0680168405CD4E9EC
:1008900001219047206A401C2062281EA5F1010515
:1008A000DCDC07E0D4E9012118F8010B9047206A4D
:1008B000401C2062381EA7F10107F3DC2046FFF739
:1008C0001BFD032011B041E62DE9F04F04460D4613
:1008D000D21D22F0070089B0D0E90097484639467A
:1008E00001F040FC0246F80F01D02D2307E02068FC
:1008F000810701D52B2302E0202101EAC0038DF8F6
:1009000020300BB1012000E00020032A824601D0F4
:10091000072A04DB2946204600F0C4F93FE120788D
:10092000800601D40D2500E0E569C7F30A560D2DB8
:1009300049DA00214FEA175B08464FF00000002F0C
:1009400000F4400007DA00EB80004FF4400100EBB8
:10095000D07001EA60008115012901DD4FF0FF31FF
:1009600000224FEA850CBCF1180F06D31346ACF1F8
:1009700018004FF08052C24003E04FF4801323FA76
:100980000CF30CF10C0CBCF1200F04D3ACF1200CD7
:1009900009FA0CF001E007FA0CF000294FF00048CA
:1009A00001DD18B90FE00ED140450CD319EB020957
:1009B0005F4121B9404502D19F4329EA0209BBEBBF
:1009C000175F00D0761C2088000502D57B4878444C
:1009D00002E07A487844193808AA302302F80A302D
:1009E000037C0AF10101002E0AF1020A53546A46FF
:1009F00002DC4FF0300101E04FF031014FF001080F
:100A00008DF8001002D0A6F2FF3603E059EA470144
:100A100000D06B4E002D02DC2178090704D54FF081
:100A200002082E218DF80110C44600210BE0C7F307
:100A300003433F01C35C491C6D1E02F808300529C1
:100A400008F1010801DA002DF1DC00210CE000EBD7
:100A50001973491C1B786D1E082902F808304FEAEB
:100A6000091908F1010801DA002DF0DC21688B0674
:100A700002D516E0A8F10108E04505DD02EB080308
:100A800013F8013C302BF5D0B8F1000F09DD02EB73
:100A9000080313F8013C2E2B03D1090701D4A8F158
:100AA0000108002D05DD3E2102F808106D1E08F139
:100AB0000108407C002E02F8080008F1010804DA61
:100AC0002D20764202F8080002E02B2002F80800F0
:100AD0000A214FF47A70864208F101080BDB96FB7D
:100AE000F0F3303302F8083096FBF0F308F1010818
:100AF00000FB136601E0642E0CDB642096FBF0F330
:100B0000303302F8083096FBF0F308F1010800FBDF
:100B1000136601E00A2E06DB96FBF1F0303002F896
:100B2000080008F1010896FBF1F001FB106030307D
:100B300002F80800A16908F1010808EB050202EBC0
:100B40000A00081AA0612078C00602D42046FFF7E8
:100B5000BDFB216A08AE01EB0A00206204E0D4E983
:100B6000012116F8010B9047BAF1010AF7D220785B
:100B7000C00602D52046FFF7A9FB6E4609E016F82D
:100B8000010B3E280FD0D4E901219047206A401C78
:100B90002062B8F10108F2D22046FFF7ADFB09B0A0
:100BA0000320BDE8F08F206A2844206203E0D4E9E6
:100BB0000121302090476D1EEBD3F8E7061B0000A3
:100BC00002FCFFFF01694A1C02610878704700B50A
:100BD0008FB0CDE901310021059105497944CDE976
:100BE000031011466846FFF799FB0FB000BD0000E7
:100BF000E5FFFFFF0A6802F8010B0A607047D1E9C0
:100C000000239A4202D2531C0B6010707047000000
:100C1000004870475401002030B5B0F10A024FEA95
:100C2000900E71F100034EEA817EB0EB0E0061EB95
:100C300091014FEA101E4EEA017E10EB0E0041EBCF
:100C400011114FEA102E4EEA016E10EB0E0041EB2F
:100C500011214FEA104E4EEA014E10EB0E0041EB0F
:100C60001141401841F100014FEAD00040EA4170C3
:100C70004FEAD10110EB80054FEA810444EA9074F9
:100C800044EB01046D1944EB0404521BA3414FF0E3
:100C9000000348BF0A3200D530BD401C41F10001BD
:100CA00030BD00002DE9F0411F46044603260168CF
:100CB000072A01F4006004DB08B116A505E016A5BB
:100CC00003E008B115A500E015A521F01000206093
:100CD000A069C01EA0610FB1401EA0612046FFF7B1
:100CE000F5FA4FB1D4E9012138469047206A401CFB
:100CF0002062C01C206206E0206AFAE7D4E90121E4
:100D000015F8010B9047761EF8D22046FFF7F4FA4B
:100D1000BDE8F0814E414E006E616E00494E4600C6
:100D2000696E66002DE9F047814616468AB035485F
:100D300078440DC88DE80D0032487844801C03AC1F
:100D40000DC884E80D0041F69B300844372190FB24
:100D5000F1F290FBF1F5A5F1800501FB12041B3CBB
:100D600002D56442012000E00020DFF898A0804610
:100D70000027FA44AAF1BE0A0EE0E0070AD0324684
:100D8000684607EB470101230AEB810100F046FBAF
:100D90008DE8070064107F1C002CEED1194F7F44B2
:100DA000AE3F19E0E80715D007EB04100DF1180A63
:100DB00090E80E008AE80E00C068F04201D1981950
:100DC00008903246012306A903A800F027FB03ABD5
:100DD00083E807006D10641C002DE3D14FF0010380
:100DE00032466946B8F1000F03A802D000F001FBBB
:100DF00001E000F013FBC9E90001C9F808200AB0BE
:100E0000BDE8F08734180000004870473401002026
:100E10007546FFF7F9FFAE4605006946534620F0D8
:100E20000700854618B020B5FFF722FABDE820403C
:100E30004FF000064FF000074FF000084FF0000B96
:100E400021F00701AC46ACE8C009ACE8C009ACE849
:100E5000C009ACE8C0098D46704710B50446AFF331
:100E600000802046BDE81040FFF7EDB94FF0013C8F
:100E700050F8042B51F8043B9A4221D1A2EB0C0309
:100E8000934313EACC1317D150F8042B51F8043BC9
:100E90009A4215D1A2EB0C03934313EACC130BD166
:100EA00050F8042B51F8043B9A4209D1A2EB0C03F1
:100EB000934313EACC13DBD04FF00000704700BF20
:100EC000D01A01BAB1FA81F101F0180122FA01F049
:100ED000CB40C1F12001DBB2C0B2C01A2CFA01F341
:100EE000D11A914311EAC311E6D170470149182084
:100EF000ABBEFEE72600020070475FEA400C08BF69
:100F000091F0000F4FEA8C234FEAC12243EA51517E
:100F10004FEA1C5018BF00F5F0404FEA300018BFF0
:100F200041F000415FEA6C5C00F02980BCF1FF3FBA
:100F300008BF40F080407047130C06BF12044FF00A
:100F4000100C4FF0000C130E04BF12020CF1080C31
:100F5000130F04BF12010CF1040C930F04BF920095
:100F60000CF1020CD30F04BF52000CF1010C11461E
:100F70004FF00002A0F11F00A0EB0C00704711F031
:100F8000004F08BF704731F000413FF4D5AF0B0C64
:100F900006BF09044FF0100C4FF0000C0B0E04BFFD
:100FA00009020CF1080C0B0F04BF09010CF1040C31
:100FB0008B0F04BF89000CF1020CCB0F04BF49005A
:100FC0000CF1010CCCF12003A0EB0C0022FA03F38E
:100FD00002FA0CF241EA030100F10100704720F02F
:100FE0007F4C80EA030023F07F47ACEB070303F557
:100FF0007C5300F0004003F1FF032DE980494FEAE4
:10100000154B09B44FEA144325EA0B4E24EA034872
:101010000FF2042606EB132749083E785FEA3202F6
:1010200003FB0667C7F5000707FB06F64FEA5437D0
:101030004FEAD64606F1020607FB066CCCF1005CCF
:101040004FEA1C472CEA074C07FB06F40CFB06F59D
:1010500004EB15464FEA961634BF00204FF00040CF
:101060004FEAD13706FB07FC4FEA1C4C0CFB0BF791
:10107000D21B03FB0CF761EB07010CFB0EF7B0EB87
:10108000074072EB17420CFB08F734BFA2EB074294
:10109000B2EB074261EB17414FEA0C444FEA91076C
:1010A00006FB07FC4FEA1C4C0CFB0BF7B0EBC740F0
:1010B00072EB573203FB0CF734BFA2EBC742B2EB23
:1010C000C74261EB57310CFB0EF7B0EBC70072EB78
:1010D00057720CFB08F734BFA2EBC702B2EBC70292
:1010E00061EB5771039F4FEA816141EA921104EB72
:1010F000CC044FEAD1374FEA826206FB07FC42EA92
:1011000090124FEA80604FEA1C4C0CFB0BF7D21B8D
:1011100003FB0CF761EB07010CFB0EF7B0EB07408C
:1011200072EB17420CFB08F734BFA2EB0742B2EB9D
:10113000074261EB17414FEA8C554FEA910704EBE8
:101140009C2406FB07FC4FEA1C4C0CFB0BF7B0EB96
:10115000C74072EB573203FB0CF734BFA2EBC74218
:10116000B2EBC74261EB57310CFB0EF7B0EBC70097
:1011700072EB57720CFB08F734BFA2EBC702B2EB5D
:10118000C70261EB577115EB4C254FEA816141EACB
:1011900092114FEA82624FEAD13742EA901206FB7F
:1011A00007FC44F100044FEA80604FEA1C4C0CFB42
:1011B0000BF7D21B03FB0CF761EB07010CFB0EF7DF
:1011C000B0EB074072EB17420CFB08F734BFA2EB01
:1011D0000742B2EB074261EB174115EB1C154FEAD2
:1011E000813141EA92414FEA823242EA90424FEA2B
:1011F00080304FEA0C7644F1000448EA03434EEA9B
:101200000B484FF0000EB2EB080C71EB030724BF44
:10121000624639464EEB0E0E4FF0000B001852415D
:1012200049414BEB0B0BB2EB080C71EB03077BF165
:10123000000B24BF624639464EEB0E0E4FF0000BFA
:101240000018524149414BEB0B0BB2EB080C71EB10
:1012500003077BF1000B24BF624639464EEB0E0EAE
:1012600051EA020718BF46F0010616EB0E7655F15B
:10127000000254F1000103D5BDE88901BDE80088F2
:10128000BDE88901BDE80048B619524141EB0101B2
:10129000A3F10103704780807F7E7D7C7B7A797823
:1012A000777676757473727171706F6E6E6D6C6C2B
:1012B0006B6A6A69686867666665646463636261CD
:1012C0006160605F5F5E5E5D5D5C5C5B5B5A5A594E
:1012D00059585857575656555555545453535252BA
:1012E0005251515050504F4F4F4E4E4D4D4D4C4C12
:1012F0004C4B4B4B4A4A4A4949494848484747475B
:101300004746464645454544444444434343434297
:10131000424242414141002B9C4630D477002BD0C1
:101320001CB54FEA370703B44FF010004FF010011F
:10133000BAF1000F06D0BCF1000FDCBF40F008008E
:1013400040F008014FF000000FBCBDE810400BF169
:10135000010BBBF1010F08BF5FEA170722BF12F1B3
:10136000010211F101014FF0004143F1000300F0CF
:10137000004043EA00007047F9D35708D0E746EA37
:10138000064613F1400F4FEA16461FDD13F1200FFA
:10139000DFBF16430A46002120335B42BED0C3F1B3
:1013A000200746EA064602FA07F74FEA164646EADB
:1013B0000706C3F1200722FA03F201FA07F721FA20
:1013C00003F14FF0000342EA0702A7E746EA0206EC
:1013D00046EA06464FEA164646EA0106BCBF46EA1A
:1013E0000646360C4FF000034FF000024FF00001AC
:1013F00094E72DE9804C9A46934670B491E8380002
:1014000007C831EA400C48BF34EA430C03D5FFF764
:10141000E6FDFFF780FFF0BCBDE8008C2DE9804CB5
:101420009A46934670B491E8380007C810F0804F90
:1014300008BF13F0804F03D100F005F8FFF76BFFF2
:10144000F0BCBDE8008C20F07F4780EA030023F069
:101450007F4C07EB0C03A3F57C5300F00040A3F195
:10146000FE0392F0000F00F0B38095F0000F00F043
:1014700077802DE901494FEA11404FEA144621EAED
:10148000004800FB06FC24EA064708FB06F607FBBB
:1014900008F800FB07F718EB06484CEB164C4FEA30
:1014A000124B18EB07484FEA15464CEB174022EA5F
:1014B0000B4E0BFB06FC25EA06470EFB06F607FB68
:1014C0000EFE0BFB07F71EEB064E4CEB164C4FF0D7
:1014D00000061EEB074E4CEB174B18EB0B0840F1C8
:1014E000000018EB0E0B58EB000840F100008F1ABB
:1014F0004FF000013CBFC943661B14BFB5EB040CA1
:1015000000213CBFC943F61B4FEA17444EEA8E0E3A
:1015100027EA04454FEA1C4704FB07622CEA074C04
:1015200005FB07F70CFB05F604FB0CFC16EB074666
:1015300042EB174216EB0C4642EB1C421BEB060635
:1015400058EB0202414146EA9E0601D5BDE80189F9
:10155000B619524141EB0101A3F10103BDE8018934
:101560004FEA14454FEA114724EA054621EA074CA1
:1015700005FB07F406FB07F70CFB06F105FB0CFC6B
:1015800011EB074144EB17444FEA124711EB0C41B2
:1015900044EB1C4422EA074C05FB07F206FB07F765
:1015A0000CFB06F605FB0CFC16EB074642EB17425C
:1015B00016EB0C4642EB1C456A1854F1000148BF7B
:1015C0007047B619524141EB0101A3F10103704785
:1015D00095F0000F37D04FEA11424FEA144721EA45
:1015E000024624EA074C02FB07F106FB07F70CFB57
:1015F00006F402FB0CFC14EB074441EB17414FEAE5
:10160000154714EB0C4441EB1C4125EA074C02FB47
:1016100007F506FB07F70CFB06F602FB0CFC16EBC6
:10162000074645EB174516EB0C4645EB1C421219D5
:1016300051F1000148BF7047B619524141EB010119
:10164000A3F1010370474FEA14454FEA114724EA1A
:10165000054621EA074C05FB07F106FB07F70CFBE3
:1016600006F24FF0000605FB0CFC12EB074241EBC3
:10167000174112EB0C4251EB1C4148BF70479218C6
:1016800041EB0101A3F10103704700BFFEE770B514
:1016900002460B464FF6FF7000210EE0545C60409E
:1016A000002407E000F00105400815B14AF20106E8
:1016B0007040641C082CF5DB491C9942EEDB70BDC0
:1016C00010B54649464800F0ABF846480078464910
:1016D000087046480078434908704548006801286A
:1016E0000AD1084600784349434A12688854424860
:1016F0000068401C404908603D48006801285AD1F4
:10170000394800780A2856D1364800780D2852D139
:1017100039480078001FC1B23648FFF7B8FF00B261
:101720003649088034480068001F32490144344873
:10173000098801803148B0F900003149B1F9001041
:10174000884233D12B480078AC2818D129484078FA
:10175000012814D12B482749D1F8021001602A48EA
:101760002449D1F80610016028482249D1F80A100E
:10177000016027481F49D1F80E10016016E01D488E
:101780000078AD2812D11B48407801280ED121489D
:101790001849D1F8021001601F481649D1F8061007
:1017A00001601E481349D1F80A1001600020104959
:1017B0000860114908600E48006850B90A4800786E
:1017C000AA2806D107480078FF2802D1012008493D
:1017D00008600121024800F03DF810BD008800209B
:1017E00088600240B0000020B1000020A00000206E
:1017F000E800002008010020EC000020C8000020C4
:10180000CA000020DC000020E0000020E4000020EE
:10181000C0000020D0000020D4000020D80000200C
:101820000246094B9A4201D2084801E006481038A6
:1018300001F000531BB1064B0B40C36002E0044BA8
:101840000B4083607047000010640240006002405B
:101850007D0F7D0F21B1026842F00102026003E0BA
:10186000026822F001020260704710B501F08003A7
:101870004BB122B1436943F08003436103E0436904
:1018800023F08003436180290BD02AB1036801F063
:101890001E042343036004E0036801F01E04A34315
:1018A000036010BD10B500220268134B1A40CC68CB
:1018B0000B6823434C6923438C692343CC6923433E
:1018C0000C6A23434C6A23438C6A23434C6B2343A7
:1018D0008C6B23431A430260426922F00702D1E96C
:1018E0000B3423431A4342610B6943604B688360A6
:1018F0008B68C36010BD00003F801CF07047F0B5DE
:101900000A4600210023002400BF3DE0012505FA1E
:1019100001F3156805EA03049C4234D105684F00C1
:101920000326BE40B543056015794E00B5400668F4
:10193000354305601579012D02D01579022D16D198
:1019400085684F000326BE40B543856055794E003B
:10195000B540866835438560456801268E40B543AD
:101960004560456896798E40B6B235434560C56896
:101970004F000326BE40B543C560D5794E00B54043
:10198000C6683543C560491C1029BFD3F0BDF0B50A
:10199000002300244D07ED0E02FA05F3CE1000F1EE
:1019A000200555F826504E07F70E0F26BE40B543CA
:1019B000CF1000F1200646F82750CE1000F1200588
:1019C00055F8265045EA0304CE1000F1200545F8ED
:1019D0002640F0BD00BFFEE700BFFEE770470000F5
:1019E00070B5002100230F22C4781CB3174C246863
:1019F00004F4E064C4F5E064C4F30721C1F1040415
:101A0000E3B20A4144789C40E1B284781440214317
:101A10000C07210E0E4C05786155047804F01F0563
:101A20000124AC4005786D11AD0005F1E025C5F845
:101A3000004109E0047804F01F050124AC40054D85
:101A40000678761145F8264070BD00000CED00E0E8
:101A500000E400E080E100E07047000029B1064AA0
:101A600012680243044B1A6004E0034A126882437E
:101A7000014B1A60704700003038024029B1064A15
:101A800012680243044B1A6004E0034A126882435E
:101A9000014B1A607047000040380240F0B5002149
:101AA00000220024022500260223324F3F6807F05F
:101AB0000C0121B1042905D0082937D105E02E4FAA
:101AC000076036E02D4F076033E02A4F3F1F3F6825
:101AD000C7F38056274F3F1F3F6807F03F036EB1A3
:101AE000264FB7FBF3F7DFF88CC0ACF1040CDCF841
:101AF00000C0CCF3881C07FB0CF40CE01E4FB7FBB6
:101B0000F3F7DFF870C0ACF1040CDCF800C0CCF3E4
:101B1000881C07FB0CF4174F3F1F3F68C7F30147B2
:101B20007F1C7D00B4FBF5F7076002E0124F0760F1
:101B300000BF00BF0F4F3F6807F0F0010909104FC9
:101B40007A5C0768D74047600A4F3F6807F4E05166
:101B5000890A0B4F7A5C4768D7408760054F3F681A
:101B600007F46041490B064F7A5C4768D740C7606D
:101B7000F0BD0000083802400024F40000127A0092
:101B800090000020704700000CB5002001900090EC
:101B90003448006840F480303249086000BF314862
:101BA000006800F4003000900198401C01900098FB
:101BB00018B90198B0F5A04FF1D12A48006800F497
:101BC000003010B10120009001E00020009000984A
:101BD000012846D123484030006840F08050214918
:101BE000403108602048006840F440401E490860C9
:101BF0001C48083000681B49083108600846006826
:101C000040F4004008600846006840F4A0500860B6
:101C10001648091F0860081F006840F08070091FFF
:101C2000086000BF0F48006800F000700028F9D07D
:101C300040F205700E4908600A480830006820F03C
:101C400003000849083108600846006840F00200B7
:101C5000086000BF03480830006800F00C00082846
:101C6000F8D10CBD00380240007000400854400715
:101C7000003C024001200449086004480068401C00
:101C800002490860704700008C0000208800002096
:101C900010B51548006840F47000134908601348F7
:101CA000006840F001001149086000200F49083128
:101CB00008600E4800680E4908400C4908600D484D
:101CC000091D0860081F006820F48020091F0860B3
:101CD000002006490C310860FFF756FF4FF0006006
:101CE00001498039086010BD88ED00E000380240ED
:101CF000FFFFF6FE103000243620002807DB00F03E
:101D00001F0201219140034A430942F8231000BFFA
:101D10007047000080E200E010B50121064800F0A5
:101D20001EF840B105480068401C044908600121C4
:101D3000014800F005F810BD00140040F400002038
:101D4000CA430282704721B1028842F00102028038
:101D500004E002884FF6FE731A400280704730B5E7
:101D60000246002000230024158A05EA0103958914
:101D700005EA010413B10CB1012000E0002030BDE0
:101D80001FB501212020FFF779FE0020ADF80400E7
:101D9000532002900020ADF80C00ADF8060037206B
:101DA0008DF8000000208DF801008DF80200012060
:101DB0008DF803006846FFF713FE01A9064800F0FE
:101DC00017F801221146044800F008F801210248E2
:101DD000FFF7B9FF1FBD0000001400401AB183894E
:101DE0000B43838102E083898B438381704700002A
:101DF00000220288184B98420ED0184B98420BD004
:101E0000B0F1804F08D0164B984205D0154B984240
:101E100002D0154B984204D14FF68F731A404B886D
:101E20001A43124B984207D0114B984204D04FF6F8
:101E3000FF431A400B891A4302804B68C3620B8828
:101E40000385054B984202D0044B984201D18B7A0E
:101E50000386012383827047000001400004014093
:101E60000004004000080040000C0040001000404A
:101E70000014004000B597B001210820FFF7EEFDE7
:101E800001214804FFF7FAFD01214805FFF7E6FDAF
:101E90002020159002208DF8580000208DF85A005F
:101EA00001208DF85B0002208DF8590015A94148EA
:101EB000FFF725FD4020159002208DF8580015A948
:101EC0003C48FFF71CFD072205213A48FFF75FFD5C
:101ED000072206213748FFF75AFD4FF4E1301190F1
:101EE0000020ADF84800ADF84A00ADF84C00ADF860
:101EF00050000C20ADF84E0011A92F4800F0C2F898
:101F000001212D4800F09CF8012240212A4800F0D0
:101F1000A3F801228021284800F09EF84FF00060CD
:101F200002902548001D039024480490002005904D
:101F300001200690002007904FF480600890002058
:101F400009900A900B904FF400300C9000200D90F7
:101F500001200E9000200F90109002A91848FFF762
:101F6000A1FC01211648FFF775FC1648049040209B
:101F700005901020069002A911481830FFF792FC36
:101F800001210F481830FFF765FC10208DF8040080
:101F900000208DF805008DF8060001208DF807005F
:101FA00001A8FFF71DFD012210210548FFF75DFC88
:101FB00017B000BD000C024000440040A00000200B
:101FC000886002402201002010B504460BE0217811
:101FD000074800F0C1F800BF8021054800F045F82F
:101FE0000028F9D0641C20780028F0D110BD000032
:101FF0000044004010B52DED048B82B00446B0EED5
:10200000408A18EE100A00F0DBF941EC190B8DED57
:10201000009B224608210748FEF73CF90649086064
:102020000448FFF7D1FF05A0FFF7CEFF02B0BDECDB
:10203000048B10BD22010020F00000200D0A0000DA
:1020400021B1828942F40052828104E082894DF6F6
:10205000FF731A40828170471AB1838A0B438382CF
:1020600002E0838A8B438382704702460020B1F5E9
:10207000007F00D100BF13880B400BB1012000E0AE
:10208000002070472DE9FF4705460E460024A14673
:1020900000BFA046B08900B100BF2C8A24F4405490
:1020A000F08804432C82AC8941F20C608443B088F0
:1020B00031890843718908430443AC81AC8A24F414
:1020C0004074B0890443AC826846FFF7E7FC2048BF
:1020D000854202D01F48854202D1DDF80C9001E014
:1020E000DDF80890A88900F4004040B109EBC90070
:1020F00000EB091031684900B0FBF1F707E009EB8C
:10210000C90000EB091031688900B0FBF1F76420C9
:10211000B7FBF0F004012009642101FB1078A889C5
:1021200000F4004040B1322000EBC800B0FBF1F0F9
:1021300000F00700044308E0322000EB081064219F
:10214000B0FBF1F000F00F0004432C81BDE8FF87E5
:102150000010014000140140C1F308028280704762
:1021600000BFFEE703B401984100009850EAC12087
:1021700018BF04204A0D18BF40F0010040F2FF7262
:10218000B2EB515F08BF40F00200012808BF0520F4
:1021900002B0704730380A2801D201207047002071
:1021A00070470000362000280DDB00BF00BF00F0A4
:1021B0001F02012191404209920002F1E022C2F87F
:1021C000001100BF00BF00BF0D48006840F00100D3
:1021D0000B490860081D006840F00100091D0860F7
:1021E00007480C30006820F0010005490C310860F8
:1021F000081F006840F00100091F086070470000D8
:10220000003C01401748006840F010001549086084
:102210001548008840F001001349088008460088EE
:1022200020F0020008800846008840F00400088082
:102230000846008820F0080008800846008820F042
:10224000800008800846808940F0010088810846A7
:10225000808A40F0010088824FF47A400885FA2095
:10226000C862704740380240001000403D48006896
:102270004FF47A72B0FBF2F1481EB0F1807F00D3C8
:102280001BE0481E4FF0E022506150170F2200283B
:1022900004DB13071C0E344B1C5406E013071D0E01
:1022A000324B00F00F04241F1D5500BF00204FF0DB
:1022B000E02290610720106100BF01210846FFF76E
:1022C000CDFB01210220FFF7C9FB01210820FFF708
:1022D000C5FB01210846FFF7D1FB01210220FFF7D2
:1022E000CDFB01210420FFF7C9FB01210820FFF7E6
:1022F000C5FBFFF745FDFFF7BDFDFFF753FFFFF7F8
:1023000081FF2DE01A48006801280CD11948008887
:10231000401C1849088018480088401C164908804D
:10232000002013490860134800880A2802D10020C1
:102330001049088010480088B0F57A7F10D1B0EEBF
:10234000040A0EA0FFF756FE0E4890ED000AF2EECA
:10235000040A30EE200A80ED000A002006490880B9
:10236000D0E700007400002000E400E018ED00E079
:102370008C0000200200002004000020252E326680
:10238000000000004C00002010B500290AD0087899
:10239000002807D005487844FEF768FD002801D0E2
:1023A000002010BD0248784410BD00000A02000061
:1023B000020200000808A0F500114FEA3101704741
:1023C00043004FEAD30C4FEA3C0C43401FBF400789
:1023D0000CF1605113F0FE4F70471CF0006F03D1F9
:1023E00000200CF0004170470CF0004343EA5070AD
:1023F00010B540EACC0000F00EF800BF00000092DB
:102400004FEA0001FFF7D6BF4FF000414FF0000048
:10241000A1F5002170470EF1020E2EF0030E5EF8BA
:10242000044B244204D44FEA4102B2F17F4F11D849
:102430004FEA4003B3F17F4F0CD80ED14FEAD07C66
:10244000B2F17F4F0CEB4C0C0CF1020C08BF4CEBC3
:10245000D17C04E04FF0080C01E04FEAD17C0CEB9A
:102460004C0324FA03F404F00704B4F1040C06D27C
:102470000EEB840CBDE810404CF0010C6047DFE827
:102480000CF0070802024FF00040A0F5800010BDDC
:102490000846420018BFD2F1807288BF00F00040A9
:1024A00010BD4FF04070E1EE100A7047FEF7D6B84D
:1024B000FEF70ABA04000008000000000000000255
:1024C000000100001030313233343536373839618D
:1024D0006263646566787000303132333435363784
:1024E00038394142434445465850000002400000FC
:1024F000000000A00000000005400000000000C82F
:10250000000000000C4000000000409C00000000A3
:10251000194000000020BCBE000000003440000054
:10252000BFC91B8E00000004B5400000504BCFD047
:102530006607E2CF010000006C4100003E8251AA14
:10254000DFEEA73401000000D9420000DCB5A0E2B4
:102550003A301F97FFFFFFFFB4450000FD25A0C8DC
:10256000E9A3C14FFFFFFFFFFF3F00000000008015
:1025700000000000FF3F000000000080000000009D
:10258000BC2500080000002008010000C40100086C
:10259000C42600080801002090060000E0010008A1
:1025A0001C00000043000000F8FFFFFF0C000000CB
:1025B0000E0000000F0000002E00000000000000D0
:1025C0000000000000004842000000000000A040A1
:1025D00000000000000000000000000038020304BA
:1025E00005000000000000000000000000000000E6
:1025F000000000000000704100000000000000002A
:102600000000000000007A44000000001103006B8D
:1026100000030000000000000000000000000000B7
:1026200000000000000000000000000000000000AA
:10263000007A030A00000000000000000102030409
:10264000060708090000000000000000000000006C
:102650000102030401020304060708090000000048
:10266000000000000000000000000000000000006A
:102670000000000000000000000000000000A04179
:10268000000000000000000000000000000000004A
:10269000000000000000000000000000000000003A
:1026A000000000000000000000000000FFFFFFFF2E
:1026B00000000000010002000400080010003000CB
:0426C0000000000016
:040000050800025598
:00000001FF
