:020000040800F2
:100000005008002069020008A50C000891090008AA
:10001000990C000861040008952600080000000003
:10002000000000000000000000000000DD110008DA
:10003000D5060008000000003D100008CD120008A1
:10004000830200088302000883020008830200087C
:10005000830200088302000883020008830200086C
:10006000830200088302000883020008830200085C
:10007000830200088302000883020008830200084C
:100080009904000883020008830200088302000824
:10009000830200088302000883020008830200082C
:1000A000830200088302000883020008830200081C
:1000B000AD130008830200088302000883020008D1
:1000C00083020008830200088302000883020008FC
:1000D00083020008830200088302000883020008EC
:1000E00083020008830200088302000883020008DC
:1000F00083020008830200088302000883020008CC
:1001000083020008830200088302000883020008BB
:1001100083020008830200085114000845150008F6
:10012000830200088302000883020008830200089B
:10013000830200088302000883020008830200088B
:10014000830200088302000883020008830200087B
:10015000830200088302000883020008830200086B
:10016000830200088302000883020008830200085B
:10017000830200088302000883020008830200084B
:10018000830200088302000800F002F800F05CF827
:100190000AA090E8000C82448344AAF10107DA45E2
:1001A00001D100F051F8AFF2090EBAE80F0013F0D8
:1001B000010F18BFFB1A43F001031847C02E0000BF
:1001C000E02E00000A444FF0000C10F8013B13F041
:1001D000070408BF10F8014B1D1108BF10F8015BA0
:1001E000641E05D010F8016B641E01F8016BF9D193
:1001F00013F0080F1EBF10F8014BAD1C0C1B09D1EA
:100200006D1E58BF01F801CBFAD505E014F8016B5B
:1002100001F8016B6D1EF9D59142D6D370470000ED
:100220000023002400250026103A28BF78C1FBD8FF
:10023000520728BF30C148BF0B6070471FB502F09E
:1002400013FF1FBD10B510BD00F036F81146FFF7C3
:10025000F5FF02F04DFB00F054F803B4FFF7F2FF96
:1002600003BC00F057F800000948804709480047E0
:10027000FEE7FEE7FEE7FEE7FEE7FEE7FEE7FEE756
:10028000FEE7FEE704480549054A064B70470000B3
:10029000E9120008890100085002002050080020DF
:1002A0005004002050040020704770477047000041
:1002B00000487047F00100207546FFF7F9FFAE4691
:1002C00005006946534620F00700854618B020B562
:1002D000FFF7D8FFBDE820404FF000064FF00007C1
:1002E0004FF000084FF0000B21F00701AC46ACE8DE
:1002F000C009ACE8C009ACE8C009ACE8C0098D464B
:10030000704710B50446AFF300802046BDE81040AA
:10031000FFF7A3BF01491820ABBEFEE7260002008D
:10032000704700000021084A1168084A1140D0E9CE
:1003300000231A4383681A43C3681A431143044ACB
:10034000C2F804137047000004230140E030FCFFB2
:100350000020014030B50246002000235068104CB8
:1003600020400D790C6844EA0524204350609068D1
:100370000C4C2040D1E903542C438D682C434D791B
:1003800044EA450420439060D06A20F470000C7D5C
:10039000641EE4B2234340EA0350D06230BD000043
:1003A000FFFEFFFCFDF7FFC0F0B504460D46002040
:1003B0000021092D11DDE068A5F10A0606EB4607CC
:1003C000072606FA07F18843A5F10A0606EB46065A
:1003D00003FA06F10843E0600CE0206905EB4507ED
:1003E000072606FA07F1884305EB450603FA06F1EE
:1003F00008432061072A0FDA606B561E06EB86075A
:100400001F2606FA07F18843561E06EB860605FAF4
:1004100006F10843606322E00D2A0FDA206BD61F35
:1004200006EB86071F2606FA07F18843D61F06EB60
:10043000860605FA06F10843206310E0E06AA2F19F
:100440000D0606EB86071F2606FA07F18843A2F180
:100450000D0606EB860605FA06F10843E062F0BDDC
:1004600000BFFEE770B502460B464FF6FF70002155
:100470000EE0545C6040002407E000F001054008F5
:1004800015B14AF201067040641C082CF5DB491CCA
:100490009942EEDB70BD000010B54649464800F0B9
:1004A000ABF846480078464908704648007843490A
:1004B00008704548006801280AD108460078434979
:1004C000434A1268885442480068401C404908600A
:1004D0003D48006801285AD1394800780A2856D189
:1004E000364800780D2852D139480078001FC1B233
:1004F0003648FFF7B7FF00B2364908803448006835
:10050000001F324901443448098801803148B0F95C
:1005100000003149B1F90010884233D12B480078EE
:10052000AC2818D129484078012814D12B482749F4
:10053000D1F8021001602A482449D1F80610016060
:1005400028482249D1F80A10016027481F49D1F8EC
:100550000E10016016E01D480078AD2812D11B482E
:10056000407801280ED121481849D1F802100160C5
:100570001F481649D1F8061001601E481349D1F8EA
:100580000A100160002010490860114908600E48F7
:10059000006850B90A480078AA2806D107480078B0
:1005A000FF2802D10120084908600121024800F01B
:1005B0003DF810BD0088002088600240C000002087
:1005C000C1000020B0000020F8000020B001002091
:1005D000FC000020D8000020DA000020EC00002001
:1005E000F0000020F4000020D0000020E0000020F7
:1005F000E4000020E80000200246094B9A4201D2A4
:10060000084801E00648103801F000531BB1064BC2
:100610000B40C36002E0044B0B4083607047000056
:1006200010640240006002407D0F7D0F21B102681E
:1006300042F00102026003E0026822F0010202605F
:10064000704710B501F080034BB122B1436943F00C
:100650008003436103E0436923F080034361802901
:100660000BD02AB1036801F01E042343036004E0A9
:10067000036801F01E04A343036010BD10B50022FF
:100680000268134B1A40CC680B6823434C69234320
:100690008C692343CC6923430C6A23434C6A23436C
:1006A0008C6A23434C6B23438C6B23431A430260B5
:1006B000426922F00702D1E90B3423431A43426115
:1006C0000B6943604B6883608B68C36010BD00009A
:1006D0003F801CF07047000008B50121042000F0A5
:1006E000BFFC4FF400504310254A114600902548A6
:1006F00000F09AF802220C21214800F019F9022298
:100700000D211F4800F014F947F230511D4801F047
:100710006BF80121082000F0A3FC022001231A4AF3
:1007200011460090194800F07FF802220021164877
:1007300000F0FEF802220121134800F0F9F847F218
:100740003051124801F050F80121022000F098FCCD
:10075000802040230E4A114600900E4800F064F8B5
:10076000032206210A4800F0E3F803220721084883
:1007700000F0DEF847F23051064801F035F808BDC8
:10078000000C02400008004000000240000C004045
:10079000000802400004014070B52DED0C8B0546A9
:1007A0000C46284600F021FF06B2A00002F046FBEE
:1007B00041EC1A0BA6F5EA413039164A127801FBD2
:1007C00002F002F03BFB41EC1D0B9FED130B53ECD1
:1007D000102B02F04BFB41EC1C0B9FED110B53EC6B
:1007E000102B02F043FB41EC1B0B53EC1A2B02F0D5
:1007F000CDF941EC190B02F097F908EE100A47F217
:100800003051284600F0F0FFB0EE480ABDEC0C8BEA
:1008100070BD000004010020000000000000214025
:100820001F85EB51B81E09402DE9F04186B00746FF
:100830000C4615461E46DDF83080049602208DF8E1
:10084000140001208DF8170002208DF8150004A96E
:10085000204600F025F8CDF8108004A9284600F0C5
:100860001FF80020ADF80C00ADF80600ADF804004C
:100870004FF6FF70029001A9384600F0B7FF002143
:10088000384600F0B1FF00231A460321384600F035
:100890008BFE0121384600F06CFE06B0BDE8F08109
:1008A000F0B50A4600210023002400BF3DE00125E9
:1008B00005FA01F3156805EA03049C4234D1056882
:1008C0004F000326BE40B543056015794E00B54084
:1008D0000668354305601579012D02D01579022D82
:1008E00016D185684F000326BE40B5438560557913
:1008F0004E00B540866835438560456801268E40C8
:10090000B5434560456896798E40B6B2354345603B
:10091000C5684F000326BE40B543C560D5794E007B
:10092000B540C6683543C560491C1029BFD3F0BD2A
:10093000F0B5002300244D07ED0E02FA05F3CE10AA
:1009400000F1200555F826504E07F70E0F26BE4041
:10095000B543CF1000F1200646F82750CE1000F125
:10096000200555F8265045EA0304CE1000F1200575
:1009700045F82640F0BD0246002013690B400BB13C
:10098000012000E0002070474183704701837047D9
:1009900000BFFEE72DE9F04107460D46164601F07F
:1009A00013FF384601F050FF20B901F031FF00205D
:1009B000BDE8F081002405E0012001F0B5FE2855D6
:1009C000601CC4B2701EA042F6DC002001F0ACFE38
:1009D000285501F01DFF0120EAE72DE9F041074607
:1009E0000D46164601F0F0FE384601F02DFF20B905
:1009F00001F00EFF0020BDE8F081002409E0285D31
:100A000001F022FF18B901F003FF0020F3E7601C9A
:100A1000C4B2B442F3DB01F0FBFE0120EBE70000BF
:100A200010B504461CB101200449C87002E0002042
:100A30000249C87000F00AF810BD00004C01002007
:100A400010B5012000F0C0F810BD000010B5002462
:100A50000EE00B4800784010094908700948005D15
:100A600020B10846007840F080000870601CC4B2D5
:100A7000082CEEDB012202494E20FFF7AEFF10BD2D
:100A8000540100204C0100203EB50121402000F01F
:100A9000E7FA5320ADF800004FF6FF700190694669
:100AA000224800F0A3FE0121204800F062FD322020
:100AB00001F0F2FD00F0F2F8002404E000201C49EF
:100AC0000855601CC4B2082CF8DBFFF7BFFF0020FC
:100AD00017490870FFF7BAFF002015494870FFF763
:100AE000B5FF032000F088F8052001F0D5FD0320B4
:100AF00000F082F8012001F0CFFD032000F07CF827
:100B0000012001F0C9FD022000F076F8012001F07B
:100B1000C3FD282000F058F80C2000F055F80E20F6
:100B200000F052F8012000F04FF83EBD00180040E0
:100B30004C01002010B5C02000F046F810BD10B5E3
:100B4000044607E0207820B114F8010B00F08CF87F
:100B500000E000E0F6E700BF10BD000008B501208E
:100B60001849087148718871C871FFF76FFF00203C
:100B700014490870FFF76AFF012012494870FFF717
:100B800065FF00BF01200F498870FFF75FFF01225A
:100B900069464F20FFF7FEFE00200A498870FFF7E4
:100BA00055FF012007498870FFF750FF00200549D5
:100BB0008870FFF74BFF9DF8000000F00800002848
:100BC000E0D108BD4C01002010B50446FFF7C6FF78
:100BD000002008490870FFF739FF002005494870D8
:100BE000FFF734FF201100F007F8204600F004F86A
:100BF00010BD00004C01002010B5044604F00800B0
:100C000018B101201749C87102E000201549C871C8
:100C100004F0040018B101201249887102E000209C
:100C20001049887104F0020018B101200D49487183
:100C300002E000200B49487104F0010018B10120C6
:100C40000849087102E000200649087101200549A1
:100C50008870FFF7FBFE002002498870FFF7F6FE60
:100C600010BD00004C01002010B50446FFF776FFD0
:100C7000012008490870FFF7E9FE00200549487087
:100C8000FFF7E4FE2011FFF7B7FF2046FFF7B4FFA0
:100C900010BD00004C01002000BFFEE710B501F0C0
:100CA0001FFD10BD7047000070B5002100230F220A
:100CB000C4781CB3174C246804F4E064C4F5E06401
:100CC000C4F30721C1F10404E3B20A4144789C4013
:100CD000E1B28478144021430C07210E0E4C0578B4
:100CE0006155047804F01F050124AC4005786D11AE
:100CF000AD0005F1E025C5F8004109E0047804F0F5
:100D00001F050124AC40054D0678761145F82640B4
:100D100070BD00000CED00E000E400E080E100E0C8
:100D2000F0EE400A2F4890ED000A9FED2F1A31EEA9
:100D3000400A2E4880ED000A2D4890ED000A2D480B
:100D400090ED001A2948D0ED001A01EE210A28483A
:100D500080ED000A284890ED000A2648D0ED001AE0
:100D600080EE211A254890ED000A2048D0ED001AA7
:100D700020EE210A2248D0ED001A1D4890ED002AED
:100D800001EE820A1948D0ED001A1E4890ED002AA3
:100D900071EEC21A01EE210A1B4880ED000A1348C9
:100DA00090ED000A174880ED000A174890ED000A00
:100DB000B4EEE00AF1EE10FA02DDC0ED000A0DE03B
:100DC000114890ED000AB1EE601AB4EEC10AF1EEDE
:100DD00010FA03D2B1EE600A80ED000A0A4890EDE5
:100DE000000A70478001002000007A447C01002046
:100DF0008801002078010020940100208C0100204F
:100E0000900100208401002098010020B0EE401ADB
:100E100071EE601A2D48C0ED001A2D48D0ED001A71
:100E20002C4890ED002A2948D0ED002A42EE221AE3
:100E30002748C0ED001A2848D0ED001A2548D0ED0B
:100E4000002A81EEA22A2548D0ED001A1F48D0EDD5
:100E5000002A61EEA21A2248D0ED002A1C4890ED2B
:100E6000003A42EE831A1948D0ED002A1D4890ED51
:100E7000003A72EEC32A42EE221A1B48C0ED001A55
:100E80001248D0ED001A1748C0ED001A1648D0EDF0
:100E9000001AB2EE042A61EE821AB0EE610ADFEDAA
:100EA000131AB4EEE10AF1EE10FA04DDDFED0F1AC9
:100EB000B0EE610A08E0B5EEC00AF1EE10FA03D216
:100EC000DFED0B1AB0EE610A704700005C010020F4
:100ED0006001002078010020740100206C010020D6
:100EE00070010020580100206801002000007A44B1
:100EF0000000000010B50121022000F0B1F800F060
:100F00000BF89FED030A034800F03CF810BD000009
:100F100000409C46000400401FB531200290022092
:100F20008DF80C0000208DF80E0001208DF80F00C8
:100F300003208DF80D0002A91148FFF7B1FC022231
:100F400004210F48FFF7F4FC022205210C48FFF7AB
:100F5000EFFC022200210A48FFF7EAFCC2200090C1
:100F600001208DF8040000208DF8060002208DF885
:100F700007008DF8050069460148FFF791FC1FBD89
:100F80000004024070B52DED028B8CB00546B0EE2A
:100F9000408A0026002408A800F082F8099840083A
:100FA0002549B0FBF1F0441E0998400800EE100AF4
:100FB000F8EE400A601C00EE100AB8EE400A20EE7F
:100FC000081A80EE810AF7EE000A30EE600ABCEEE5
:100FD000C00A10EE106A0020ADF81C00ADF8160033
:100FE000A0B2ADF81400069605A9284600F0FEFB55
:100FF0006020ADF800000020ADF80C000120ADF835
:101000000200002002906946284600F00BFB69466A
:10101000284600F045FB6946284600F093FB012175
:10102000284600F0B2FA0121284600F0A2FA0CB0DE
:10103000BDEC028B70BD000080841E007047000074
:1010400029B1064A12680243044B1A6004E0034ABD
:1010500012688243014B1A6070470000303802402A
:1010600029B1064A12680243044B1A6004E0034A9D
:1010700012688243014B1A607047000040380240FA
:1010800029B1064A12680243044B1A6004E0034A7D
:1010900012688243014B1A607047000044380240D6
:1010A000F0B5002100220024022500260223324F41
:1010B0003F6807F00C0121B1042905D0082937D178
:1010C00005E02E4F076036E02D4F076033E02A4FD2
:1010D0003F1F3F68C7F38056274F3F1F3F6807F009
:1010E0003F036EB1264FB7FBF3F7DFF88CC0ACF1CE
:1010F000040CDCF800C0CCF3881C07FB0CF40CE0FB
:101100001E4FB7FBF3F7DFF870C0ACF1040CDCF84E
:1011100000C0CCF3881C07FB0CF4174F3F1F3F683F
:10112000C7F301477F1C7D00B4FBF5F7076002E0C1
:10113000124F076000BF00BF0F4F3F6807F0F0017C
:101140000909104F7A5C0768D74047600A4F3F682B
:1011500007F4E051890A0B4F7A5C4768D7408760F3
:10116000054F3F6807F46041490B064F7A5C4768BA
:10117000D740C760F0BD0000083802400024F400EA
:1011800000127A00A000002010B50022028802F4AC
:1011900041520B884C8823438C882343CC882343BB
:1011A0000C8923434C8923438C892343CC892343D3
:1011B0001A430280838B4FF2FF74234083830B8A90
:1011C000038210BD0021018041808180C1800181A6
:1011D00041818181C18107210182704770470000F0
:1011E0000CB50020019000903448006840F4803035
:1011F0003249086000BF3148006800F400300090B8
:101200000198401C0190009818B90198B0F5A04FC2
:10121000F1D12A48006800F4003010B1012000909C
:1012200001E0002000900098012846D1234840307A
:10123000006840F080502149403108602048006833
:1012400040F440401E4908601C48083000681B49B3
:10125000083108600846006840F40040086008460D
:10126000006840F4A05008601648091F0860081F75
:10127000006840F08070091F086000BF0F480068D8
:1012800000F000700028F9D040F205700E490860A7
:101290000A480830006820F0030008490831086057
:1012A0000846006840F00200086000BF03480830AC
:1012B000006800F00C000828F8D10CBD003802408E
:1012C0000070004008544007003C024001200449DF
:1012D000086004480068401C02490860704700002C
:1012E0009C0000209800002010B51548006840F4CC
:1012F0007000134908601348006840F0010011496C
:10130000086000200F49083108600E4800680E4947
:1013100008400C4908600D48091D0860081F006856
:1013200020F48020091F0860002006490C31086065
:10133000FFF756FF4FF0006001498039086010BD8B
:1013400088ED00E000380240FFFFF6FE1030002478
:101350001FB501210846FFF783FE42F2CF00ADF82A
:10136000040040F28F1002900020ADF80C00ADF8A0
:10137000060001A94FF0804000F038FA0122114622
:10138000900700F046F90121880700F0F2F81C20D0
:101390008DF8000000208DF8010001208DF802007A
:1013A0008DF803006846FFF77FFC1FBD10B50121D3
:1013B000880700F01DF9E0B31E4890ED000AF7EE33
:1013C000000A30EE200A80ED000A1B48D0ED000A2A
:1013D0001A4890ED000AFFF719FD194880ED000A40
:1013E00090ED000AFFF79CFC164880ED000A1448B7
:1013F00090ED000A1348D0ED000A30EE600AF2EEDC
:10140000040A80EE201A104880ED001A0C4890ED76
:10141000000A0C48D0ED000A30EE200AF2EE040A71
:1014200080EE201A094880ED001A0121880700F09B
:101430009DF810BD5C000020480000204400002002
:101440002400002028000020080000200C000020BC
:101450004FF6FE70074908823620002807DB00F0AF
:101460001F0201219140044A430942F8231000BFA2
:10147000704700000010004080E200E036200028A5
:101480000DDB00BF00BF00F01F02012191404209A7
:10149000920002F1E022C2F8001100BF00BF00BFBD
:1014A0002548006840F0010023490860081D0068D5
:1014B00040F00100091D08601F480C30006820F052
:1014C00001001D490C310860081F006840F0010050
:1014D000091F08601948006840F0100017490860AB
:1014E0001748008840F00100154908800846008828
:1014F00020F0020008800846008840F004000880C0
:101500000846008820F0080008800846008820F07F
:10151000800008800846808940F0010088810846E4
:10152000808A40F00100888242F2CF00088542F2B2
:101530000F70C86270470000003C01404038024014
:101540000010004010B50121064800F051F840B1EC
:1015500005480068401C044908600121014800F06A
:1015600005F810BD0014004038010020CA43028273
:10157000704721B1028842F00102028004E0028833
:101580004FF6FE731A400280704731B1B0F8442024
:1015900042F40042A0F8442005E0B0F84420C2F331
:1015A0000E02A0F844207047F0B50C4615461E46C2
:1015B0000021002200230189028B038C4FF6F8776B
:1015C000394021434FF6FC473A4040F201173A4375
:1015D0004FF6DD773B404FF6FF7707EA06172F43BC
:1015E0003B43018102830384F0BD0146486A704792
:1015F00030B50246002000230024158A05EA0103C5
:10160000958905EA010413B10CB1012000E0002026
:1016100030BD1AB183890B43838102E083898B43F8
:101620008381704770B5002400220023058C4FF69B
:10163000FE7635400584028C8388048B4FF68F75C7
:101640002C40B51E2C400D882C43751E2A408D89D8
:101650002A434D882A43104DA84202D00F4DA8427C
:1016600013D14FF6F7752A40CD892A434FF6FB7503
:101670002A408D882A434FF6FF652B404FF6FF55D1
:101680002B400D8A2B434D8A2B43838004838D6826
:101690004563028470BD0000000001400004014069
:1016A00070B5002400220023058C4FF6EF763540FC
:1016B0000584028C8388048B48F6FF752C404FF616
:1016C000FF452C400D884FF6FF7606EA05252C4392
:1016D0004FF6DF752A408D8906EA05152A434D88A5
:1016E00006EA05152A43154DA84202D0144DA8421A
:1016F0001DD14FF67F752A40CD894FF6FF7606EA59
:1017000005152A434FF6BF752A408D8806EA051550
:101710002A434FF6FF352B404FF2FF752B400D8AC1
:1017200006EA85052B434D8A06EA85052B4383800F
:1017300004838D688563028470BD00000000014051
:101740000004014070B5002400220023058C4FF6F0
:10175000FF6635400584028C8388848B4FF68F7535
:101760002C404FF6FC752C400D882C434FF6FF554E
:101770002A408D894FF6FF7606EA05252A434D88D3
:1017800006EA05252A43154DA84202D0144DA84269
:101790001DD14FF2FF752A40CD894FF6FF7606EA3C
:1017A00005252A434FF6FF352A408D8806EA052590
:1017B0002A434EF6FF752B404DF6FF752B400D8AE0
:1017C00006EA05152B434D8A06EA05152B4383804F
:1017D00084838D68C563028470BD000000000140F1
:1017E0000004014041637047416270470022028853
:1017F000184B98420ED0184B98420BD0B0F1804F46
:1018000008D0164B984205D0154B984202D0154B84
:10181000984204D14FF68F731A404B881A43124BEB
:10182000984207D0114B984204D04FF6FF431A401C
:101830000B891A4302804B68C3620B880385054BF2
:10184000984202D0044B984201D18B7A038601233F
:101850008382704700000140000401400004004002
:1018600000080040000C0040001000400014004040
:1018700010B504460121024800F03CF910BD0000FB
:101880000000024010B504460121024800F032F980
:1018900010BD00000008024010B5044602210248B5
:1018A00000F028F910BD00000008024010B5044601
:1018B0000421024800F01EF910BD0000000802409B
:1018C00010B504460821024800F014F910BD0000CC
:1018D0000008024010B504460848844202D0084877
:1018E000844203D11021074800F004F906488442DD
:1018F00003D11021054800F0FDF810BD0020014083
:101900000021014000080240002201400014024072
:1019100010B504460948844202D00948844204D1E3
:101920002021084800F0E6F806E00748844203D189
:101930002021064800F0DEF810BD00000020014024
:101940000021014000080240002201400014024032
:1019500010B504460221024800F0CCF810BD00008A
:101960000000024010B504460421024800F0C2F80D
:1019700010BD00000000024010B5044608210248D6
:1019800000F0B8F810BD00000000024010B5044699
:101990000848844202D00848844203D110210748F5
:1019A00000F0A8F80648844203D14021054800F021
:1019B000A1F810BD002001400021014000000240BC
:1019C000002201400014024010B504460848844239
:1019D00002D00848844203D12021074800F08AF849
:1019E0000648844203D18021054800F083F810BDE9
:1019F000002001400021014000000240002201407F
:101A00000014024010B504460848844202D0084839
:101A1000844203D14021074800F06CF80648844214
:101A200003D18115054800F065F810BD0020014084
:101A30000021014000000240002201400014024049
:101A400010B504460848844202D00848844203D1B5
:101A50008021074800F04EF80648844203D1411522
:101A6000054800F047F810BD00200140002101406A
:101A700000000240002201400014024010B504465C
:101A80000848844202D00848844203D10121074813
:101A900000F030F80648844203D10115054800F0F3
:101AA00029F810BD0020014000210140000402403F
:101AB000002201400014024010B504460848844248
:101AC00002D00848844203D10221074800F012F8EE
:101AD0000648844203D10821054800F00BF810BDE8
:101AE000002001400021014000040240002201408A
:101AF000001402407CB504460D460120022100235B
:101B00000322CDE900102946204600F043F97CBDB0
:101B100070B506460D462C461CB93046FFF7A8FEA8
:101B200058E0012C03D13046FFF712FF52E0022C9F
:101B300003D13046FFF716FF4CE0032C03D13046AB
:101B4000FFF71AFF46E0042C03D13046FFF71EFFD3
:101B500040E0052C03D13046FFF736FF3AE0062C73
:101B600003D13046FFF74EFF34E0072C03D1304657
:101B7000FFF766FF2EE0082C03D13046FFF77EFF0B
:101B800028E0092C03D13046FFF796FF22E00A2C0B
:101B900003D13046FFF776FE1CE00B2C03D1304614
:101BA000FFF77AFE16E00C2C03D13046FFF77EFEDD
:101BB00010E00D2C03D13046FFF782FE0AE00E2C18
:101BC00003D13046FFF786FE04E00F2C02D13046E9
:101BD000FFF79EFE304600F001F870BD10B58AB0E8
:101BE000044600208DF8150008900790069001200B
:101BF0008DF8240000208DF814001C48844208D180
:101C00001B48006840F48070194908600020049067
:101C100016E01848844208D11548006840F4007066
:101C200013490860002004900AE01348844207D159
:101C30000F48006840F480600D490860002004905F
:101C40000020029000904FF4803001904FF44070DB
:101C500003906846FEF766FB04A92046FEF77AFB70
:101C6000A06840F00100A0600AB010BD0020014053
:101C700044380240002101400022014070B5044672
:101C80000D4640F6FF7601231A4629462046FEF708
:101C90008BFBA06840F08040A06004E0301EA6F1FD
:101CA000010600D170BD206800F002000028F5D0C8
:101CB000E06C80B2F6E701464FF40030081AC0F33A
:101CC0008F20704700B502461046FFF7F4FF012150
:101CD00001FA00F00249096808430149086000BDA3
:101CE000303802402DE9F04304460E461546DDE942
:101CF00007892046FFF7DFFFC7B2002243E001203B
:101D00009040304000B93CE0214830F817000121F4
:101D1000914008431E4921F81700E0684FEA420C41
:101D2000032101FA0CF18843510008FA01F108433C
:101D3000E06020684FEA420C032101FA0CF188436D
:101D4000510005FA01F108432060012D01D0022D58
:101D500016D161680120904080B221EA000003FAA8
:101D600002F189B208436060A0684FEA420C032187
:101D700001FA0CF18843510009FA01F10843A0600F
:101D800000BF501CC2B2102AB9DBBDE8F0830000CE
:101D9000DA0100202DE9FC4305460C4616461F4695
:101DA000DDE909890CB9BDE8FC832846FFF78AFF05
:101DB0003B46324621462846CDE90089FFF792FF8F
:101DC00000BFF0E72DE9FC4705460E46174698464A
:101DD000DDE90A9A0EB9BDE8FC872846FFF772FFD5
:101DE00000241AE00120A040304000B914E0E108CE
:101DF00005F1200050F821006107CA0E0F21914023
:101E000088436107C90E0AFA01F10843E20805F1A7
:101E1000200141F8220000BF641C102CE2D33B4695
:101E2000022231462846CDE90089FFF75BFF00BF5B
:101E3000D1E710B5142000F053F8044604F0030075
:101E400018B90321142000F06FF810BD10B500F090
:101E500027F80121114800F091F900F05FF88D2179
:101E60002A2000F06FF83E212B2000F06BF81E2195
:101E70002D2000F067F800212C2000F063F870217D
:101E8000262000F05FF84021152000F05BF83D218E
:101E9000112000F057F8FFF7CCFF10BD003C0040C8
:101EA0001CB501210420FFF7CBF802208DF80500B6
:101EB00001208DF8040000208DF806008DF8070041
:101EC0004FF40070009069460448FEF7E9FC4FF4B7
:101ED00000700249183108801CBD00000008024053
:101EE00070B504464FF400700A4908807E2000EA6D
:101EF000440040F08001084800F0A5F900210648A0
:101F000000F0A1F905464FF400700249891E0880CF
:101F1000284670BD1A080240003C004010B50F2151
:101F2000012000F00FF810BD70B505460C4628469C
:101F3000FFF7D6FF40EA04063146284600F002F8D3
:101F400070BD000070B504460D464FF4007009499D
:101F500008807E2000EA4401074800F074F9294611
:101F6000054800F070F94FF400700249891E08809E
:101F700070BD00001A080240003C00401CB5044639
:101F80004CB90520032100231A46CDE90010E021B9
:101F90000A48FFF717FF012C09D105200321002370
:101FA0001A46CDE9001038210548FFF70BFF032C36
:101FB00003D10521034800F045F91CBD0000024093
:101FC00000040240003001401CB50446A4B90520BD
:101FD000032100231A46CDE900104FF48061164812
:101FE000FFF7F0FE0520032100231A46CDE900107B
:101FF0000C211248FFF7E6FE012C0AD1052003212F
:1020000000231A46CDE900104FF460410A48FFF75B
:10201000D9FE022C09D10520032100231A46CDE95F
:1020200000100D210648FFF7CDFE032C03D105213A
:10203000044800F007F91CBD0004024000080240FB
:1020400000200240003800401CB504464CB9062070
:10205000032100231A46CDE9001038210B48FFF771
:10206000B1FE012C0AD10620032100231A46CDE936
:1020700000104FF4E0510648FFF7A4FE032C03D1F3
:102080000621044800F0DEF81CBD000000040240F8
:1020900000080240003C00401CB504464CB9052035
:1020A000032100231A46CDE9001064210B48FFF7F5
:1020B00089FE012C0AD10520032100231A46CDE90F
:1020C00000104FF4E0410548FFF77CFE032C03D1DC
:1020D0000521034800F0B6F81CBD000000100240C6
:1020E000003401401CB5044654B9052003210023E7
:1020F0001A46CDE900104FF460711048FFF762FEF8
:10210000012C13D10520032100231A46CDE900102C
:10211000E1020A48FFF756FE0520032100231A4674
:10212000CDE90010C0210648FFF74CFE032C03D177
:102130000521044800F086F81CBD00000014024090
:10214000001C0240005001401CB5044654B9052053
:10215000032100231A46CDE900104FF4E041054861
:10216000FFF730FE032C03D10521034800F06AF885
:102170001CBD000000180240005401407CB504461C
:102180000D462A4884420AD100204FF48271202350
:102190000246CDE900102946204600F075F8244893
:1021A00084420AD100204FF4827120230246CDE9F7
:1021B00000102946204600F067F81E4884420AD1E4
:1021C00000204FF4827120230246CDE900102946F9
:1021D000204600F059F8184884420AD100204FF4F4
:1021E000827120230246CDE900102946204600F0E6
:1021F0004BF8124884420AD100204FF48271202308
:102200000246CDE900102946204600F03DF80C4872
:1022100084420AD100204FF4827120230246CDE986
:1022200000102946204600F02FF87CBD0030014008
:1022300000380040003C00400034014000500140A4
:102240000054014070470246108800F0400008B971
:102250000020704700BF108900F003000028FAD06A
:10226000108900F080000028F5D1918100BF10890D
:1022700000F003000028FAD0108900F08000002848
:10228000F5D19089C0B2E4E72DE9F04385B004466A
:102290000E4615461F46DDE90C896846FEF792FF9B
:1022A0004D4884420BD14D48006840F480504B4962
:1022B00008603046FFF762FE0020ADF80400484891
:1022C00084420DD14548001F006840F480404349D6
:1022D000091F08603046FFF777FE0020ADF80400C4
:1022E000404884420DD13D48001F006840F4004042
:1022F0003A49091F08603046FFF7A6FE0020ADF8F6
:102300000400394884420BD13448006840F400503E
:10231000324908603046FFF7BFFE0020ADF80400E8
:10232000324884420BD12D48006840F480102B497C
:1023300008603046FFF7D6FE0020ADF804002C48B8
:1023400084420BD12548006840F4001023490860FE
:102350003046FFF7F9FE0020ADF80400ADF80C7030
:102360000020ADF80000ADF80E90ADF802804FF4FB
:102370000070ADF80A002DB90020ADF80600ADF8E8
:10238000080019E0012D06D10020ADF8060001205B
:10239000ADF8080010E0022D06D10220ADF80600CD
:1023A0000020ADF8080007E0032D05D10220ADF8AC
:1023B00006000120ADF80800208820F040002080B1
:1023C00069462046FEF7E0FE208840F0400020806D
:1023D00005B0BDE8F0830000003001404438024001
:1023E00000380040003C00400034014000500140F3
:1023F0000054014000B597B001210820FEF720FEEF
:1024000001214804FEF72CFE01214805FEF718FEC5
:102410002020159002208DF8580000208DF85A00D9
:1024200001208DF85B0002208DF8590015A9414864
:10243000FEF736FA4020159002208DF8580015A9B5
:102440003C48FEF72DFA072205213A48FEF770FABC
:10245000072206213748FEF76BFA4FF4E13011905E
:102460000020ADF84800ADF84A00ADF84C00ADF8DA
:1024700050000C20ADF84E0011A92F4800F09CF838
:1024800001212D4800F076F8012240212A4800F071
:102490007DF801228021284800F078F84FF0006094
:1024A00002902548001D03902448049000200590C8
:1024B00001200690002007904FF4806008900020D3
:1024C00009900A900B904FF400300C9000200D9072
:1024D00001200E9000200F90109002A91848FEF7DE
:1024E000CDF801211648FEF7A1F8164804904020C7
:1024F00005901020069002A911481830FEF7BEF88A
:1025000001210F481830FEF791F810208DF80400D3
:1025100000208DF805008DF8060001208DF80700D9
:1025200001A8FEF7C1FB012210210548FEF789F83A
:1025300017B000BD000C024000440040B000002075
:1025400088600240CA01002070B505460E4600248E
:102550000BE0295D064800F099F800BF802104488F
:1025600000F01DF80028F9D0641CB442F1DB70BD06
:102570000044004021B1828942F40052828104E08B
:1025800082894DF6FF731A40828170471AB1838A9F
:102590000B43838202E0838A8B4383827047024627
:1025A0000020B1F5007F00D100BF13880B400BB1B4
:1025B000012000E0002070472DE9FF4705460E4648
:1025C0000024A14600BFA046B08900B100BF2C8AFC
:1025D00024F44054F08804432C82AC8941F20C600E
:1025E0008443B08831890843718908430443AC812E
:1025F000AC8A24F44074B0890443AC826846FEF788
:102600004FFD2048854202D01F48854202D1DDF8A7
:102610000C9001E0DDF80890A88900F4004040B17A
:1026200009EBC90000EB091031684900B0FBF1F774
:1026300007E009EBC90000EB091031688900B0FB25
:10264000F1F76420B7FBF0F004012009642101FBDD
:102650001078A88900F4004040B1322000EBC80097
:10266000B0FBF1F000F00700044308E0322000EB7B
:1026700008106421B0FBF1F000F00F0004432C813E
:10268000BDE8FF870010014000140140C1F30802BB
:102690008280704700BFFEE710B504460BE00021C2
:1026A0000648FFF7A1F800BF0448FEF79EFFB0F50B
:1026B0007A7FF9D3641E002CF1D110BD00180040C0
:1026C00010B5044600210548FFF78EF800BF034807
:1026D000FEF78BFFA042FAD310BD000000180040A7
:1026E0001CB501210220FEF7ABFC01208DF804008F
:1026F0008DF806004FF44060009000208DF8070030
:1027000003208DF8050069460648FEF7C9F84FF426
:1027100080610448FEF73AF94FF400610148FEF782
:1027200035F91CBD0004024070B505464FF48061C8
:102730002448FEF72BF90320FFF7C2FF00261EE016
:102740006006040E4FF400611E48FEF71FF90320D7
:10275000FFF7B6FF4FF480611A48FEF70CF908B195
:1027600044F001040220FFF7ABFF4FF4006115486D
:10277000FEF70AF90520FFF7A3FF701CC6B2082E6A
:10278000DEDB2DB14FF480610E48FEF7FDF804E06A
:102790004FF480610B48FEF7F9F80320FFF790FF34
:1027A0004FF400610748FEF7F1F80520FFF788FFB6
:1027B0004FF400610348FEF7E7F80520FFF780FFBC
:1027C000204670BD0004024010B54FF400610F4870
:1027D000FEF7DCF80320FFF773FF4FF480610B482E
:1027E000FEF7D4F80320FFF76BFF4FF48061074832
:1027F000FEF7CAF80320FFF763FF4FF400610348B8
:10280000FEF7C2F80320FFF75BFF10BD0004024093
:1028100010B54FF480610B48FEF7B6F80320FFF7C0
:102820004FFF4FF400610748FEF7B0F80320FFF7B1
:1028300047FF4FF480610348FEF7A8F80320FFF735
:102840003FFF10BD0004024070B50446002624E09E
:1028500004F0800028B14FF480612448FEF796F818
:1028600004E04FF480612148FEF78EF80320FFF763
:1028700027FF4FF400611D48FEF788F80520FFF799
:102880001FFF4FF400611948FEF77EF80220FFF7A2
:1028900017FF6006040E701CC6B2082ED8DB4FF47A
:1028A00080611248FEF772F80320FFF709FF4FF42A
:1028B00000610E48FEF76AF80320FFF701FF4FF4AE
:1028C00080610A48FEF757F808B1002500E00125AD
:1028D0000220FFF7F5FE4FF400610448FEF754F8BC
:1028E0000520FFF7EDFE284670BD00000004024001
:1028F0001CB56D4800684FF47A72B0FBF2F1481EC7
:10290000B0F1807F00D31BE0481E4FF0E022506101
:1029100050170F22002804DB13071C0E634B1C54B6
:1029200006E013071D0E624B00F00F04241F1D5517
:1029300000BF00204FF0E02290610720106100BF2F
:1029400001210846FEF77CFB01210220FEF778FBFF
:1029500001210420FEF774FB01210820FEF770FB23
:10296000FEF7C8FAFDF7B8FEFFF744FDFEF786FD57
:10297000FEF7EEFCFFF76AFAFEF786F8FEF760F85E
:102980000120FEF74DF84BA0FEF7D9F8FEF7D2F87C
:102990004CA0FEF7D4F800208DF8040001208DF83B
:1029A00006004FF44040009001208DF807000220FF
:1029B0008DF8050069464748FDF772FF0321464838
:1029C000FFF7A6F84FF47A714448FEF70BFF69E071
:1029D0004348006801280CD142480088401C414906
:1029E000088041480088401C3F49088000203C493D
:1029F00008603C4800880A2827D140F26B113B4808
:102A0000FDF7CAFE3A4880ED000A40F26B113948E2
:102A1000FDF7C2FE384880ED000A4FF4BB7137481D
:102A2000FDF7BAFE364880ED000A4FF48041294890
:102A3000FDF7A1FF3349087003212748FFF71EF96E
:102A40003149088000202749088027480088B0F5D0
:102A50007A7F27D14FF6AA702C490880A020887071
:102A60000120C8709FED2A0A10EE100A48609FED01
:102A7000290A10EE100A88609FED270A10EE100A4E
:102A8000C8609FED260A10EE100A086114211F4845
:102A9000FFF75AFDFDF7D4FF21A0FEF750F8002004
:102AA0001149088094E700008400002000E400E061
:102AB00018ED00E053544D33324634303756475406
:102AC000360000004932433A20504131202D205039
:102AD0004132000000040240002001400004004098
:102AE0009C0000200200002004000020000800409C
:102AF00034000020000C00403C0000200004014095
:102B00004C00002010000020120000209C0100203A
:102B100033337341C375964200A08C443333F14183
:102B2000616263640000000021F00042A2F1605283
:102B3000B2F5801F01F0004328BFD2F17F6C0BD9A2
:102B40005FEA001C43EAC20242EB507018BF7047B4
:102B500028BF20F001007047B2F5801FBCBF1846A7
:102B600070474FEA410C1CF5001F02D2084600F0E6
:102B700080BA70B500F024FA00000089FFF7F6BFB4
:102B80004FF00040A0F58000704700002DE9C041E3
:102B900030B4DFF8A0C23CEA111418BF3CEA1314A9
:102BA00000F0EC8081EA03051CEA111444EAD574B4
:102BB00018BF1CEA131500F0C780A4EB05044FF002
:102BC000004545EAC12145EAC32341EA505143EAA1
:102BD000525304F17F74994204F500344FEAC02047
:102BE0004FEAC22208BF904200F09C804FEA136572
:102BF0000FF24016765D4FEA134506FB05F7C7F165
:102C0000807706FB07F74FEAD737A7FB03687642C2
:102C1000C8F58038A7FB06CE38BFA8F1010807FB2E
:102C200008E64FF0000EA6FB028CE6FB03CEDCF1BB
:102C3000000CCEF1004E38BFAEF1010EA6FB0C58D1
:102C40004FF000074FF00005E6FB0E87A1FB08C61A
:102C5000A0FB07CE16EB0E0645F10005E1FB07656C
:102C600015F1E04E7EBFA4F580345FEA46066D4163
:102C700016F1800745F100054FEA17274FEA06666F
:102C800047EA0567A6F1DE46B6F1805F4FEA1525F3
:102C90001FD9384624F0010C05EBC471BCF1FE6F5E
:102CA00001EB0C1102D8F0BCBDE8008124425CBFEE
:102CB00001F5801E9EEAC47F02D4F0BCBDE800810D
:102CC000244238D4F0BCA1F1C041BDE8004100F07D
:102CD000C5B94FEAD22242EA43524FEAD323A7FBB7
:102CE00002864FEAD02040EA415007FB03661EEA05
:102CF0000E0F4FEAD12105FB026658BFA6EB005626
:102D0000B6EB00564FEA520E4EEAC37E18EB0E0E9B
:102D100056EB530EBDD518EB02085E417F1C55F1F2
:102D20000005B6E74FF480154FF000074FF000069E
:102D30004FF00008ADE7F0BC4FF0000001F1C041DA
:102D400001F00041BDE8008111EA0C1F0CEA1315E7
:102D500000D00CE013EA0C1F00F025804FF00000BB
:102D6000F0BC81EA030101F00041BDE80081F0BC44
:102D7000BDE8004181EA030100F070B9F0BCBDE894
:102D8000004170B500F01CF9097EFC3E00F007B868
:102D900081EA03014FF0000001F00041704781EA31
:102DA000030100F05BB9F0BCBDE800414FF000004A
:102DB00021497047FFFDFBF9F7F5F4F2F0EEEDEB7A
:102DC000E9E8E6E4E3E1E0DEDDDBDAD8D7D5D4D329
:102DD000D1D0CFCDCCCBCAC8C7C6C5C4C2C1C0BF75
:102DE000BEBDBCBBBAB9B8B7B6B5B4B3B2B1B0AF7B
:102DF000AEADACABAAA9A8A8A7A6A5A4A3A3A2A15F
:102E0000A09F9F9E9D9C9C9B9A9999989797969519
:102E100095949393929191908F8F8E8E8D8C8C8BB5
:102E20008B8A89898888878786858584848383823D
:102E3000828181800000FF070000F87F10F00042CF
:102E400048BF4042B0FA80F310FA03F10AD0C3F150
:102E50001D0303F580634FEA415002EB035202EB7E
:102E6000D12170474FF0000070470000DFF848C1E3
:102E700070B51CEA111E1EBF1CEA13159EEA0C0F4A
:102E800095EA0C0F00F06F8081EA030423EA4C13EB
:102E90004EEAD47E21EA4C1141F4801143F48013B0
:102EA000AE44A1FB024CA0FB0365AEF17F7E361958
:102EB00055EB0C05A1FB034C4CF10003A0FB021CDD
:102EC00016EB0C06654153F10003094218BF46F0AA
:102ED000010613F4007F0BD14FEA03314FEA0530AE
:102EE000340341EA155140EA16506FF003020AE03C
:102EF0004FEAC3214FEAC520F40241EA555140EAA6
:102F000056506FF0020202EB2E4201EB025585EAA9
:102F1000CE710AD05FEA440C18BF24F0004450F18F
:102F2000000041F1000120EAD47040F2FE7C6245CD
:102F300000D270BDA84214BF4FF080444FF040440F
:102F4000002E08BF0024BEF1806FA8BFA1F1C041D0
:102F5000BDE8704080F282804FF0000001F1C04176
:102F600001F0004170479EEA0C0F0CEA131518BFE0
:102F700095EA0C0F06D04FF0000081EA030E0EF028
:102F8000004170BD00F01CF88900013E00F007B858
:102F900000F009B84FEA430C5FEA5C5C08D081EAB4
:102FA000030100F05BB84FEA410C5FEA5C5CF6D1CC
:102FB0004FF00000014970470000FF070000F87F54
:102FC0000EF1020E2EF0030E5EF8046B364205D4AD
:102FD000012A43EB030515F5001F12D8012841EB28
:102FE000010C1CF5001F0CD80ED14FEAD17C15F551
:102FF000001F0CEB4C0C0CF1020C08BF4CEBD37C0B
:1030000004E04FF0080C01E04FEAD37C0CEB4C05D8
:1030100026FA05F606F00706B6F1040C06D20EEB0A
:10302000860CBDE870404CF0010C6047DFE80CF006
:10303000090B02024FF000414FF00000A1F5002102
:1030400070BD19461046012851EB010418BFD4F594
:10305000001484BF002001F0004170BD0808A0F5F5
:1030600000114FEA310170474FF04070E1EE100A55
:103070007047FF2141EAD050C00570479C300008DE
:10308000000000209C010000C40100080831000875
:103090009C010020B40600002002000801166348CD
:1030A00042C3A040061538020304050312704143D1
:1030B0007A44131103126B021F03847A030A1A0164
:1030C00064C506070809291409121801160A11A077
:1030D0008C011A1AFF01021564071C803E0AD723CF
:1030E0003C120112021204120812100227301B4077
:1030F00040588E408FC2753C5CB37A44400A3F6FA3
:0831000012033ACDCC4C3D0056
:040000050800026984
:00000001FF
