:020000040800F2
:10000000600A002069020008A50E000855090008D2
:10001000990E00083F030008652F0008000000004B
:100020000000000000000000000000006D1A000841
:100030009505000800000000B9130008811B0008A6
:10004000830200088302000883020008830200087C
:10005000830200088302000883020008830200086C
:10006000830200088302000883020008830200085C
:10007000830200088302000883020008830200084C
:100080004503000883020008830200088302000879
:10009000830200088302000883020008830200082C
:1000A000830200088302000883020008830200081C
:1000B000611C000883020008830200088302000814
:1000C00083020008830200088302000883020008FC
:1000D00083020008830200088302000883020008EC
:1000E00083020008830200088302000883020008DC
:1000F00083020008830200088302000883020008CC
:1001000083020008830200088302000883020008BB
:100110008302000883020008D11C00088302000843
:10012000830200088302000883020008830200089B
:10013000830200088302000883020008830200088B
:10014000830200088302000883020008830200087B
:10015000830200088302000883020008830200086B
:10016000830200088302000883020008830200085B
:10017000830200088302000883020008830200084B
:10018000830200088302000800F002F800F05CF827
:100190000AA090E8000C82448344AAF10107DA45E2
:1001A00001D100F051F8AFF2090EBAE80F0013F0D8
:1001B000010F18BFFB1A43F001031847C4410000A8
:1001C000E44100000A444FF0000C10F8013B13F02A
:1001D000070408BF10F8014B1D1108BF10F8015BA0
:1001E000641E05D010F8016B641E01F8016BF9D193
:1001F00013F0080F1EBF10F8014BAD1C0C1B09D1EA
:100200006D1E58BF01F801CBFAD505E014F8016B5B
:1002100001F8016B6D1EF9D59142D6D370470000ED
:100220000023002400250026103A28BF78C1FBD8FF
:10023000520728BF30C148BF0B6070471FB504F09C
:1002400068F81FBD10B510BD00F044F81146FFF767
:10025000F5FF03F021FA00F062F803B4FFF7F2FFB4
:1002600003BC00F065F800000948804709480047D2
:10027000FEE7FEE7FEE7FEE7FEE7FEE7FEE7FEE756
:10028000FEE7FEE704480549054A064B70470000B3
:100290009D1B00088901000860040020600A0020FE
:1002A000600600206006002070477047704710B558
:1002B00000F008F8006810BD10B5044600F002F820
:1002C000046010BD004870470004002000487047DB
:1002D000000400207546FFF7F9FFAE4605006946A9
:1002E000534620F00700854618B020B5FFF7CAFF37
:1002F000BDE820404FF000064FF000074FF0000827
:100300004FF0000B21F00701AC46ACE8C009ACE8A7
:10031000C009ACE8C009ACE8C0098D46704710B50B
:100320000446AFF300802046BDE81040FFF795BFBC
:1003300001491820ABBEFEE726000200704700BF4F
:10034000FEE7000010B54A494A4800F0B5F84A48AF
:1003500000784A4908704A48007847490870494877
:10036000006801280AD1084601784748474A1268C0
:10037000815446480068401C444908604148006870
:10038000012862D13D4800780A285ED13A480078B9
:100390000D285AD13C480078AC2818D13A4840780A
:1003A000012814D13A483849D1F80210016039487F
:1003B0003549D1F80610016037483349D1F80A10A1
:1003C000016036483049D1F80E10016038E02E48FF
:1003D0000078AD2818D12C484078012814D1304835
:1003E0002949D1F8021001602E482749D1F806109A
:1003F00001602D482449D1F80A100160274822499C
:10040000D1F8021001601BE01F480078A12817D125
:100410001D484078012813D124481B498978017070
:10042000002006E022490A18C11C174BC95C117054
:10043000401C1E4909788842F4DB01201D490870E0
:10044000002010490860114908600E48006850B942
:100450000A480078AA2806D107480078FF2802D168
:100460000120084908600121024800F03FF810BD52
:100470000088002088600240FC010020FD0100206F
:10048000EC010020340200202E030020380200205E
:10049000280200202C020020300200200C02002044
:1004A0001C0200202002002024020020ED01002078
:1004B000480300203C0200200246094B9A4201D228
:1004C000084801E00648103801F000531BB1064B04
:1004D0000B40C36002E0044B0B4083607047000098
:1004E00010640240006002407D0F7D0F21B1026860
:1004F00042F00102026003E0026822F001020260A1
:10050000704710B501F080034BB122B1436943F04D
:100510008003436103E0436923F080034361802942
:100520000BD02AB1036801F01E042343036004E0EA
:10053000036801F01E04A343036010BD10B5002240
:100540000268134B1A40CC680B6823434C69234361
:100550008C692343CC6923430C6A23434C6A2343AD
:100560008C6A23434C6B23438C6B23431A430260F6
:10057000426922F00702D1E90B3423431A43426156
:100580000B6943604B6883608B68C36010BD0000DB
:100590003F801CF07047000008B50121042000F0E6
:1005A000E3FF4FF400504310254A114600902548C0
:1005B00000F0EAF802220C21214800F069F9022239
:1005C0000D211F4800F064F947F230511D4801F039
:1005D000B7FD0121082000F0C7FF022001231A4ABD
:1005E00011460090194800F0CFF802220021164869
:1005F00000F04EF902220121134800F049F947F2B8
:100600003051124801F09CFD0121022000F0BCFF96
:10061000802040230E4A114600900E4800F0B4F8A6
:10062000032206210A4800F033F903220721084873
:1006300000F02EF947F23051064801F081FD08BD67
:10064000000C02400008004000000240000C004086
:10065000000802400004014070B52DED108B0546E6
:100660000C46B0EE408A284601F067FC06B2A000B6
:1006700003F061FB41EC1C0BA6F5EA40303803F0B7
:100680005AFB41EC1F0B9FED180B53EC102B03F0A2
:10069000A5FB41EC1E0B9FED160B53EC102B03F04A
:1006A0009DFB41EC1D0B53EC1C2B03F0BDF941EC01
:1006B0001A0B18EE100A03F0BBFD41EC1B0B53ECB8
:1006C0001A2B03F0FDF841EC190B03F0C7F808EE04
:1006D000100A47F23051284601F032FDB0EE480AC8
:1006E000BDEC108B70BD0000000000000000214038
:1006F0001F85EB51B81E094070B52DED0C8B0546DA
:100700000C46284601F019FC06B2A00003F013FBCA
:1007100041EC1A0BA6F5EA413039164A127801FB72
:1007200002F003F008FB41EC1D0B9FED130B53ECA3
:10073000102B03F053FB41EC1C0B9FED110B53EC02
:10074000102B03F04BFB41EC1B0B53EC1A2B03F06B
:100750006BF941EC190B03F081F808EE100A47F22F
:100760003051284601F0ECFCB0EE480ABDEC0C8B91
:1007700070BD000044020020000000000000214085
:100780001F85EB51B81E09402DE9F04186B00746A0
:100790000C4615461E46DDF83080049602208DF882
:1007A000140001208DF8170002208DF8150004A90F
:1007B000204600F025F8CDF8108004A9284600F066
:1007C0001FF80020ADF80C00ADF80600ADF80400ED
:1007D0004FF6FF70029001A9384601F0B3FC0021EA
:1007E000384601F0ADFC00231A460321384601F0DB
:1007F00083FB0121384601F064FB06B0BDE8F081BF
:10080000F0B50A4600210023002400BF3DE0012589
:1008100005FA01F3156805EA03049C4234D1056822
:100820004F000326BE40B543056015794E00B54024
:100830000668354305601579012D02D01579022D22
:1008400016D185684F000326BE40B54385605579B3
:100850004E00B540866835438560456801268E4068
:10086000B5434560456896798E40B6B235434560DC
:10087000C5684F000326BE40B543C560D5794E001C
:10088000B540C6683543C560491C1029BFD3F0BDCB
:10089000F0B5002300244D07ED0E02FA05F3CE104B
:1008A00000F1200555F826504E07F70E0F26BE40E2
:1008B000B543CF1000F1200646F82750CE1000F1C6
:1008C000200555F8265045EA0304CE1000F1200516
:1008D00045F82640F0BD0246002013690B400BB1DD
:1008E000012000E00020704741837047018370477A
:1008F0000AB1018300E04183704700001CB5114834
:10090000007810B9104800781CBD0020044614E09F
:10091000002007E004EB84010C4A1144095C0DF847
:100920000010401C0528F5DB6946094801F074FDFC
:1009300008B9E0B2E8E7601C04463C2CE8DB00BFE5
:10094000E2E70000020000206A0000206F000020A3
:100950003400002000BFFEE72DE9F04107460D46B8
:10096000164602F005FE384602F042FE20B902F0BB
:1009700023FE0020BDE8F081002405E0012002F004
:10098000A7FD2855601CC4B2701EA042F6DC0020F2
:1009900002F09EFD285502F00FFE0120EAE72DE946
:1009A000F04107460D46164602F0E2FD384602F0D9
:1009B0001FFE20B902F000FE0020BDE8F0810024F7
:1009C00009E0285D02F014FE18B902F0F5FD0020E0
:1009D000F3E7601CC4B2B442F3DB02F0EDFD01208A
:1009E000EBE7000010B504461CB101200449C870B3
:1009F00002E000200249C87000F00AF810BD0000B3
:100A00008A02002010B5012000F0C0F810BD0000DF
:100A100010B500240EE00B4800784010094908701A
:100A20000948005D20B10846007840F08000087059
:100A3000601CC4B2082CEEDB012202494E20FFF7F5
:100A4000AEFF10BD920200208A0200203EB50121B7
:100A5000402000F089FD5320ADF800004FF6FF70F4
:100A600001906946224801F06DFB0121204801F008
:100A700028FA322002F0E4FC00F010FA002404E02E
:100A800000201C490855601CC4B2082CF8DBFFF795
:100A9000BFFF002017490870FFF7BAFF0020154973
:100AA0004870FFF7B5FF032000F088F8052002F03A
:100AB000C7FC032000F082F8012002F0C1FC0320F3
:100AC00000F07CF8012002F0BBFC022000F076F878
:100AD000012002F0B5FC282000F058F80C2000F0AE
:100AE00055F80E2000F052F8012000F04FF83EBDFE
:100AF000001800408A02002010B5C02000F046F81F
:100B000010BD10B5044607E0207820B114F8010BA1
:100B100000F08CF800E000E0F6E700BF10BD000038
:100B200008B501201849087148718871C871FFF72C
:100B30006FFF002014490870FFF76AFF0120124977
:100B40004870FFF765FF00BF01200F498870FFF76D
:100B50005FFF012269464F20FFF7FEFE00200A4991
:100B60008870FFF755FF012007498870FFF750FF95
:100B7000002005498870FFF74BFF9DF8000000F04A
:100B800008000028E0D108BD8A02002010B5044604
:100B9000FFF7C6FF002008490870FFF739FF002063
:100BA00005494870FFF734FF201100F007F8204690
:100BB00000F004F810BD00008A02002010B50446C1
:100BC00004F0080018B101201749C87102E00020A4
:100BD0001549C87104F0040018B101201249887148
:100BE00002E000201049887104F0020018B10120D1
:100BF0000D49487102E000200B49487104F00100E2
:100C000018B101200849087102E000200649087166
:100C1000012005498870FFF7FBFE0020024988701B
:100C2000FFF7F6FE10BD00008A02002010B5044652
:100C3000FFF776FF012008490870FFF7E9FE002062
:100C400005494870FFF7E4FE2011FFF7B7FF204683
:100C5000FFF7B4FF10BD00008A02002070B52DED33
:100C6000108BB0EE408A0446002C7DD17E4800688F
:100C700003F0DEFA41EC1C0B7C4890ED000ABFEE5D
:100C8000001AC1EE000A7A4890ED000A20EE800AB0
:100C900010EE105A284603F0CBFA41EC1E0BB0EED2
:100CA0004E0AF0EE6E0A02F077F9B0EE40DAF0EE9E
:100CB00060DA53EC1C2B51EC1D0B03F08FF841EC68
:100CC0001A0B6C48006803F0B3FA41EC1C0B674840
:100CD000D0ED000ABFEE001A81EE200A6448D0ED84
:100CE000000A20EE200A10EE105A284603F0A0FA5F
:100CF00041EC1F0BB0EE4F0AF0EE6F0A02F04CF918
:100D0000B0EE40EAF0EE60EA9FED5B0B53EC102B87
:100D100051EC1E0B03F096F941EC1D0B53EC1C2B10
:100D200003F05CF841EC1B0B53EC1A2B02F0C8FDEE
:100D300041EC190B02F092FD514908604A4890EDD0
:100D4000000A504880ED000A084690ED000A464827
:100D500080ED000A474880ED008A084690ED000AC1
:100D6000BDEC108B70BDFFE7012C7BD146480068BD
:100D700003F05EFA41EC1C0B3C48D0ED000ABFEEDC
:100D8000001A81EE200A3A48D0ED000A20EE200A2F
:100D900010EE105A284603F04BFA41EC1E0BB0EE51
:100DA0004E0AF0EE6E0A02F0F7F8B0EE40DAF0EE1E
:100DB00060DA53EC1C2B51EC1D0B03F00FF841ECE7
:100DC0001A0B3248006803F033FA41EC1C0B274839
:100DD000D0ED000ABFEE001A81EE200A2448D0EDC3
:100DE000000A20EE200A10EE105A284603F020FADE
:100DF00041EC1F0BB0EE4F0AF0EE6F0A02F0CCF898
:100E0000B0EE40EAF0EE60EA9FED1B0B53EC102BC6
:100E100051EC1E0B03F016F941EC1D0B53EC1C2B8F
:100E200002F0DCFF41EC1B0B53EC1A2B02F048FDE7
:100E300041EC190B02F012FD15490860124890EDC3
:100E4000000A144880ED000A084690ED000A0E489A
:100E500080ED000A0D4880ED008A084690ED000AFA
:100E60007EE7FFE700BF7BE770020020580200200A
:100E70005C0200206C020020000000000000F03F37
:100E8000480200207402002064020020600200205A
:100E9000500200206802002000BFFEE710B502F0FB
:100EA000F3FA10BD7047000070B5002100230F2237
:100EB000C4781CB3174C246804F4E064C4F5E064FF
:100EC000C4F30721C1F10404E3B20A4144789C4011
:100ED000E1B28478144021430C07210E0E4C0578B2
:100EE0006155047804F01F050124AC4005786D11AC
:100EF000AD0005F1E025C5F8004109E0047804F0F3
:100F00001F050124AC40054D0678761145F82640B2
:100F100070BD00000CED00E000E400E080E100E0C6
:100F2000B0EE080A244880ED000AB1EE000A80ED18
:100F3000010A9FED220A80ED020A9FED210A80ED51
:100F4000080A9FED200A80ED030A9FED1E0A80ED3E
:100F5000040A9FED1C0A80ED050A9FED1A0A80ED38
:100F6000060A9FED180A80ED070A9FED170A174839
:100F700080ED000A9FED160A80ED010A9FED150A2B
:100F800080ED020A9FED0E0A80ED080A9FED0D0A22
:100F900080ED030A9FED0B0A80ED040A9FED090A1C
:100FA00080ED050A9FED070A80ED060A9FED050A10
:100FB00080ED070A70470000B80300208FC2753C1F
:100FC0000AD7233C000000006F12033BDC03002023
:100FD000CDCC4C3ECDCCCC3D10B52DED068BB0EE3E
:100FE00040AAB0EE608A3C48007828B99FED3B0AE1
:100FF0003B4880ED000A6BE037480078012867D154
:101000009FED380A3AEE400ABDEEC00AF0EE408A83
:10101000354890ED000AF8EEE80A20EE200AF8EED6
:10102000E80A2F4890ED001A70EEC10A2F4890EDA3
:10103000001A01EE200ABDEEC00A10EE104AB8EE0A
:10104000E80A274880ED000A00EE104AB8EEC00A10
:10105000B4EEC80AF1EE10FA04DDBDEEC80A10EED7
:10106000104A10E000EE104AB8EEC00AF1EE480A4D
:10107000B4EEE00AF1EE10FA05D2B1EE480ABDEE88
:10108000C00A10EE104A032094FBF0F000EE100AA4
:10109000B8EEC00AF0EE000A78EE200A30EE200A20
:1010A000BDEEC09A032094FBF0F000EE100AB8EEFB
:1010B000C00A38EE400AFDEEC09AB8EEE90A0020F8
:1010C00000F048FCB8EEC90A012000F043FC00BF64
:1010D000BDEC068B10BD00000100002000000000E8
:1010E000C002002000007A441C02002024020020DC
:1010F00010B52DED0E8BB0EE408AF0EE608A5248AE
:10110000007868B99FED510A514880ED060A9FEDBD
:101110004F0A80ED070A9FED4D0ABDEC0E8B10BD06
:1011200038EE680A4A4880ED030A90ED030AD0EDD4
:10113000040AB0EE001A01EE600AD0ED050A30EEA6
:10114000200A4448D0ED000A20EE200A4048D0EDA5
:10115000080A80EE201A11EE104A204603F068F8C3
:1011600041EC1A0B3A4890ED030AD0ED040A30EE38
:10117000200AD0ED080A384890ED001A60EE810A86
:1011800020EE200A10EE101A084603F051F841EC48
:101190001E0B9FED320B53EC102B02F01FFE41ECA7
:1011A0001C0B2B4890ED030AD0ED040A70EE600A88
:1011B00090ED070A2B4890ED001A01EE200A10EE80
:1011C000101A084603F034F841EC1D0B53EC1C2BAD
:1011D00002F076FB41EC1B0B53EC1A2B02F070FB78
:1011E00041EC190B02F03AFB19498861084690ED71
:1011F000060A80ED070A90ED040A80ED050A90EDDD
:10120000030A80ED040A90ED060ADFED170AB4EE3A
:10121000E00AF1EE10FA04DB9FED130A80ED060AF6
:101220000DE00B4890ED060ADFED100AB4EEE00A7F
:10123000F1EE10FA03D89FED0D0A80ED060A04487E
:1012400090ED060A69E700000100002000000000A0
:10125000B8030020300200202C0200200000000013
:101260000000E03F280200200000C8420000C8C281
:1012700010B50121022000F077F900F00BF89FED86
:10128000030A034800F03CF810BD000000409C46F3
:10129000000400401FB53120029002208DF80C00A0
:1012A00000208DF80E0001208DF80F0003208DF82E
:1012B0000D0002A91148FFF7A3FA022204210F48EA
:1012C000FFF7E6FA022205210C48FFF7E1FA0222B5
:1012D00000210A48FFF7DCFAC220009001208DF8B7
:1012E000040000208DF8060002208DF807008DF81C
:1012F000050069460148FFF783FA1FBD000402405C
:1013000070B52DED028B8CB00546B0EE408A0026FC
:10131000002408A800F048F9099840082549B0FBC6
:10132000F1F0441E0998400800EE100AF8EE400A59
:10133000601C00EE100AB8EE400A20EE081A80EE9B
:10134000810AF7EE000A30EE600ABCEEC00A10EE29
:10135000106A0020ADF81C00ADF81600A0B2ADF880
:101360001400069605A9284600F0ECFE6020ADF8B2
:1013700000000020ADF80C000120ADF802000020B4
:1013800002906946284600F0F5FD6946284600F0BF
:101390002FFE6946284600F07DFE0121284600F018
:1013A0009CFD0121284600F08CFD0CB0BDEC028BA9
:1013B00070BD000080841E00704700001CB58F20A7
:1013C000009000208DF804008DF80700694602485F
:1013D000FFF716FA1CBD0000000C02401CB58F2060
:1013E000009001208DF8040000208DF807000220F5
:1013F0008DF8050069460248FFF702FA1CBD00009F
:10140000000C024070B586B00646002007E04FF49D
:101410007A7103AA22F810102DF81010401C05282C
:10142000F5DBFFF7DBFF01228F211A48FFF760FA97
:101430000025FFF7C3FF0020174908600121164867
:10144000243800F03EFD1FE01348006885B20024F8
:1014500013E0124830F814100E48FFF73CFA58B960
:1014600003A830F81400A84206DD03A820F81450A1
:1014700030F8140026F81400641C052CE9DB012167
:101480000548243800F01DFDB5F57A7FDCDB06B099
:1014900070BD0000000C0240241400407C020020BB
:1014A000FEB504464FF47A7700256846FFF7AAFF99
:1014B00000200CE03DF81010A94201DD3DF810506D
:1014C0003DF81010B94201DA3DF81070401C0528B3
:1014D000F0DBE81B86B200200FE006EBD672A5EB2E
:1014E00062023DF810309A4203DA012124F810100C
:1014F00002E0002124F81010401C0528EDDB00203C
:101500004000A18801EB4102C2EBC11100EBC10018
:10151000E18801EB4102C2EBC11100EB011021890E
:1015200001EB4102C2EBC11100EB01106188A288FE
:101530001144E2881144228911442288114490FB0D
:10154000F1F080B2FEBD000029B1064A12680243E4
:10155000044B1A6004E0034A12688243014B1A608C
:10156000704700003038024029B1064A1268024331
:10157000044B1A6004E0034A12688243014B1A606C
:10158000704700004038024029B1064A1268024301
:10159000044B1A6004E0034A12688243014B1A604C
:1015A0007047000044380240F0B5002100220024BA
:1015B000022500260223324F3F6807F00C0121B1BB
:1015C000042905D0082937D105E02E4F076036E001
:1015D0002D4F076033E02A4F3F1F3F68C7F3805607
:1015E000274F3F1F3F6807F03F036EB1264FB7FB01
:1015F000F3F7DFF88CC0ACF1040CDCF800C0CCF3DE
:10160000881C07FB0CF40CE01E4FB7FBF3F7DFF868
:1016100070C0ACF1040CDCF800C0CCF3881C07FBF4
:101620000CF4174F3F1F3F68C7F301477F1C7D0035
:10163000B4FBF5F7076002E0124F076000BF00BF80
:101640000F4F3F6807F0F0010909104F7A5C0768F7
:10165000D74047600A4F3F6807F4E051890A0B4FB3
:101660007A5C4768D7408760054F3F6807F4604160
:10167000490B064F7A5C4768D740C760F0BD000051
:10168000083802400024F40000127A00DC01002037
:1016900010B50020394908700846007810B90020BC
:1016A000374908709FED370A374880ED000A9FEDF3
:1016B000350A364880ED000A47F23051344800F0D0
:1016C0003FFD47F23051334800F03AFD9FED2D0ABF
:1016D000002000F03FF99FED2B0A012000F03AF9BD
:1016E0004FF4FA7001F0ACFE9FED2B0A002000F0E1
:1016F00031F99FED2A0A012000F02CF918E0224868
:1017000090ED000A40F26B112148FEF7A5FF1E483C
:1017100080ED000A1D4890ED000A40F26B111D4853
:10172000FEF79AFF194880ED000A012001F088FEBB
:10173000154890ED000AF3EE070AB4EEE00AF1EE68
:1017400010FADCD3114890ED000AFBEE070AB4EE64
:10175000E00AF1EE10FAD2DC9FED0A0A002000F058
:10176000F9F89FED080A012000F0F4F8FA2001F0E2
:1017700067FE01200149087010BD00000100002033
:101780000200002000000000BC010020B801002081
:10179000000C00400008004000002CC20000244261
:1017A00070B5FFF7ABF8654908700025022008E026
:1017B0006349095C614A1278914201D1054605E00E
:1017C000401C60490978891E8142F1DC00BF5C49F8
:1017D000681C0C5C4E2C0AD004DC452C7BD0472CBA
:1017E00070D19EE0532C28D0572CF9D14BE05648AD
:1017F0000078452819D04E2804D0532809D05728FE
:1018000019D10CE00120514908704E204E49087052
:1018100011E0FFF73DFF4E204B4908700BE001F04F
:10182000FBF94E204849087005E001F09FF94E2071
:101830004549087000BF00BF7DE043480078452857
:1018400019D04E2804D0532808D0572819D10CE0BD
:10185000FFF71EFF53203C49087012E001203B496E
:1018600008705320384908700BE001F07FF95320CD
:101870003549087005E001F0CFF95320324908706E
:1018800000BF00BF57E03048007845281BD04E28E5
:1018900004D0532808D057281BD10BE001F066F97B
:1018A00057202949087014E001F0B6F9572026495D
:1018B00008700EE001202549087057202249087061
:1018C00007E008E033E0FFF7E3FE57201E49087009
:1018D00000BF00BF2FE01C480078452818D04E28D4
:1018E00004D0532808D0572819D10BE001F094F9FF
:1018F00045201549087012E001F038F945201249D9
:1019000008700CE0FFF7C4FE45200F49087006E0A0
:1019100001200E49087045200B49087000BF00BF28
:1019200009E000F01BF901200949087003E00120DB
:101930000649087000BF00BF70BD00006A000020AB
:10194000E4020020ED0100206C00002001000020D6
:101950000000002070B52DED028B0546B0EE408AE8
:101960009FED290AB4EEC08AF1EE10FA04DB9FED78
:10197000260AB0EE408A0AE09FED240AB4EEC08A3F
:10198000F1EE10FA03D89FED210AB0EE408AB5EED1
:10199000C08AF1EE10FA01DB002406E001249FED7D
:1019A0001A0A38EE000AB0EE408A65B9BCEEC80AE1
:1019B00010EE101A164800F0BDFBE2B240211548A7
:1019C000FEF796FF1CE0012D0CD1BCEEC80A10EE0C
:1019D000101A0F4800F0B0FBE2B280210D48FEF76C
:1019E00087FF0DE0022D0BD1BCEEC80A10EE101AD5
:1019F000074800F0A3FBE2B202210648FEF778FF99
:101A0000BDEC028B70BD00000000C8420000C8C2DF
:101A1000000400400004024010B50022028802F4D5
:101A200041520B884C8823438C882343CC88234322
:101A30000C8923434C8923438C892343CC8923433A
:101A40001A430280838B4FF2FF74234083830B8AF7
:101A5000038210BD0021018041808180C18001810D
:101A600041818181C1810721018270477047000057
:101A70000CB50020019000903448006840F480309C
:101A80003249086000BF3148006800F4003000901F
:101A90000198401C0190009818B90198B0F5A04F2A
:101AA000F1D12A48006800F4003010B10120009004
:101AB00001E0002000900098012846D123484030E2
:101AC000006840F08050214940310860204800689B
:101AD00040F440401E4908601C48083000681B491B
:101AE000083108600846006840F400400860084675
:101AF000006840F4A05008601648091F0860081FDD
:101B0000006840F08070091F086000BF0F4800683F
:101B100000F000700028F9D040F205700E4908600E
:101B20000A480830006820F00300084908310860BE
:101B30000846006840F00200086000BF0348083013
:101B4000006800F00C000828F8D10CBD00380240F5
:101B50000070004008544007003C024010B50020CF
:101B6000054908709FED050AFFF7F4FE9FED030A93
:101B70000120FFF7EFFE10BD010000200000000073
:101B800001200449086004480068401C02490860BC
:101B900070470000D8010020D401002010B515487E
:101BA000006840F47000134908601348006840F072
:101BB00001001149086000200F49083108600E48F3
:101BC00000680E4908400C4908600D48091D08606E
:101BD000081F006820F48020091F086000200649C3
:101BE0000C310860FFF744FF4FF000600149803975
:101BF000086010BD88ED00E000380240FFFFF6FEEF
:101C0000103000241FB501210846FFF7ADFC42F259
:101C1000CF00ADF8040040F2E73002900020ADF8AC
:101C20000C00ADF8060001A94FF0804000F08AFAE0
:101C300001221146900700F094F90121880700F075
:101C400040F91C208DF8000001208DF801008DF86E
:101C500002008DF803006846FFF726F91FBD00005B
:101C600010B50121880700F06BF930B34FF6AA7068
:101C700012490880A02088700120C87010480068B0
:101C800048601048006888600F48008800EE100A1D
:101C9000B8EE400A10EE100AC8609FED0C0A10EE74
:101CA000100A086140F60D2088821621034801F0D1
:101CB000B3F80121880700F001F910BD18030020D6
:101CC00050000020280000205800002000000000E4
:101CD00010B54FF6FE702E49088240F26B112D4868
:101CE000FEF70AFD2C4880ED000A00202A4991EDFC
:101CF000000AFEF7B3FF294880ED000A40F26B119D
:101D00002748FEF7F9FC274880ED000A0120254905
:101D100091ED000AFEF7A2FF234880ED000A4FF480
:101D2000BB712248FEF7E8FC214880ED000A1B4801
:101D300090ED000A1C48D0ED000A30EE200AF0EECB
:101D4000000A80EE201A1B4880ED001AD0ED000A30
:101D5000194890ED000AFFF7CBF9184880ED000A0A
:101D6000D0ED000A1648008800EE100AB8EE400ACE
:101D7000FFF732F93620002807DB00F01F020121AF
:101D80009140104A430942F8231000BF10BD0000E3
:101D900000100040000800403C00002040000020EF
:101DA000000C0040440000204800002000040140D6
:101DB00054000020500000200C02002028000020C9
:101DC0005800002080E200E0362000280DDB00BF34
:101DD00000BF00F01F02012191404209920002F170
:101DE000E022C2F8001100BF00BF00BF2448006815
:101DF00040F0010022490860081D006840F0010021
:101E0000091D08601E480C30006820F001001C49C4
:101E10000C310860081F006840F00100091F0860CD
:101E20001848006840F010001649086016480088FD
:101E300040F00100144908800846008820F00200A4
:101E400008800846008840F00400088008460088A2
:101E500020F0080008800846008820F080000880F4
:101E60000846808940F0010088810846808A40F059
:101E70000100888242F2CF0008856320C862704763
:101E8000003C014040380240001000400EB50121E6
:101E90002020FFF769FBA720ADF800004FF6FF7088
:101EA00001900020ADF80800ADF802006946024834
:101EB00000F048F90EBD000000140040CA43028241
:101EC000704721B1028842F00102028004E00288DA
:101ED0004FF6FE731A400280704731B1B0F84420CB
:101EE00042F40042A0F8442005E0B0F84420C2F3D8
:101EF0000E02A0F844207047F0B50C4615461E4669
:101F00000021002200230189028B038C4FF6F87711
:101F1000394021434FF6FC473A4040F201173A431B
:101F20004FF6DD773B404FF6FF7707EA06172F4362
:101F30003B43018102830384F0BD0146486A704738
:101F400030B50246002000230024158A05EA01036B
:101F5000958905EA010413B10CB1012000E00020CD
:101F600030BD1AB183890B43838102E083898B439F
:101F70008381704770B5002400220023058C4FF642
:101F8000FE7635400584028C8388048B4FF68F756E
:101F90002C40B51E2C400D882C43751E2A408D897F
:101FA0002A434D882A43104DA84202D00F4DA84223
:101FB00013D14FF6F7752A40CD892A434FF6FB75AA
:101FC0002A408D882A434FF6FF652B404FF6FF5578
:101FD0002B400D8A2B434D8A2B43838004838D68CD
:101FE0004563028470BD0000000001400004014010
:101FF00070B5002400220023058C4FF6EF763540A3
:102000000584028C8388048B48F6FF752C404FF6BC
:10201000FF452C400D884FF6FF7606EA05252C4338
:102020004FF6DF752A408D8906EA05152A434D884B
:1020300006EA05152A43154DA84202D0144DA842C0
:102040001DD14FF67F752A40CD894FF6FF7606EAFF
:1020500005152A434FF6BF752A408D8806EA0515F7
:102060002A434FF6FF352B404FF2FF752B400D8A68
:1020700006EA85052B434D8A06EA85052B438380B6
:1020800004838D688563028470BD000000000140F8
:102090000004014070B5002400220023058C4FF697
:1020A000FF6635400584028C8388848B4FF68F75DC
:1020B0002C404FF6FC752C400D882C434FF6FF55F5
:1020C0002A408D894FF6FF7606EA05252A434D887A
:1020D00006EA05252A43154DA84202D0144DA84210
:1020E0001DD14FF2FF752A40CD894FF6FF7606EAE3
:1020F00005252A434FF6FF352A408D8806EA052537
:102100002A434EF6FF752B404DF6FF752B400D8A86
:1021100006EA05152B434D8A06EA05152B438380F5
:1021200084838D68C563028470BD00000000014097
:10213000000401404163704781637047C163704789
:102140004162704700220288184B98420ED0184B0B
:1021500098420BD0B0F1804F08D0164B984205D072
:10216000154B984202D0154B984204D14FF68F730D
:102170001A404B881A43124B984207D0114B984291
:1021800004D04FF6FF431A400B891A4302804B6874
:10219000C3620B880385054B984202D0044B9842DA
:1021A00001D18B7A038601238382704700000140AE
:1021B000000401400004004000080040000C004002
:1021C000001000400014004001464FF40030081A8F
:1021D000C0F38F207047000000B502461046FFF79D
:1021E000F3FF012101FA00F002490968084301499F
:1021F000086000BD303802402DE9F04304460E4629
:102200001546DDE907892046FFF7DEFFC7B2002249
:1022100043E001209040304000B93CE0214830F8D4
:1022200017000121914008431E4921F81700E0687A
:102230004FEA420C032101FA0CF18843510008FADD
:1022400001F10843E06020684FEA420C032101FAE3
:102250000CF18843510005FA01F108432060012D7B
:1022600001D0022D16D161680120904080B221EA90
:10227000000003FA02F189B208436060A0684FEAE7
:10228000420C032101FA0CF18843510009FA01F1D3
:102290000843A06000BF501CC2B2102AB9DBBDE8E1
:1022A000F08300007C0300202DE9FC4705460E4624
:1022B00017469846DDE90A9A0EB9BDE8FC8728461C
:1022C000FFF78AFF00241AE00120A040304000B947
:1022D00014E0E10805F1200050F821006107CA0E62
:1022E0000F21914088436107C90E0AFA01F10843A2
:1022F000E20805F1200141F8220000BF641C102C07
:10230000E2D33B46022231462846CDE90089FFF759
:1023100073FF00BFD1E710B5142000F0EFF80446BA
:1023200004F0030018B90321142000F024F910BDB3
:102330002DE9FC410446002700210D2000F0BEF9E4
:10234000932020702020607001A82346022221469D
:1023500000900C2000F01CF906465EB9002503E051
:10236000605D4740681CC5B2042DF9DB605DB84272
:1023700000D002263046BDE8FC812DE9F041074639
:10238000884615460421052000F039F880210A20EE
:1023900000F0F1F8002405E0395D092000F08EF925
:1023A000601CC4B24445F7DB0321012000F086F92C
:1023B000FF2400BF052000F0A1F80646601EC4B24D
:1023C0001CB106F004000028F4D0222000F096F89A
:1023D0002870212000F092F86870BDE8F08170B597
:1023E00004462146262000F0A7F805461DB92046E0
:1023F000FFF79EFF054600F020F8284670BD70B537
:1024000005460C46284600F079F820EA04063146D5
:10241000284600F053F970BD10B502460B46002166
:1024200007E0505C5C5CA04201D0022010BD481C5B
:10243000C1B20529F5DB0020F8E70EB550208DF874
:10244000040000208DF805000DF10602022101A80C
:10245000FFF793FF02A801AB042201A900900C2012
:1024600000F096F80EBD000010B500F027F801212D
:10247000114800F03FFA00F078F88D212A2000F092
:102480001DF93E212B2000F019F91E212D2000F00E
:1024900015F900212C2000F011F97021262000F000
:1024A0000DF94021152000F009F93D21112000F01F
:1024B00005F9FFF730FF10BD003C00401CB50121BD
:1024C0000420FFF741F802208DF8050001208DF867
:1024D000040000208DF806008DF807004FF400700E
:1024E000009069460448FEF78BF94FF400700249EA
:1024F000183108801CBD00000008024070B5044679
:102500004FF400700A4908807E2000EA440040F041
:102510008001084800F053FA0021064800F04FFA05
:1025200005464FF400700249891E0880284670BD98
:102530001A080240003C00407CB506460C460721C4
:102540000D2000F0BBF8267001A823460122214689
:1025500000900C2000F01CF805461DB9BDF80400E1
:10256000102800D0022528467CBD10B50F2101207F
:1025700000F0A4F810BD70B505460C462846FFF7DC
:10258000BDFF40EA04063146284600F097F870BDCA
:102590002DE9FE4F0646884691469A46DDF830B052
:1025A000022002900020019000900C2E06D00E2EEA
:1025B00009D1122001901020009005E077200190B1
:1025C0003020009000E000BF00BF019840F0800183
:1025D000022000F073F880210420FFF710FF802113
:1025E0000A20FFF7C8FF0021012000F067F800254E
:1025F00006E018F80510092000F060F8681C85B2A4
:102600004D45F6DB3146012000F058F80C2E03D181
:1026100080210D20FFF7AFFF4FF4FA6500BF0420C3
:10262000FFF76CFF0446681E85B235B104F0010067
:1026300018B9009820400028F1D080210D20FFF724
:10264000DEFE002D36D00620FFF758FF00F01B00FD
:1026500070BB002002900198204000F0010008B1FA
:10266000012002900C2E25D10A20FFF747FF0446D7
:102670000C20FFF743FF00F007072FB1601E07EBA8
:10268000C000ABF8000002E0E000ABF8000004B9C5
:102690000124102C00DD1024002506E00920FFF79E
:1026A0002DFF0AF80500681C85B2A542F6DB01E0A3
:1026B000022002900298BDE8FE8F000070B504462B
:1026C0000D464FF40070094908807E2000EA44015D
:1026D000074800F074F92946054800F070F94FF4F6
:1026E00000700249891E088070BD00001A0802406F
:1026F000003C00401CB504464CB9052003210023D2
:102700001A46CDE90010E0210A48FFF7CDFD012C63
:1027100009D10520032100231A46CDE900103821F4
:102720000548FFF7C1FD032C03D10521034800F044
:1027300045F91CBD00000240000402400030014089
:102740001CB50446A4B90520032100231A46CDE98F
:1027500000104FF480611648FFF7A6FD0520032105
:1027600000231A46CDE900100C211248FFF79CFD0A
:10277000012C0AD10520032100231A46CDE90010BF
:102780004FF460410A48FFF78FFD022C09D1052064
:10279000032100231A46CDE900100D210648FFF75A
:1027A00083FD032C03D10521044800F007F91CBD6B
:1027B00000040240000802400020024000380040AF
:1027C0001CB504464CB90620032100231A46CDE966
:1027D000001038210B48FFF767FD012C0AD10620B5
:1027E000032100231A46CDE900104FF4E0510648BA
:1027F000FFF75AFD032C03D10621044800F0DEF850
:102800001CBD00000004024000080240003C0040E3
:102810001CB504464CB90520032100231A46CDE916
:10282000001064210B48FFF73FFD012C0AD1052061
:10283000032100231A46CDE900104FF4E04105487A
:10284000FFF732FD032C03D10521034800F0B6F851
:102850001CBD000000100240003401401CB50446BD
:1028600054B90520032100231A46CDE900104FF486
:1028700060711048FFF718FD012C13D105200321CA
:1028800000231A46CDE90010E1020A48FFF70CFDCB
:102890000520032100231A46CDE90010C021064877
:1028A000FFF702FD032C03D10521044800F086F850
:1028B0001CBD000000140240001C024000500140FA
:1028C0001CB5044654B90520032100231A46CDE95E
:1028D00000104FF4E0410548FFF7E6FC032C03D15C
:1028E0000521034800F06AF81CBD000000180240F2
:1028F000005401407CB504460D462A4884420AD162
:1029000000204FF4827120230246CDE900102946B1
:10291000204600F075F8244884420AD100204FF484
:10292000827120230246CDE900102946204600F09E
:1029300067F81E4884420AD100204FF48271202398
:102940000246CDE900102946204600F059F8184803
:1029500084420AD100204FF4827120230246CDE93F
:1029600000102946204600F04BF8124884420AD154
:1029700000204FF4827120230246CDE90010294641
:10298000204600F03DF80C4884420AD100204FF464
:10299000827120230246CDE900102946204600F02E
:1029A0002FF87CBD0030014000380040003C004062
:1029B000003401400050014000540140704702467D
:1029C000108800F0400008B90020704700BF10894F
:1029D00000F003000028FAD0108900F080000028E1
:1029E000F5D1918100BF108900F003000028FAD0D2
:1029F000108900F080000028F5D19089C0B2E4E78A
:102A00002DE9F04385B004460E4615461F46DDE924
:102A10000C896846FFF71EF84D4884420BD14D489B
:102A2000006840F480504B4908603046FFF762FE72
:102A30000020ADF80400484884420DD14548001FED
:102A4000006840F480404349091F08603046FFF7A2
:102A500077FE0020ADF80400404884420DD13D4887
:102A6000001F006840F400403A49091F08603046E2
:102A7000FFF7A6FE0020ADF80400394884420BD1D0
:102A80003448006840F40050324908603046FFF78F
:102A9000BFFE0020ADF80400324884420BD12D481F
:102AA000006840F480102B4908603046FFF7D6FEDE
:102AB0000020ADF804002C4884420BD12548006862
:102AC00040F40010234908603046FFF7F9FE00206B
:102AD000ADF80400ADF80C700020ADF80000ADF8C2
:102AE0000E90ADF802804FF40070ADF80A002DB9D9
:102AF0000020ADF80600ADF8080019E0012D06D160
:102B00000020ADF806000120ADF8080010E0022D0D
:102B100006D10220ADF806000020ADF8080007E05D
:102B2000032D05D10220ADF806000120ADF8080004
:102B3000208820F04000208069462046FEF76CFF88
:102B4000208840F04000208005B0BDE8F083000000
:102B5000003001404438024000380040003C004052
:102B600000340140005001400054014010B50020E5
:102B7000234908700846007810B9002021490870E0
:102B80009FED210A0020FEF7E5FE9FED1F0A0120C0
:102B9000FEF7E0FEFA2000F053FC9FED1B0A002038
:102BA000FEF7D8FE9FED190A0120FEF7D3FE4FF481
:102BB0007A7000F045FC1648FEF772FC1549088053
:102BC0000EE01348FEF76CFC124908809FED0E0AD8
:102BD0000020FEF7BFFE9FED0D0A0120FEF7BAFEB2
:102BE0000C48008840F28A218842EADB09480088C4
:102BF00040F246518842E4DC01200149087010BDD2
:102C000001000020020000200000000000003C4203
:102C10000E0300205800002010B500202349087042
:102C20000846007810B90020214908709FED210A5C
:102C30000020FEF78FFE9FED1F0A0120FEF78AFE9F
:102C4000FA2000F0FDFB9FED1C0A0020FEF782FE3B
:102C50009FED180A0120FEF77DFE4FF47A7000F018
:102C6000EFFB1648FEF71CFC154908800EE01348E0
:102C7000FEF716FC124908809FED0F0A0020FEF7B0
:102C800069FE9FED0C0A0120FEF764FE0C480088E7
:102C900040F28A218842EADB0948008840F2465126
:102CA0008842E4DC01200149087010BD01000020C9
:102CB0000200002000000000000034420E0300204B
:102CC0005800002000B597B001210820FEF73CFC19
:102CD00001214804FEF748FC01214805FEF734FCB9
:102CE0002020159002208DF8580000208DF85A0001
:102CF00001208DF85B0002208DF8590015A941488C
:102D0000FDF77EFD4020159002208DF8580015A992
:102D10003C48FDF775FD072205213A48FDF7B8FD4F
:102D2000072206213748FDF7B3FD4FF4E13011903B
:102D30000020ADF84800ADF84A00ADF84C00ADF801
:102D400050000C20ADF84E0011A92F4800F09CF85F
:102D500001212D4800F076F8012240212A4800F098
:102D60007DF801228021284800F078F84FF00060BB
:102D700002902548001D03902448049000200590EF
:102D800001200690002007904FF4806008900020FA
:102D900009900A900B904FF400300C9000200D9099
:102DA00001200E9000200F90109002A91848FDF706
:102DB000C5FB01211648FDF799FB164804904020F9
:102DC00005901620069002A911481830FDF7B6FBB1
:102DD00001210F481830FDF789FB10208DF8040001
:102DE00000208DF805008DF8060001208DF8070001
:102DF00001A8FEF759F8012210210548FDF781FBD3
:102E000017B000BD000C024000440040EC0100205F
:102E1000886002406603002070B505460E46002417
:102E20000BE0295D064800F099F800BF80210448B6
:102E300000F01DF80028F9D0641CB442F1DB70BD2D
:102E40000044004021B1828942F40052828104E0B2
:102E500082894DF6FF731A40828170471AB1838AC6
:102E60000B43838202E0838A8B438382704702464E
:102E70000020B1F5007F00D100BF13880B400BB1DB
:102E8000012000E0002070472DE9FF4705460E466F
:102E90000024A14600BFA046B08900B100BF2C8A23
:102EA00024F44054F08804432C82AC8941F20C6035
:102EB0008443B08831890843718908430443AC8155
:102EC000AC8A24F44074B0890443AC826846FEF7AF
:102ED0006BFB2048854202D01F48854202D1DDF8B5
:102EE0000C9001E0DDF80890A88900F4004040B1A2
:102EF00009EBC90000EB091031684900B0FBF1F79C
:102F000007E009EBC90000EB091031688900B0FB4C
:102F1000F1F76420B7FBF0F004012009642101FB04
:102F20001078A88900F4004040B1322000EBC800BE
:102F3000B0FBF1F000F00700044308E0322000EBA2
:102F400008106421B0FBF1F000F00F0004432C8165
:102F5000BDE8FF870010014000140140C1F30802E2
:102F60008280704700BFFEE703B4019841000098DB
:102F700050EAC12018BF04204A0D18BF40F00100DC
:102F800040F2FF72B2EB515F08BF40F0020001282F
:102F900008BF052002B0704770B52DED020B2DED76
:102FA0000A8B82B00D98C40F20F00045AE488542D0
:102FB00048D3AE48854219D30C99C5F31300084392
:102FC00009D09DED0C0B02B0BDEC0A8B02B0BDE840
:102FD000704000F009BA002C14BF9FEDA50B9DEDC9
:102FE0000C0B02B0BDEC0A8B02B070BD9FEDA20BC2
:102FF00053EC102B9DED0C0B51EC100B00F0ECFF83
:103000000AD20220FDF758F902B0BDEC0A8B02B0DB
:10301000BDE8704000F0F4B99FED990B53EC102B14
:103020009DED0C0B51EC100B00F09CFE0AD202201F
:10303000FDF742F902B0BDEC0A8B02B0BDE870406A
:1030400000F0EEB990489FED92BBA8425CD2924846
:10305000854219D29148784400EBC40090ED000BF2
:1030600053EC102B9DED0C0B51EC100B00F0F6FF08
:1030700041EC1A0B8A48784400EBC40090ED009BA9
:10308000C4F10100041B36E09FED870B53EC102BBD
:103090009DED0C0B51EC100B00F0A0FE41EC100B61
:1030A0008348784400EBC40090ED001B51EC100BFA
:1030B00053EC112B00F004FC00F00EFE044600F06F
:1030C0003AFE41EC180B9FED7C0B53EC102B00F0FB
:1030D00085FE9DED0C1B53EC112B00F0B3FF41EC72
:1030E0001A0B9FED770B51EC180B53EC102B00F0E3
:1030F00075FE41EC190B51EC1A0B53EC192B00F037
:10310000ADFFCDE90C011BE06F48854217D29FED62
:10311000700B53EC102B9DED0C0B51EC100B00F0D1
:10312000CFFB53EC1B2B00F057FF08D29DED0C0B8F
:1031300053EC1B2B51EC100B00F0C2FB6EE0002493
:103140009DED0C0B53EC102B51EC100B00F046FED8
:1031500041EC180B60480521B0EE480AF0EE680A11
:10316000784400F0C5F853EC182B51EC100B00F02C
:1031700035FE9DED0C1B53EC112B00F063FF41EC71
:10318000180B9FED570B5CB353EC182B51EC100B45
:1031900000F064FF9DED0C0B41EC1C0B53EC182B65
:1031A00051EC100B00F01AFE53EC1C2B00F03CFC11
:1031B00053EC192B00F046FF53EC1A2B00F04EFF96
:1031C00053EC1B2B00F03EFFCDE900016FF47F7044
:1031D000844226DB01EB045001909DED000B00E7DB
:1031E00053EC102B51EC180B00F038FF9DED0C0B3D
:1031F00041EC190B53EC182B51EC100B00F0EEFDC9
:1032000053EC192B00F010FC9DED0C1B53EC112B13
:1032100000F024FF53EC1B2B00F014FF41EC100BCB
:10322000DFE608464FF07A5101EB04519FED2E0B7B
:10323000084453EC102B01909DED000B51EC100B4A
:1032400000F0CCFD0D4645EC100B044651EC100B84
:10325000FFF78AFE042808BF00F0E2F845EC104BA7
:10326000BFE6000000000000422E86400000F07F14
:103270000000000000000000EF39FAFE422E8640F8
:1032800051302DD5104987C0422ED63F0000000096
:10329000000000000000F03FB2A2F03FDE1200008C
:1032A000CE12000000000000FE822B654715F73F9C
:1032B00082120000000000000000E0FE422EE63F07
:1032C000763C7935EF39EA3D0000303E00000000E1
:1032D0009C7500883CE4377EF4110000000000007B
:1032E000000000000000004000000000000070012D
:1032F00070B504462DED028B4D1E00EBC500B0EEFF
:10330000408AF0EE608A90ED000B35F0060017D091
:1033100053EC182B51EC100B00F060FD41EC100B3E
:103320006D1E04EBC50090ED001B51EC100B53EC2F
:10333000112B00F0C5FA41EC100B35F00600E7D177
:10334000022D36D0042D1CD0062D1CBFBDEC028BE7
:1033500070BD53EC182B51EC100B00F03FFD94EDB9
:103360000A1B53EC112B00F0ABFA53EC182B00F0B6
:1033700035FD94ED081B53EC112B00F0A1FA41EC44
:10338000100B53EC182B51EC100B00F027FD94EDB3
:10339000061B53EC112B00F093FA53EC182B00F0A2
:1033A0001DFD94ED040B53EC102B00F089FA41EC59
:1033B000100B53EC182B51EC100B00F00FFD94ED9B
:1033C000021B53EC112B00F07BFA53EC182B00F08E
:1033D00005FD94ED001B53EC112B00F071FABDECD0
:1033E000028B41EC100B70BD10B553EC102B51EC5F
:1033F000100B00F065FA41EC100B10BD000000004E
:103400009FED050B10B553EC102B51EC100B00F099
:10341000E5FC41EC100B10BD000000000000007046
:103420009FED050B10B553EC102B51EC100B00F079
:10343000D5FC41EC100B10BD000000000000001096
:1034400010B504460BE000210648FEF779FE00BFE8
:103450000448FEF772FDB0F57A7FF9D3641E002CA4
:10346000F1D110BD0018004010B5044600210548F8
:10347000FEF766FE00BF0348FEF75FFDA042FAD3E9
:1034800010BD0000001800401CB501210220FEF70D
:103490005BF801208DF804008DF806004FF44060C1
:1034A000009000208DF8070003208DF80500694684
:1034B0000648FDF7A5F94FF480610448FDF716FAB8
:1034C0004FF400610148FDF711FA1CBD00040240F1
:1034D00070B505464FF480612448FDF707FA0320D4
:1034E000FFF7C2FF00261EE06006040E4FF40061E5
:1034F0001E48FDF7FBF90320FFF7B6FF4FF480618C
:103500001A48FDF7E8F908B144F001040220FFF77A
:10351000ABFF4FF400611548FDF7E6F90520FFF712
:10352000A3FF701CC6B2082EDEDB2DB14FF4806104
:103530000E48FDF7D9F904E04FF480610B48FDF720
:10354000D5F90320FFF790FF4FF400610748FDF71E
:10355000CDF90520FFF788FF4FF400610348FDF720
:10356000C3F90520FFF780FF204670BD000402402C
:1035700010B54FF400610F48FDF7B8F90320FFF7CD
:1035800073FF4FF480610B48FDF7B0F90320FFF79C
:103590006BFF4FF480610748FDF7A6F90320FFF7A2
:1035A00063FF4FF400610348FDF79EF90320FFF726
:1035B0005BFF10BD0004024010B54FF480610B4862
:1035C000FDF792F90320FFF74FFF4FF40061074822
:1035D000FDF78CF90320FFF747FF4FF480610348A4
:1035E000FDF784F90320FFF73FFF10BD0004024000
:1035F00070B50446002624E004F0800028B14FF4A2
:1036000080612448FDF772F904E04FF4806121489D
:10361000FDF76AF90320FFF727FF4FF400611D480B
:10362000FDF764F90520FFF71FFF4FF4006119480B
:10363000FDF75AF90220FFF717FF6006040E701C11
:10364000C6B2082ED8DB4FF480611248FDF74EF960
:103650000320FFF709FF4FF400610E48FDF746F91C
:103660000320FFF701FF4FF480610A48FDF733F9AB
:1036700008B1002500E001250220FFF7F5FE4FF418
:1036800000610448FDF730F90520FFF7EDFE2846FC
:1036900070BD0000000402401CB5594800684FF49A
:1036A0007A72B0FBF2F1481EB0F1807F00D31BE0CC
:1036B000481E4FF0E022506150170F22002804DB13
:1036C00013071C0E4F4B1C5406E013071D0E4E4BE8
:1036D00000F00F04241F1D5500BF00204FF0E02212
:1036E00090610720106100BF01210846FDF72CFF03
:1036F00001210220FDF728FF01210420FDF724FF0E
:1037000001210820FDF720FFFDF7B2FDFCF744FF83
:10371000FDF706FCFEF7BAFBFFF7D4FAFEF754FB01
:10372000FEF770FAFEF7A0FEFDF790F9FDF76AF9D3
:103730000120FDF757F935A0FDF7E3F9FDF7DCF9B6
:1037400036A0FDF7DEF900208DF8040001208DF889
:1037500006004FF44040009001208DF80700022041
:103760008DF8050069463148FDF74AF847E03048D2
:103770000068012834D12F48FDF792FE2E490880B9
:103780002E480078012811D12D48007801280DD14C
:10379000002004E02B49095C2B4A1154401C1E28D0
:1037A000F8DB002026490870244908702748FEF7F6
:1037B00016FE28B9012026490870FDF7F1FF02E046
:1037C00000202349087023480088401C21490880B4
:1037D00021480088401C20490880002014490860C6
:1037E0001D4800880A2802D100201B49088019487A
:1037F0000088B0F57A7F02D1002016490880B6E72C
:10380000C001002000E400E018ED00E053544D3307
:103810003246343037564754360000004932433A76
:1038200020504131202D2050413200000004024040
:10383000D80100200E0300205800002000000020C6
:103840003C02002048030020E40200203400002055
:1038500002000020060000200400002021F00042A9
:10386000A2F16052B2F5801F01F0004328BFD2F1EF
:103870007F6C0BD95FEA001C43EAC20242EB507036
:1038800018BF704728BF20F001007047B2F5801FB5
:10389000BCBF184670474FEA410C1CF5001F02D20E
:1038A000084600F03BBD70B500F042FB0000008907
:1038B000FFF7F6BF4FF00040A0F580007047000012
:1038C00010B591EA030F48BF83F0004300F1CE83A7
:1038D000841A71EB030C05D2121943EB0C03001B85
:1038E00061EB0C01DFF824E14FEA1154A4EB135C07
:1038F0001EEA430F18BF9EEA445F73D023EA0E030B
:10390000DCF1200E21EA045143F4801332D322FA71
:103910000CFE10EB0E0023FA0CFE41EB0E01CCF175
:10392000200E03FA0EFE10EB0E0051F10001B1F56E
:10393000801FCCF1200E32D201EB045112FA0EF2AC
:10394000BDE8104058BF7047401C38BF5FEA4202D4
:1039500018BF7047002814BF20F0010041F100019A
:103960004FEA410313F5001F38BF7047A1F1C04172
:1039700000F02CBB012A43EB0302ACF1200CDCF17C
:103980001F0E32BF4FF0000E23FA0CF310EB0300B2
:1039900041EB0451B4EB115FD0D0A1EB045101F520
:1039A000801149085FEA300001EB04510ED350F159
:1039B000000038BF12FA0EFE08D1BDE81040C9E77A
:1039C000401C38BF5FEA4202CAD1C3E7BDE81040DD
:1039D0004FEA410313F5001F38BF7047A1F1C04102
:1039E00000F0F4BA9EEA445F08D011EA5E0FBDE829
:1039F000104004BF01F0004100207047BDE81040B6
:103A000070B500F095FA00BF64FBBE3E0000E0FF19
:103A1000491058BFC1F140415B1058BFC3F140434A
:103A20008B42EFF3008070472DE9C04130B4DFF8DE
:103A3000A0C23CEA111418BF3CEA131400F0EC8059
:103A400081EA03051CEA111444EAD57418BF1CEA84
:103A5000131500F0C780A4EB05044FF0004545EABC
:103A6000C12145EAC32341EA505143EA525304F1CC
:103A70007F74994204F500344FEAC0204FEAC22215
:103A800008BF904200F09C804FEA13650FF2401689
:103A9000765D4FEA134506FB05F7C7F1807706FB15
:103AA00007F74FEAD737A7FB03687642C8F5803897
:103AB000A7FB06CE38BFA8F1010807FB08E64FF0C8
:103AC000000EA6FB028CE6FB03CEDCF1000CCEF16F
:103AD000004E38BFAEF1010EA6FB0C584FF00007A8
:103AE0004FF00005E6FB0E87A1FB08C6A0FB07CE42
:103AF00016EB0E0645F10005E1FB076515F1E04EFA
:103B00007EBFA4F580345FEA46066D4116F180075A
:103B100045F100054FEA17274FEA066647EA0567B1
:103B2000A6F1DE46B6F1805F4FEA15251FD938466B
:103B300024F0010C05EBC471BCF1FE6F01EB0C111C
:103B400002D8F0BCBDE8008124425CBF01F5801EB4
:103B50009EEAC47F02D4F0BCBDE80081244238D480
:103B6000F0BCA1F1C041BDE8004100F02FBA4FEA1E
:103B7000D22242EA43524FEAD323A7FB02864FEAFE
:103B8000D02040EA415007FB03661EEA0E0F4FEAC1
:103B9000D12105FB026658BFA6EB0056B6EB0056D6
:103BA0004FEA520E4EEAC37E18EB0E0E56EB530E42
:103BB000BDD518EB02085E417F1C55F10005B6E744
:103BC0004FF480154FF000074FF000064FF000084B
:103BD000ADE7F0BC4FF0000001F1C04101F0004141
:103BE000BDE8008111EA0C1F0CEA131500D00CE0AF
:103BF00013EA0C1F00F025804FF00000F0BC81EAB2
:103C0000030101F00041BDE80081F0BCBDE80041C6
:103C100081EA030100F0DAB9F0BCBDE8004170B5FB
:103C200000F086F9097EFC3E00F007B881EA030146
:103C30004FF0000001F00041704781EA030100F0FD
:103C4000C5B9F0BCBDE800414FF000002149704704
:103C5000FFFDFBF9F7F5F4F2F0EEEDEBE9E8E6E451
:103C6000E3E1E0DEDDDBDAD8D7D5D4D3D1D0CFCDD8
:103C7000CCCBCAC8C7C6C5C4C2C1C0BFBEBDBCBB11
:103C8000BAB9B8B7B6B5B4B3B2B1B0AFAEADACAB0C
:103C9000AAA9A8A8A7A6A5A4A3A3A2A1A09F9F9EE6
:103CA0009D9C9C9B9A999998979796959594939398
:103CB000929191908F8F8E8E8D8C8C8B8B8A89892F
:103CC00088888787868585848483838282818180B2
:103CD0000000FF070000F87F4FEA41034FEA53530B
:103CE000A3F58063D3F11E03C8BFD3F1210C0CDD13
:103CF0004FF0004242EAC12242EA505232FA03FC3B
:103D00008CEAE17CACEBE1707047102BC4BF002063
:103D1000704703F5787CBCF1FF3F04D06FF00042A0
:103D200082EA2100704770B500F002F949922480C0
:103D300000207047F2E710F0004248BF4042B0FA5E
:103D400080F310FA03F10AD0C3F11D0303F5806379
:103D50004FEA415002EB035202EBD12170474FF082
:103D60000000704751EA030C17D41CF5801F58BFA0
:103D7000BCF5801F00F10680994218BF704708BF4C
:103D80009042704707D711F5801F58BF13F5801F69
:103D900019D499427047894270471CF5801F08D595
:103DA000BCF5801FF7D58B4218BF704708BF824211
:103DB00070474FF4001C1CEB410F38BF1CEB430F46
:103DC00001D28B42704770B500F0B2F892244900DE
:103DD0004FF000514FF08053FFF71ABEDFF848C193
:103DE00070B51CEA111E1EBF1CEA13159EEA0C0FCB
:103DF00095EA0C0F00F06F8081EA030423EA4C136C
:103E00004EEAD47E21EA4C1141F4801143F4801330
:103E1000AE44A1FB024CA0FB0365AEF17F7E3619D8
:103E200055EB0C05A1FB034C4CF10003A0FB021C5D
:103E300016EB0C06654153F10003094218BF46F02A
:103E4000010613F4007F0BD14FEA03314FEA05302E
:103E5000340341EA155140EA16506FF003020AE0BC
:103E60004FEAC3214FEAC520F40241EA555140EA26
:103E700056506FF0020202EB2E4201EB025585EA2A
:103E8000CE710AD05FEA440C18BF24F0004450F110
:103E9000000041F1000120EAD47040F2FE7C62454E
:103EA00000D270BDA84214BF4FF080444FF0404490
:103EB000002E08BF0024BEF1806FA8BFA1F1C04151
:103EC000BDE8704080F282804FF0000001F1C041F7
:103ED00001F0004170479EEA0C0F0CEA131518BF61
:103EE00095EA0C0F06D04FF0000081EA030E0EF0A9
:103EF000004170BD00F01CF88900013E00F007B8D9
:103F000000F009B84FEA430C5FEA5C5C08D081EA34
:103F1000030100F05BB84FEA410C5FEA5C5CF6D14C
:103F20004FF00000014970470000FF070000F87FD4
:103F30000EF1020E2EF0030E5EF8046B364205D42D
:103F4000012A43EB030515F5001F12D8012841EBA8
:103F5000010C1CF5001F0CD80ED14FEAD17C15F5D1
:103F6000001F0CEB4C0C0CF1020C08BF4CEBD37C8B
:103F700004E04FF0080C01E04FEAD37C0CEB4C0559
:103F800026FA05F606F00706B6F1040C06D20EEB8B
:103F9000860CBDE870404CF0010C6047DFE80CF087
:103FA000090B02024FF000414FF00000A1F5002183
:103FB00070BD19461046012851EB010418BFD4F515
:103FC000001484BF002001F0004170BD0808A0F576
:103FD00000114FEA3101704753EA010C17D41CF568
:103FE000801F58BFBCF5801F00F106808B4218BFB0
:103FF000704708BF8242704707D713F5801F58BF2C
:1040000011F5801F19D48B4270479B4270471CF5F5
:10401000801F08D5BCF5801FF7D5994218BF70479F
:1040200008BF904270474FF4001C1CEB430F38BF91
:104030001CEB410F01D2994270470FB40CBC03BC7A
:10404000FFF7C1BE91EA030F10B581F000413FF5C3
:104050003FAC83F0004300F009B8000010B591EACE
:10406000030F48BF83F000433FF532AC841A71EB75
:10407000030C07D212198CF0004C43EB0C03001B0D
:1040800061EB0C01DFF8A4E14FEA1154A4EB135CDF
:104090001EEA430F18BF9EEA445F00F0B08023EA97
:1040A0006E03524221EA0451C3EB6E0338BF5B1E1C
:1040B000DCF1200E25D322FA0CFE10EB0E0043FAA1
:1040C0000CFE41EB0E01CCF1200E03FA0EFE10EBBC
:1040D0000E0051F10001CCF1200E29D412FA0EF29B
:1040E00001EB0451BDE8104058BF7047401C1CBF95
:1040F000B2F1004F704700280CBF491C20F00100AE
:10410000704712EB020E43EB030218BF4FF0010E93
:104110004EEA4202ACF1200CDCF11E0E54D943FAF7
:104120000CFE10EB0E0051F1FF31CCF11E0ED5D577
:104130000EF1010E12FA0EFE404141EB010101EBBE
:10414000445C5FEA5C5C10D910EBDE7001EB04515B
:1041500038BFBEF1004FBDE8104018BF70470028BF
:104160000CBF491C20F00100704730D24FEAD42C1C
:1041700011F5001124F400641BD0B1FA81F20B3A5E
:10418000A41AA41ED2F12003914030FA03F319437C
:10419000904001EBCC71002C01EB0451BDE81040C4
:1041A000A8BF704701F1C0414FF0000001F000418D
:1041B0007047B0FA80F310FA03F100D110BDE41A91
:1041C000173C4805C90AE4E701EB045110BD49104A
:1041D00001EB0451BDE810404FEA300002E04FF01F
:1041E000000170474A0008BF0042F8D0B2F5001F36
:1041F00028BF704701F000414FF0000070479EEA71
:10420000445F07D011EA5E0FBDE8104004BF0021F3
:1042100000207047BDE8104070B5FFF789FE00BF71
:1042200040DFF63E83F00041104670470000E0FF9B
:1042300043004FEAD30C4FEA3C0C43401FBF4007FA
:104240000CF1605113F0FE4F70471CF0006F03D16A
:1042500000200CF0004170470CF0004343EA50701E
:1042600010B540EACC0000F00EF800BF000000924C
:104270004FEA0001FFF7AABE4FF000414FF00000E7
:10428000A1F5002170470EF1020E2EF0030E5EF82C
:10429000044B244204D44FEA4102B2F17F4F11D8BB
:1042A0004FEA4003B3F17F4F0CD80ED14FEAD07CD8
:1042B000B2F17F4F0CEB4C0C0CF1020C08BF4CEB35
:1042C000D17C04E04FF0080C01E04FEAD17C0CEB0C
:1042D0004C0324FA03F404F00704B4F1040C06D2EE
:1042E0000EEB840CBDE810404CF0010C6047DFE899
:1042F0000CF0070802024FF00040A0F5800010BD4E
:104300000846420018BFD2F1807288BF00F000401A
:1043100010BD4FF04070E1EE100A7047FF2141EAF6
:10432000D050C00570470000000000000000E03FD2
:10433000000000000000E0BF0000E0FE422EE63F6B
:104340000000E0FE422EE6BF763C7935EF39EA3DCB
:10435000763C7935EF39EABD3E5555555555C53F43
:1043600093BDBE166CC166BF2CDE25AF6A56113FE9
:10437000F16BD2C541BDBBBED0A4BE726937663EEB
:10438000A043000800000020E4020000C40100086F
:104390002C450008E40200207C07000020020008F1
:1043A000031801016348420310A0400615380203B8
:1043B000040503122041157A441103126B220313E2
:1043C0004E3718B1992E09F04E695C12EFC8494575
:1043D00009F0F589640CF011895412EF20996112EB
:1043E000EF05B95712EF13A95512EF01A95612EFB5
:1043F00002790E0BF08C695B12EFCF594309F0E3A1
:10440000F97B0AF078896F0AF01C896B0AF0186949
:10441000E309F07369DF09F04FE9CC09F0DCE9C882
:1044200009F0D8494709F0F7694109F0D129320963
:10443000F0E2591A07F0B4891707F069F91407F088
:104440001A499A06F025799406F01B099906F06638
:10445000C99706F0A8499606F029399206F05D59E9
:104460009306F03CB91B06F054A91B07F04589954B
:1044700006F0EA49191B2DB9231BD91932180D76FC
:10448000C91307F02D491607F0A89955180879099E
:104490001907F0E7B92D182155099907F067199FF9
:1044A00007F071E99B07F08519A207F04CA91A08DB
:1044B000F04B991E08F07FA9F50034267E093008DC
:1044C000F0C1092C08F0DD296212EFB6A9AD08F0A1
:1044D000FCA9B108F0E019C008F02119C408F025C2
:1044E000C96112EF55496912EFDDF99807F096841A
:1044F0007A030AC0090102030406070809291409FE
:10450000121801481AFF01021564071C803E0AD7E1
:10451000233C1201120212041208128002443000DD
:0C4520000A103F6F12033ACDCC4C3D0056
:040000050800026984
:00000001FF
